:020000040800F2
:10000000206B002065110008A90F0008AB0F000845
:10001000B30F0008B50F0008B70F0008000000007C
:10002000000000000000000000000000B90F000800
:10003000BB0F0008000000007B1100087D110008C4
:100040007F1100087F1100087F1100087F11000850
:100050007F1100087F1100087F1100087F11000840
:100060007F1100087F1100087F1100087F11000830
:100070007F1100087F1100087F1100087F11000820
:100080007F1100087F1100087F1100087F11000810
:10009000EB6200087F1100087F1100087F11000843
:1000A0007F1100087F1100087F1100087F110008F0
:1000B0007F1100087F1100087F1100087F110008E0
:1000C0007F1100087F1100087F1100087F110008D0
:1000D0007F110008B34700086D460008C7420008BA
:1000E0007F1100087F1100087F1100087F110008B0
:1000F0007F1100087F1100087F1100087F110008A0
:100100007F1100087F1100087F1100087F1100088F
:100110009B480008F54800087F1100087F1100087F
:100120007F1100087F1100087F1100087F1100086F
:100130007F1100087F1100087F1100087F1100085F
:10014000C16500087F1100087F11000855B800083C
:100150007F1100087F1100087F1100087F1100083F
:100160007F1100087F1100087F1100087F1100082F
:100170007F1100087F1100087F1100087F1100081F
:100180007F1100087F110008DFF80CD00BF010FF82
:100190000048004705060008206B00200000000012
:1001A0002DE9F001F9480068F94B1860F949096830
:1001B0005960F94A12689A600844F849104490FB63
:1001C000F1F201FB1200D86042F2107490FBF4F1DE
:1001D000DFF8CCC38CFB01525511A5EBE2726FF036
:1001E00018056A43EF4D01EB82012A68D14201D51F
:1001F00000211DE090FBF4F18CFB01767711A7EB59
:10020000E6766FF018077E4301EB860111446329FF
:1002100001DD63210CE090FBF4F18CFB017677119A
:10022000A7EBE6766FF018077E4301EB86011144D9
:10023000DD4E3162596390FBF4F104FB11018CFB3C
:1002400001214A11A2EBE1718CFB01725711A7EB5E
:10025000E2726FF018077A4301EB82016A68D142BB
:1002600001D500212DE090FBF4F104FB11018CFB82
:1002700001714F11A7EBE1718CFB01874FEA671801
:10028000A8EBE7776FF0180807FB08F701EB870189
:100290001144632901DD632113E090FBF4F104FBB9
:1002A00011018CFB01414C11A4EBE1718CFB017439
:1002B0006711A7EBE4746FF018077C4301EB84012E
:1002C0001144716299638CFB00214A11A2EBE17128
:1002D0006FF01802514300EB8100A968401801D566
:1002E000002002E0632800DD6320B062D863BDE82F
:1002F000F00170472DE9F04FA4480068DFF890E264
:10030000CEF80000A3490968CEF80410A24A12688A
:10031000CEF808200844A149104490FBF1F201FBFB
:100320001200CEF80C00DFF88482DEF81010DFF83F
:1003300070A2D8F80CC0D8F8004001FB04C18AFBB9
:1003400001325311A3EBE2726FF018035A4301EB31
:100350008202CEF81C20D8F81050DEF81410D8F81D
:10036000046001FB06518AFB01735F11A7EBE37385
:100370006FF018077B4301EB8301CEF82010D8F80B
:100380001470DEF81830D8F8088003FB08738AFB75
:1003900003B94FEA691BABEBE9796FF0180B09FB66
:1003A0000BF903EB8903CEF82430002A01DA00228E
:1003B00002E0632A00DD6322CEF81C20002901DA66
:1003C000002102E0632900DD6321CEF82010002B1C
:1003D00001DA002302E0632B00DD6323CEF8243032
:1003E00042F2107B90FBFBF18AFB01325311A3EB2D
:1003F000E2726FF018035A4301EB820369490A68FD
:10040000D34201D5002121E090FBFBF18AFB01934F
:100410004FEA6319A9EBE3736FF0180903FB09F3C3
:1004200001EB83011144632901DD63210EE090FBA0
:10043000FBF18AFB01934FEA6319A9EBE3736FF0B9
:10044000180903FB09F301EB8301114401FB04C10B
:100450008AFB01325311A3EBE2726FF018035A4387
:1004600001EB8201CEF8281090FBFBF20BFB12028D
:100470008AFB02325311A3EBE2728AFB02C34FEAFA
:10048000631CACEBE37C6FF01803DFF818910CFBF6
:1004900003F302EB8302D9F80430DA4201D50022DB
:1004A00031E090FBFBF20BFB12028AFB02C24FEA27
:1004B000621CACEBE2728AFB024C4FEA6C14A4EBB8
:1004C000EC7C6FF018040CFB04FC02EB8C021A4469
:1004D000632A01DD632216E090FBFBF20BFB1202A4
:1004E0008AFB02C24FEA621CACEBE2728AFB024C4E
:1004F0004FEA6C14A4EBEC7C6FF018040CFB04FCCA
:1005000002EB8C021A4402FB06528AFB02C34FEA3A
:10051000631CACEBE3736FF0180C03FB0CF302EB02
:100520008302CEF82C208AFB00C34FEA631CACEB9D
:10053000E3736FF0180C03FB0CF300EB8300D9F8A6
:100540000830C01801D5002002E0632800DD6320D8
:1005500000FB08708AFB00C34FEA631CACEBE3733B
:100560006FF0180C03FB0CF300EB8300CEF83000A7
:10057000002901DA002102E0632900DD6321CEF8C1
:100580002810002A14DA002215E00000107AFF1F5C
:100590002C070020147AFF1F187AFF1F80969800FE
:1005A0001F85EB513800002070070020200000203C
:1005B000632A00DD6322CEF82C20002801DA002017
:1005C00002E0632800DD6320CEF83000F84BDFF84E
:1005D000E4C31C7BA1420DD1597B8A420AD1997B8D
:1005E000884207D160208CF80000012018708EF836
:1005F000400003E0002018708CF800009CF8000018
:10060000BDE8F08F2DED088B9AB000250C950D9567
:100610000E950F95109511951295139514951595A6
:1006200002950395049505950695079508950995F6
:100630000A950B95FFF7B4FDFFF75CFE4FF4A06041
:1006400000F004FEA82000F09FFD03F06EFA642085
:1006500002F080FFD8480090D84BD94A0121D948F0
:100660000AF0A6FA642002F075FF02F0A8FF03F07A
:1006700035F802F0CAFDD44803F0BCFCFC20D44A93
:10068000D44E01240090D14B51060194304602F023
:10069000BFFF01228021D04801F0C6FBFC2130467B
:1006A00003F004F8642002F055FF4FF47A7104203F
:1006B00003F048F80023B0EE080A06220521184688
:1006C00005F0EBFE642002F045FF04F0A2FF9FED71
:1006D000C30AB74880ED010A9FEDC10A80ED020A06
:1006E000C048C14905700D70C04A15709FEDC0AB80
:1006F0009FEDC19B02F58060F3EE098ADFF800A34D
:100700009FEDC08A1890FFF7F5FD052002F02CFF41
:10071000A84E86ED030AB4480178A1B1B1490A7820
:10072000B9490968114303D00121017003F01DF894
:10073000B6490868421C0A60B0F5967F19DDB248D8
:10074000006818B115E003F010F8F1E7A5480D6056
:100750000570A648457080F8495180ED298A80EDE2
:10076000208A80ED0E8A80ED7B8A80ED728A80ED92
:10077000608ADFF87892D9F850000BF051FA41EC1A
:10078000100B0BF08CFC53EC1A2B51EC100B0BF0F4
:1007900073FA08D29DED020AD6ED030A30EE200A64
:1007A0008DED020A01E08DED028A994C0298A0427B
:1007B0000EDB8DED028A0120C9F8140189F8015081
:1007C00089ED298A89ED208A89ED0E8A89F81851E8
:1007D000D9F898010BF024FA41EC100B0BF05FFCF8
:1007E000B0EE4ABAF0EE6ABA53EC1B2B51EC100B88
:1007F0000BF042FA08D29DED030AD6ED030A30EE63
:10080000200A8DED030A01E08DED038A0398A042D2
:100810000EDB8DED038A0120C9F85C0289F849518D
:1008200089ED7B8A89ED728A89ED608A89F8605248
:100830000024784F4FF0010B07F1030804EBC400CC
:1008400000EB441009EBC00090F88A1001B3417826
:1008500029B13A5D1AB990ED0F0A80ED0C0A3955AD
:10086000017939B918F80420022A03D180F803B0BD
:1008700080F818B108F804104E4E204696ED030A91
:1008800005F07CFB96ED030A204604F071FF06E0BC
:10089000457080ED298A80ED208A80ED0E8A601CEB
:1008A000C4B2032CCAD3D9F8140138B189F8015065
:1008B00089ED298A89ED208A89ED0E8AD9F85C02B2
:1008C00038B189F8495189ED7B8A89ED728A89EDC1
:1008D000608A99F8050008B1C9F8145199F84D01DA
:1008E00008B1C9F85C52414890F82401012809D0A8
:1008F0003E4C38B1022800F07282032800F06F826B
:1009000000F0E9BADFF8E4B0DBF88C00411CCBF86A
:100910008C10B0F5967F0BDD8BF88A508BF8015068
:100920008BED298A8BED208A8BF818518BED0E8A7E
:10093000DBF8D401411CCBF8D411B0F5967F0BDD68
:100940008BF8D2518BF849518BED7B8A8BED728AF3
:100950008BF860528BED608A2B48006830B39BF8AF
:1009600002009BF8181110FB01F0C0B28BF80100D7
:100970009BF84A219BF8601212FB01F1C9B28BF877
:100980004911DBF89020022A48D0012A5CD08AED78
:10099000008ADBF8D8015A46022860D0012874D0BA
:1009A0008AED018A1C48006808B1C6E07DE077E066
:1009B00070070020000000200C0700209006002097
:1009C000BC060020A010002020A10700B8200020B5
:1009D00004100140B864024000100140CDCC8C3FAF
:1009E0009A99993F5C0100205D010020F4210020CC
:1009F0000000000000409A40000000000000F83FA6
:100A00001800002000000000780100206C01002088
:100A1000CDCCCC3D03000020940100209BED0F0ABB
:100A20005A468BED0C0A00EE100AD2ED290AB8EEF8
:100A3000400A60EE800A92ED430AB8EEC00A20EE4A
:100A4000800A8AED000AA4E700EE100ADBED200A16
:100A5000B8EE400A20EE800A8AED000A99E792ED8E
:100A6000610A82ED5E0A00EE101AD2ED7B0AB8EE42
:100A7000400A60EE800A92ED950AB8EEC00A20EEB8
:100A8000800A8AED010A8DE7FFE700EE101AD2ED29
:100A9000720AB8EE400A20EE800A8AED010A81E768
:100AA0008AED018A8AED008A47E0FE48007860B34B
:100AB0009BED0F0A8BED0C0A9BED610A8BED5E0A34
:100AC0009BF80100DBED290A00EE100AB8EE400A9F
:100AD00060EE800A9BED430AB8EEC00A20EE800A61
:100AE0008AED000A9BF84901DBED7B0A00EE100A53
:100AF000B8EE400A60EE800A9BED950AB8EEC00A97
:100B000020EE800A8AED010A17E09BF80100DBED78
:100B1000200A00EE100AB8EE400A20EE800A8AEDA4
:100B2000000A9BF84901DBED720A00EE100AB8EEEC
:100B3000400A20EE800A8AED010A9BF88A10DBF851
:100B40001401E0B30020484300EE100ADAED000A79
:100B5000B8EE400A20EE200A8AED000A9BF8D21176
:100B6000DBF85C0260B30020484300EE900A9AED87
:100B7000011AF8EE600A60EE810ACAED010A9BEDE7
:100B80001E1AF1EE410A04F019FDC74C94F840001A
:100B900000EE900AF8EE600A20EE200A8AED000AC4
:100BA0009BED701A9AED010AF1EE410A04F006FD80
:100BB00094F84060F0EE400A00EE106A01E025E093
:100BC00026E0B8EE400A60EE800ACAED010A9AED0E
:100BD000000A8BED210ACBED730A9BF88A0010FB0B
:100BE00006F7DBF814919BF80180B9F1000F11D0E2
:100BF000002008FB00F007FB00F1AA480278AB4890
:100C0000006852EA000407D0012006E001209AE7BC
:100C10000120A9E70120ECE7002041439BF8D20125
:100C20005A4683464143D2F85C02179050B10020E7
:100C3000484300FB06F192F84901169041431CB16C
:100C4000012002E00120F3E7002048439849C0B2A8
:100C500048708B78184300D0012048701178002923
:100C60007ED001296AD0022960D1924991ED00BA63
:100C700082ED19BA4968C2F8B411B9F1000F07D072
:100C8000002308FB03F307FB03FC1CB1012302E074
:100C90000123F6E700230CFB03F39BB308460AF09D
:100CA000BFFF53EC192B0AF09DFE0AF0FDFF0BEE7F
:100CB000900A8148C06E0AF0B3FF53EC192B0AF07A
:100CC00091FE0AF0F1FF01EE900A169917980BFBBE
:100CD00006F230B10020484302FB00F11CB10120B4
:100CE00002E00120F7E700204843734AC1B2B9F19E
:100CF000000F08D0002008FB00F007FB00F324B130
:100D0000012003E013E00120F5E7002092ED6B0ADB
:100D10005843C0B220EE282A2BEE281AD2ED5E0AE4
:100D200092ED0C0AF0EE6B2A04F07BF852E0B0EE84
:100D3000480AF0EE400A04F03CFB4BE05E48D0F875
:100D4000B4010AF06DFF53EC192B0AF04BFE0AF0C8
:100D5000ABFF0BEE100A5848C06E0AF061FF00E0CE
:100D600036E053EC192B0AF03DFE0AF09DFF01EE30
:100D7000900A169917980BFB06F230B100204843F1
:100D800002FB00F11CB1012002E00120F7E7002086
:100D90004843494AC1B2B9F1000F07D0002008FB0F
:100DA00000F007FB00F31CB1012002E00120F6E790
:100DB0000020B0EE481A5843C0B2D2ED5F0A92ED5F
:100DC0000D0AF0EE4B2AB0EE412A04F05EF901E084
:100DD00004F0EFFA40F29A2000F0E9F97BE018986D
:100DE000D0ED1F0A94F8D903F0B3002100EE101AD9
:100DF0001899B8EE400A91ED161A60EE800A00EEDE
:100E0000100AB8EE400A41EE000ABDEEE00AD4ED49
:100E1000CD0A10EE100A03B294F8910228B3002113
:100E200000EE101A94EDC41AB8EE400A60EE800A83
:100E300000EE100AB8EE400A41EE000ABDEEE00AEC
:100E4000D4ED7B0A10EE100A02B294F84901A8B35F
:100E5000002100EE101A94ED721AB8EE400A60EE0E
:100E6000800A00EE100A01E049E04AE0B8EE400ACC
:100E700041EE000ABDEEE00AD4ED290A10EE100A98
:100E800001B26078D0B34FF0000C00EE10CA94EDC0
:100E9000201AB8EE400A20EE800A00EE900AF8EE22
:100EA000600A0CE05C0100202C0700209401002067
:100EB0000000002010000020F421002023E001EEBB
:100EC000200ABDEEC00A10EE100A00B205F081FA49
:100ED000012000F09EF92C4C9DED0C0AD4ED030A84
:100EE00030EE200A8DED0C0A10EE100AB0F17C5F96
:100EF0000EDD8DED0C8A06F01BFA0BE005E00121FA
:100F000074E701218CE70121A3E74FF0010CBCE756
:100F100005F05EFE94ED030A08F098FB1B49086893
:100F2000B0B11B48457080ED298A80ED208A80EDA4
:100F30000E8A80F8185180F8495180ED7B8A80ED47
:100F4000728A80ED608A80F860520D6002F04DFD7B
:100F5000104F386880B1104E30680AF061FE9FED86
:100F6000101B53EC112B0AF096FC0AF09DFE30602A
:100F7000B0F17C5F00DD3D6094ED030A02F07AF988
:100F8000FFF7C1BB0000000000000020900100201E
:100F9000F4210020940100209801002000000000AE
:100FA0007B14AE47E17A743F704704490120087012
:100FB000FEE7FEE7FEE7FEE77047704744000020CB
:100FC00082B00022019200925849086840F48030B3
:100FD0000860086800F4003000900198401C0190FF
:100FE000009818B90198B0F5A04FF2D1086810F434
:100FF000003F02D00120009000E0009200980128FC
:1010000030D14B48026842F0805202604948026881
:1010100042F440420260484802680260026842F4BA
:1010200000420260026842F4A0520260021F434B79
:1010300013600A6842F080720A600A6812F0007F4A
:10104000FBD03F4A40F205711160016821F00301B5
:101050000160016841F002010160016801F00C01CA
:101060000829FAD102B0704710B53648016841F43A
:10107000700101602D48016841F0010101602E4AB4
:1010800000211160026822F4102222F080720260B6
:10109000031D2D4A1A60026822F4802202602B4848
:1010A0000160FFF78DFF2A494FF00060086010BD16
:1010B00030B4214C206800F00C00264D2649002851
:1010C00011D04FEA650C04280FD0082810D00D600D
:1010D0002068C0F303122148805C0A6822FA00F0FD
:1010E000086030BC70470D60F2E7C1F800C0EFE760
:1010F0001B4A1068C0F38053106800F03F0033B102
:10110000BCFBF0F01368C3F38813584305E0B5FB4C
:10111000F0F01368C3F3881358431268C2F3014216
:10112000521C5200B0FBF2F00860D1E700380240D8
:101130004038024000700040083802400854400720
:10114000003C024088ED00E0103000240C380240E2
:1011500008ED00E00024F400480000204C000020CE
:10116000043802400648804706480047FEE7FEE78D
:10117000FEE7FEE7FEE7FEE7FEE7FEE7FEE7FEE747
:10118000691000088901000810B504466FF00400DA
:1011900000F0AFF82C49E008087000EB4002C2EB09
:1011A000C0104FF6FF7202EAC000488010BD264909
:1011B000097848434FF0E021486100238B610869BA
:1011C00040F001000861086910F0010F02D010F42E
:1011D000803FF8D0086920F0010008618B617047FA
:1011E0001949498848434FF0E021486100238B6149
:1011F000086940F001000861086910F0010F02D091
:1012000010F4803FF8D0086920F0010008618B617C
:10121000704730B54FF40771B0FBF1F2D4B2B0FBB8
:10122000F1F201FB1205002C07D04FF40770FFF715
:10123000D7FF611ECCB2002CF7D1002D03D0284679
:10124000BDE83040CCE730BD5C000020304940F0C4
:10125000FD7040F080600860704710B44FF00F0CD4
:10126000C27801240178002A23D0294A126802F4A6
:10127000E062C2F5E062C2F30722C2F104032CFA75
:1012800002FC42789A40837803EA0C031A43120165
:1012900001F1E02181F80024007800F01F0104FA38
:1012A00001F14009800000F1E020C0F8001110BCFD
:1012B000704701F01F0004FA00F04909890001F1AC
:1012C000E021C1F8800110BC704721F07F0121F0BE
:1012D000604108430F49086070470F4A002903D056
:1012E0001168084310607047116821EA000010601F
:1012F00070474FF0E021042804D0086920F0040072
:1013000008617047086940F00400086170470000F8
:101310000CED00E008ED00E010ED00E010B5A0F1EC
:101320008041B1F500313CD0A0F18041B1F50131EF
:1013300041D0A0F18041B1F5023146D0A0F1804109
:10134000B1F503314BD0A0F18041B1F5043150D05B
:10135000A0F18041B1F5053155D0A0F18041B1F542
:1013600006315AD0A0F18041B1F507315FD0A0F12C
:101370008041B1F5083164D0A0F18041B1F5093167
:101380006AD0A0F18041B1F50A3170D10121880203
:1013900000F0A5FABDE8104000214FF4806000F095
:1013A0009EBA0121084600F09AFA0021BDE81040DB
:1013B000012000F094BA0121022000F090FA0021EF
:1013C000BDE81040022000F08ABA0121042000F09C
:1013D00086FA0021BDE81040042000F080BA012107
:1013E000082000F07CFA0021BDE81040082000F041
:1013F00076BA0121102000F072FA0021BDE81040F9
:10140000102000F06CBA0121202000F068FA0021C1
:10141000BDE81040202000F062BA0121402000F019
:101420005EFA0021BDE81040402000F058BA0121CA
:10143000802000F054FA0021BDE81040802000F028
:101440004EBA0121080200F04AFABDE8104000211E
:101450004FF4807000F043BA0121480200F03FFAD7
:10146000BDE8104000214FF4007000F038BA10BD04
:101470002DE9F00100220126032706FA02FC0B6881
:1014800003EA0C03634538D10568530007FA03F4F7
:10149000A54305600D79D0F800809D4045EA080518
:1014A00005600D79012D01D0022D17D18568A54366
:1014B00085604D79D0F808809D4045EA0805856033
:1014C000456825EA0C0CC0F804C0D0F804C08D793A
:1014D0009540ADB24CEA050CC0F804C0D0F80CC081
:1014E0002CEA040CC0F80CC091F807C00CFA03F306
:1014F000D0F80CC043EA0C03C360521C102ABCD3C2
:10150000BDE8F00170474FF6FF71016000210171E5
:1015100041718171C171704781B041F48032009294
:10152000009AC261C1610099C161C169C06900903E
:1015300001B070470246002012690A4200D0012023
:101540007047006980B270470246002052690A4223
:1015500000D001207047406980B270470183704716
:1015600041837047002A01D001837047418370474F
:101570004161704742695140416170474B07DB0E42
:101580009A40C90800EB8100016A4FF00F0C0CFA79
:1015900003F399430162016A11430162704700003D
:1015A000F948016841F001010160F84A0021116029
:1015B000026822F4102222F0A8520260031DF44AAD
:1015C0001A60F54BF34A1A601B1DF44A1A60026850
:1015D00022F480220260F2480160181D0160704709
:1015E000F04900220A700870704700224109012961
:1015F0000DD002290ED0EC49096800F01F0001232C
:1016000003FA00F0084200D0012210467047DE497C
:101610000968F2E7E5490968EFE708B5002000909E
:101620003120FFF7E2FF0099491C00910099B1F5C4
:10163000A04F01D00028F3D03120FFF7D6FF08B12A
:10164000012008BD002008BDCF4A116821F0F80133
:1016500041EAC00010607047D54908607047D3491F
:1016600000220A700A70012804D0042801D1052044
:1016700008707047012008707047CE4908607047B5
:10168000DDF800C041EA82114FF0FF3202EB530255
:1016900041EA02410843C84940EA0C6008607047CB
:1016A000C34908667047800140EA0170BA49086082
:1016B0007047BF4988667047800140EA0160BF49B2
:1016C00040EA027008607047B94908677047B84936
:1016D000C8647047AD4B1A6822F0EC6208431043AF
:1016E00018607047A94B1A6822F0784208431043EB
:1016F00018607047A54A116821F003010843106083
:101700007047A248006800F00C0070479F4A1168BB
:1017100021F0F0010843106070479C4A116821F4E1
:10172000E051084310607047984A116821F4604105
:1017300041EAC0001060704730B4DFF850C2DCF8F6
:10174000001001F00C019E4D002923D06C100429DB
:1017500022D0082922D00560DCF8001001F0F00149
:101760000909984B595C026822FA01F14160DCF8E2
:10177000002002F4E052920A9A5C21FA02F282609E
:10178000DCF8002002F46042520B9A5CD140C16048
:1017900030BC70470560DFE70460DDE7864A11680A
:1017A000C1F38053116801F03F0133B1B4FBF1F193
:1017B0001368C3F38813594305E0B5FBF1F11368CF
:1017C000C3F3881359431268C2F30142521C5200FA
:1017D000B1FBF2F10160BFE74FF44071814309D1E1
:1017E0006A4A116821F4F81120F4407323F0704321
:1017F000194311606D490A68C0F30B00104308607B
:1018000070477149086070477049086070477049B7
:10181000086070476F4A116821F01F01401E08439D
:10182000106070476B4A116821F4F851401E41EA7C
:10183000002010607047674A116821F44011084386
:1018400010607047634A116821F44001084310603A
:101850007047604A116821F44031084310607047B6
:101860005D49086070475D4A002903D0116808434C
:1018700010607047116821EA000010607047584AF4
:10188000002903D01168084310607047116821EAED
:10189000000010607047534A002903D011680843C4
:1018A00010607047116821EA0000106070474E4ACE
:1018B000002903D01168084310607047116821EABD
:1018C000000010607047494A002903D0116808439E
:1018D00010607047116821EA000010607047444AA8
:1018E000002903D01168084310607047116821EA8D
:1018F0000000106070473F4A002903D01168084378
:1019000010607047116821EA0000106070473A4A81
:10191000002903D01168084310607047116821EA5C
:10192000000010607047354A002903D01168084351
:1019300010607047116821EA000010607047304A5B
:10194000002903D01168084310607047116821EA2C
:101950000000106070472B4A002903D0116808432B
:1019600010607047116821EA000010607047264A35
:10197000002903D01168084310607047116821EAFC
:101980000000106070470000003802400838024034
:101990001030002400300020843802400030002441
:1019A0000C3802400238024074380240703802405D
:1019B00000004742800E4742043802408838024007
:1019C0000024F400600000203C0E4742400E4742D5
:1019D0005C0147428C380240E011474230380240F7
:1019E000343802403838024040380240443802401F
:1019F00010380240143802401838024020380240A3
:101A0000243802405038024054380240264A002907
:101A100003D01168084310607047116821EA000084
:101A200010607047214A002903D0116808431060F4
:101A30007047116821EA0000106070471C4A0029B5
:101A400003D01168084310607047116821EA000054
:101A5000106070471749012804D0086820F008007A
:101A600008607047086840F0080008607047124A34
:101A7000002903D01178084310707047117821EACB
:101A80000000107070470D48016841F080710160DE
:101A90007047014600200A4A12680A4200D001201D
:101AA0007047084908707047583802406038024053
:101AB00064380240703802400D38024074380240E9
:101AC0000C3802400E38024010B5A0F18041B1F54B
:101AD00088312DD0A0F18041B1F5884132D0A0F1FC
:101AE0008041B1F5904138D0A0F18041B1F59841E5
:101AF0003ED0A0F18041B1F5A04144D0A0F1804199
:101B0000B1F58A314AD0A0F18041B1F5F0414FD012
:101B1000A0F18041B1F5F84155D10121C807FFF787
:101B200002FFBDE8104000214FF00040FFF7FBBE70
:101B300001211020FFF703FF0021BDE81040102015
:101B4000FFF7FDBE01214804FFF7EDFEBDE81040A0
:101B500000214FF40030FFF7E6BE01218804FFF7B3
:101B6000E2FEBDE8104000214FF48020FFF7DBBE0D
:101B70000121C804FFF7D7FEBDE8104000214FF453
:101B80000020FFF7D0BE01210805FFF7CCFEBDE81D
:101B9000104000214FF48010FFF7C5BE0121202026
:101BA000FFF7CDFE0021BDE810402020FFF7C7BEA3
:101BB00001218807FFF7B7FEBDE8104000214FF074
:101BC0008040FFF7B0BE10BD30B585B004460D466D
:101BD000208A20F44050E98808432082A08920F41C
:101BE000037020F4A050A9882A8911436A89104300
:101BF0000843A081A08A20F44070A9890843A082EC
:101C00006846FFF799FDA4F18040B0F5883012D006
:101C1000A4F18040B0F58A300DD00298A18911F46A
:101C2000004F0AD000EBC00101EB00102968490009
:101C3000B0FBF1F009E00398F0E700EBC00101EB25
:101C4000001029688900B0FBF1F0A84AA2FB00311E
:101C5000490909010B096FF0180C03FB0CF300EBA9
:101C60008300A38913F4004F4FF0320307D003EB36
:101C7000C000A2FB0020C0F34210084306E003EBC3
:101C80000010A2FB0020C0F343100843208105B0E0
:101C900030BD4FF41651016000218180C180018167
:101CA0000C22428181817047028A22F470620B8883
:101CB000B1F802C043EA0C03B1F804C0C9884CEA89
:101CC00001011943114301827047002101804180C5
:101CD0008180C1807047002904D0818941F400517E
:101CE00081817047818921F4005181817047028B85
:101CF00002F47F420283028B114301837047002963
:101D000004D0818941F40041818170478189C1F308
:101D10000E0181817047002904D0818A41F400615D
:101D200081827047818A21F4006181827047C1F30A
:101D30000801818070478088C0F308007047028ADC
:101D400022F00F020282028A1143018270470029A9
:101D500004D0818941F0020181817047818921F09D
:101D6000020181817047828922F400628281828926
:101D7000114381817047028A22F020020282028A86
:101D8000114301827047002904D0018A41F4804147
:101D900001827047018A21F4804101827047818964
:101DA00041F0010181817047002904D0818A41F00E
:101DB000080181827047818A21F008018182704781
:101DC000028BD2B20283028B42EA01210183704767
:101DD000002904D0818A41F0200181827047818AE4
:101DE00021F0200181827047002904D0818A41F0CE
:101DF000100181827047818A21F010018182704731
:101E0000828A22F004028282828A11438182704790
:101E1000002904D0818A41F0020181827047818AC1
:101E200021F0020181827047002A03D0828A114387
:101E300081827047828A22EA01018182704740F6DE
:101E40006A13C1F3421301F01F014FF0010C0CFAA9
:101E500001F1012B07D0022B07D014303AB10268F0
:101E60001143016070470C30F8E71030F6E7026864
:101E700022EA0101016070470246002012880A42EE
:101E800000D00120704701F40072C94301807047FF
:101E900010B44FF0000C40F66A12C1F3421301F087
:101EA0001F02012404FA02F2012B0FD0022B10D0E2
:101EB000838A1A40090A04FA01F10088084012B125
:101EC00008B14FF0010C10BC6046704783891A407E
:101ED000F0E7038A1A40EDE740F66A12090A012288
:101EE00002FA01F1C9430180704700001F85EB51E0
:101EF000FC4908707047FB49002804D0086840F48A
:101F0000807008607047086820F48070086070472F
:101F1000F449002804D0086840F400700860704755
:101F2000086820F4007008607047EE49002804D06B
:101F3000086840F4806008607047086820F480609A
:101F400008607047E748016841F40061016070472C
:101F5000E448016841F4805101607047E24800683C
:101F600010F0004F04D0E248E0490160E14901600F
:101F70007047DD48016841F0004101607047092069
:101F8000DD490A6812F4803F01D0012070470A68D9
:101F900012F0100F01D0062070470A6812F4807FFB
:101FA00001D0022070470A6812F0EF0F01D007201D
:101FB0007047096811F0020FFAD00820704708B581
:101FC00009200090FFF7DBFF00909DF8000001283A
:101FD00006D1FFF7D4FF00909DF800000128F8D04B
:101FE0009DF8000008BD70B506460025002905D003
:101FF000012927D0022928D04FF44075FFF7DFFFD1
:1020000009281ED1B84C206820F440702060206858
:1020100028432060206820F0F8002060206846F007
:10202000020108432060206840F480302060FFF700
:10203000C6FF216821F002012160216821F0F8012A
:10204000216070BD4FF48075D8E74FF40075D5E777
:1020500030B505460024FFF7B2FF2DB1012D1CD08D
:10206000022D1DD04FF44074092815D19E4D2868CB
:1020700020F440702860286820432860286840F0D9
:1020800004002860286840F480302860FFF797FF3C
:10209000296821F00401296030BD4FF48074E3E722
:1020A0004FF40074E0E730B505460024FFF787FFE2
:1020B0002DB1012D1CD0022D1DD04FF440740928E4
:1020C00015D1894D286820F4407028602868204385
:1020D0002860286840F004002860286840F48030B8
:1020E0002860FFF76CFF296821F00401296030BDEA
:1020F0004FF48074E3E74FF40074E0E730B5054631
:102100000024FFF75CFF2DB1012D1CD0022D1DD046
:102110004FF44074092815D1734D286820F440709D
:102120002860286820432860286840F40040286020
:10213000286840F480302860FFF741FF296821F4C7
:102140000041296030BD4FF48074E3E74FF4007420
:10215000E0E7F0B5074614461D46FFF730FF0928B3
:1021600014D1614E306820F440703060306840F423
:1021700040703060306840F0010030603C607D604D
:10218000FFF71DFF316821F001013160F0BD70B52E
:1021900006460D46FFF713FF092813D1524C20685D
:1021A00020F440702060206840F4007020602068B7
:1021B00040F0010020603560FFF701FF216821F049
:1021C0000101216070BD70B506460D46FFF7F7FEB0
:1021D000092813D1444C206820F440702060206806
:1021E00040F480702060206840F00100206035805D
:1021F000FFF7E5FE216821F00101216070BD70B597
:1022000005460E46FFF7DBFE092811D1364C206843
:1022100020F44070206020682060206840F00100B9
:1022200020602E70FFF7CBFE216821F001012160B4
:1022300070BD3248006810F0010F04D031483049B9
:1022400001603149016070472C48016841F001018B
:102250000160704730B504460D46FFF7B0FE09280F
:1022600004D12A481DB10188A143018030BD0188F5
:102270002143018030BD30B504460D46FFF79FFE77
:10228000092804D122481DB10188A143018030BD35
:1022900001882143018030BD1E4A117801F07F0181
:1022A00008431070704730B504460D46FFF787FEAF
:1022B000092804D115481DB101882143018030BD92
:1022C0000188A143018030BD30B504460D46FFF7BB
:1022D00076FE092804D10E48F5B10188214301801A
:1022E00030BD0000003C0240103C02402301674525
:1022F000043C0240AB89EFCD0C3C0240143C024050
:102300003B2A1908083C02407F6E5D4C163C024097
:102310001A3C0240173C02400188A143018030BDB5
:1023200010B50446FFF74BFE092801D12F48047071
:1023300010BD70B504460D461646FFF740FE09284D
:1023400007D12B4B187800F00F002843304320436F
:10235000187070BD26490A7822F010020A700A78B7
:1023600010430870704722490A7822F00C020A7064
:102370000A781043087070471D48017841F0020147
:1023800001701CE61A480068C0F3471070471948EE
:1023900000887047184800887047164800887047C2
:1023A000154800887047002010490978AA2900D0F4
:1023B000012070470E48007800F00C0070470F4A6B
:1023C000002903D01168084310607047116821EAA2
:1023D00000001060704701460020094A12680A4256
:1023E00000D001207047064908607047153C024044
:1023F000143C0240163C02401A3C0240103C024091
:102400000C3C02402DE9F003016821F0010101605C
:102410000021016041608160C16001612121416151
:10242000D34AD4494FF03D08904204D1C1F8088006
:10243000BDE8F0037047D04A4FF47464904203D172
:102440008C60BDE8F0037047CC4A4FF4741590429D
:1024500003D18D60BDE8F0037047C94A4FF0746640
:10246000904203D18E60BDE8F0037047C54BC64A69
:10247000984203D1CA60BDE8F0037047DFF80CC38F
:10248000C34B604503D1CB60BDE8F0037047C14F3B
:10249000DFF804C3B84204D1C1F80CC0BDE8F003B2
:1024A0007047DFF8F8924FF03D57484503D1CF60B1
:1024B000BDE8F0037047DFF8E892BA49484504D117
:1024C000C1F80080BDE8F0037047DFF8DC824045CA
:1024D00003D10C60BDE8F0037047B44CA04203D1B7
:1024E0000D60BDE8F0037047B14CA04203D10E600F
:1024F000BDE8F0037047AF4CAF49A04203D10A607A
:10250000BDE8F0037047AD4A904203D10B60BDE8CF
:10251000F0037047AA4A904204D1C1F800C0BDE858
:10252000F0037047A74A9042F9D10F60BDE8F0036D
:10253000704710B40268A44B1A40D1F80CC00B6865
:102540008C6943EA0C03D1F814C04CEA040C43EA4A
:102550000C03D1F81CC043EA0C03D1F820C043EAB5
:102560000C03D1F824C043EA0C03D1F828C043EA95
:102570000C03D1F834C043EA0C03D1F838C043EA65
:102580000C031A430260426922F00702D1F830C0FE
:10259000CB6A43EA0C031A4342610A6942604A6803
:1025A00082608968C16010BC704700210160416091
:1025B0008160C160016141618161C161016241620B
:1025C0008162C1620163416381637047002904D065
:1025D000016841F0010101607047016821F00101CB
:1025E00001607047002904D0016841F40041016096
:1025F0007047016821F4004101607047002904D050
:10260000016841F0200101607047016821F020015C
:102610000160704741607047406880B27047002A8F
:1026200004D0026842F40022026003E0026822F44F
:102630000022026001617047002904D0016841F462
:10264000802101607047016821F48021016070479A
:10265000002A01D001617047C16070470146002027
:10266000096811F4002F00D00120704701460020B6
:10267000096811F0010F00D001207047406900F097
:102680003800704702460020454B9A4201D2394A31
:1026900000E04E4A11F0005F01D0526800E012687D
:1026A0004B4B1A400A4200D0012070473C4A9042EE
:1026B00001D2304800E04548454A11F0005F01EA88
:1026C000020101D0C16070478160704711F0800F36
:1026D00009D022B1436943F08003436103E04369B9
:1026E00023F080034361802905D001F01E011AB157
:1026F0000268114301607047026822EA010101602B
:1027000070470023264A904201D21A4A00E02F4A1D
:10271000DFF8C0C011EA0C0F07D04FF01E0C0CEA16
:10272000D12C006800EA0C0002E0406900F0800053
:1027300011F0005F01D0526800E01268DFF890C02D
:1027400002EA0C020A4201D000B101231846704788
:10275000134A904201D2074800E01C481C4A11F07D
:10276000005F01EA020101D0C160704781607047DB
:102770001060024000600240286002404060024059
:1027800058600240706002403D00002088600240B6
:10279000400F0020A060024000003D20B8600240D1
:1027A0001064024008640240286402404064024011
:1027B00058640240706402400C6402408864024025
:1027C000A0640240B86402403F801CF000640240F4
:1027D0007D0F7D0F3C0F3C0F10B501214020FFF70E
:1027E0008AF80021BDE810404020FFF784B81B495B
:1027F000002804D0086840F00400086070470868AA
:1028000020F00400086070471548006870471349BD
:10281000002804D0086840F0080008607047086885
:1028200020F0080008607047014600200D4A126839
:102830000A4200D0012070470A496FEA0010086080
:10284000704701460020074A12680A4200D0012062
:1028500070470449C043C0B2086070470008065082
:1028600008080650040806500D49086070470C49D6
:10287000486070470A498860704709494AF6AA20AB
:102880000860704706494CF6CC4008607047014626
:102890000020034AD2680A4200D00120704700009D
:1028A0000030004010B5A0F18041B1F5C8410AD018
:1028B00001218806FFF737F8BDE8104000214FF0EE
:1028C0008060FFF730B801214806FFF72CF8BDE81B
:1028D000104000214FF00070FFF725B80022036878
:1028E00023F002030360036843F0010303604FF623
:1028F000FF7300E0521CD0F804C01CF0010F01D19E
:102900009A42F7D1426812F0010F41D08A79012A28
:1029100040D0026822F080020260CA79012A3ED0CB
:10292000026822F0400202600A7A012A3CD0026862
:1029300022F0200202604A7A012A3AD0026822F08C
:10294000100202608A7A012A38D0026822F0080256
:102950000260CA7A012A36D0026822F004020260BC
:102960008A7891F803C0920742EA0C6291F804C099
:1029700042EA0C4291F805C0098842EA0C52491E0D
:102980001143C161016821F001010160002120E0D3
:1029900000207047026842F080020260BDE70268D2
:1029A00042F040020260BFE7026842F0200202608B
:1029B000C1E7026842F010020260C3E7026842F019
:1029C00008020260C5E7026842F004020260C7E73D
:1029D000491C426812F0010F01D09942F8D14068B9
:1029E00010F0010F01D0002070470120704730B473
:1029F000827A01219140F84B1A6842F001021A6074
:102A0000DFF8D8C3DCF800208A43CCF80020047B30
:102A1000F34A002C1AD114688C4314604488C5888A
:102A200044EA0544857AED0005F1804505F5C04589
:102A3000C5F840460588848845EA0445847AE40060
:102A400004F1804404F5C044C4F84456047B012CCE
:102A50001AD114680C4314604288048842EA044284
:102A6000847AE40004F1804404F5C044C4F84026AC
:102A7000C288848842EA0442847AE40004F18044F3
:102A800004F5C044C4F84426C47AD64A34B1146864
:102A90000C4314600489D44A24B106E014688C43C2
:102AA0001460F7E714688C4314600489012C02D188
:102AB00014680C431460407B012804D1DCF800004A
:102AC0000843CCF80000186820F00100186030BC02
:102AD000704700218171C171017241728172C172AE
:102AE0008170C170032101710221417101210180B6
:102AF0007047B9490A6842F001020A600A6822F484
:102B0000877222F478520A600A6842EA002008605C
:102B1000086820F0010008607047002904D00168AF
:102B200041F4803101607047016821F48031016017
:102B30007047002916D0016841F080010160D0F88B
:102B4000841141F48071C0F88411D0F8941141F4DB
:102B50008071C0F89411D0F8A41141F48071C0F8CC
:102B6000A4117047016821F080010160D0F8841140
:102B700021F48071C0F88411D0F8941121F480718F
:102B8000C0F89411D0F8A41121F48071C0F8A411F8
:102B9000704710B402460020936813F0806F0CD188
:102BA000906810F0006F01D0012006E0906810F0EE
:102BB000805F01D0022000E0042004284FD002EB07
:102BC0000012D2F8803103F00103C2F880310B7A91
:102BD000F3B3D2F880C14C684CEA030391F809C002
:102BE0004CEAC40C43EA0C03C2F880318B7A03F040
:102BF0000F038B72D2F8843123F00F03C2F88431B3
:102C0000D2F8843191F80AC043EA0C03C2F8843147
:102C1000CB7A91F80EC00C7B43EA0C6391F80DC09F
:102C20004FEA0C4C4CEA042C43EA0C03C2F88831FE
:102C3000CB7B91F812C043EA0C6391F811C0097C78
:102C40004FEA0C4C4CEA01211943C2F88C1100E008
:102C500007E0D2F8801141F00101C2F8801110BCE8
:102C60007047D2F8803191F809C043EA0C03B1F8FB
:102C700000C043EA4C53C2F88031B7E70022002974
:102C800004D0012907D002290ED109E080685749F4
:102C900000EA010208E08068554900EA010203E009
:102CA0008068544900EA01025349501A8A421AD0F6
:102CB00007DCA2B16FF08060101812D002280BD18F
:102CC00015E0B0F5007F14D0A0F10060B0F57F40B2
:102CD0000BD0B0F5003F0ED00020C0B270470220EC
:102CE000FBE70020F9E70020F7E70020F5E70120E7
:102CF000F3E70120F1E70120EFE7002908D00129DF
:102D00000BD0022903D1816841F400018160704732
:102D1000816841F0800181607047816841F4004121
:102D20008160704700EB0113D3F8B0C10CF0040CC4
:102D300082F808C0BCF1000F47D0D3F8B0C14FEA09
:102D4000DC0CC2F804C0D3F8B0C10CF0020C82F85D
:102D500009C0D3F8B4C10CF00F0C82F80AC0D3F844
:102D6000B4C14FEA1C2C82F813C0D3F8B8C182F862
:102D70000BC0D3F8B8C14FEA1C2C82F80CC0D3F8B2
:102D8000B8C14FEA1C4C82F80DC0D3F8B8C14FEA65
:102D90001C6C82F80EC0D3F8BCC182F80FC0D3F807
:102DA000BCC14FEA1C2C82F810C0D3F8BCC14FEA5A
:102DB0001C4C82F811C0D3F8BC311B0E9374E9B1DE
:102DC000016941F0200101617047D3F8B0C14FEAB9
:102DD0005C5CC2F800C0B6E7006600401C660040BC
:102DE0000C660040046600401466004003000004C6
:102DF000000300080000031000010008C16841F052
:102E00002001C1607047002904D0016941F0200110
:102E100001617047C16841F02001C16070470246FE
:102E20000020002905D0012902D1106900F003001B
:102E30007047D06800F00300704700234FF6FF7220
:102E4000002904D001291AD002292CD042E00168BF
:102E500021F0020141F00101016000E0521E4168D1
:102E600001F00301012901D0002AF7D1406800F0E8
:102E70000300012801D000232CE001232AE001688F
:102E800021F00301016000E0521E416811F0030FC0
:102E900001D0002AF8D1406810F0030F01D00023C0
:102EA00018E0012316E0016821F0010141F0020160
:102EB000016000E0521E416801F00301022901D0C7
:102EC000002AF7D1406800F00300022801D0002357
:102ED00000E00123184670470021026822F0010239
:102EE00042F002020260406800F00300022800D1B4
:102EF0000121084670474FF6FF710023026822F057
:102F00000202026000E0491E426812F0020F01D086
:102F10000029F8D1406810F0020F00D101231846B3
:102F200070478069C0F30210000170478069000E8D
:102F300070478069C0F307407047002A03D0426998
:102F4000114341617047426922EA010141617047C2
:102F50000346002011F4700FC1F3130204D09969E5
:102F6000114200D00120704711F0807F04D05968D1
:102F70001142F8D00120704711F0006F04D0996819
:102F80001142F8D00120704711F0007F04D0D968B9
:102F90001142F8D00120704719691142FBD001207D
:102FA00070477A4A914202D1002181617047C1F392
:102FB000130211F0007F01D0C260704711F0806FE2
:102FC00001D00261704711F0006F01D0826070473C
:102FD00042607047024600200A4200D0012070473C
:102FE00010B5002243690B427CD0B1F5807F5CD0E4
:102FF00010DC082935D006DC012920D0022924D094
:1030000004296FD127E0102931D0202935D040295B
:1030100068D138E0B1F5004F5FD009DCB1F5007F31
:1030200049D0B1F5806F4CD0B1F5006F5AD14EE068
:10303000B1F5803F2DD0B1F5003F53D12FE080682E
:103040005349FFF7C7FF02464CE0C0680321FFF772
:10305000C1FF024646E0C0680821FFF7BBFF0246F9
:1030600040E0C0681021FFF7B5FF02463AE0006972
:103070000321FFF7AFFF024634E000690821FFF7A4
:10308000A9FF02462EE000691021FFF7A3FF0246C8
:1030900028E040680821FFF79DFF024622E04068D3
:1030A0001021FFF797FF02461CE080690121FFF71E
:1030B00091FF024616E080690221FFF78BFF02466E
:1030C00010E080690421FFF785FF02460AE080696D
:1030D0007021FFF77FFF024604E040680421FFF7FC
:1030E00079FF0246104610BD10B4102304224FF0A1
:1030F000080CB1F5007F3FD013DC202931D008DC6B
:10310000012926D0042928D0082900D1C36010BC89
:103110007047402929D0B1F5807FF8D1426010BCBA
:1031200070470024B1F5004F2CD009DCB1F5806F59
:1031300025D0B1F5006FF2D18461426010BC7047B8
:10314000B1F5803F14D0B1F5003FF7D1436010BC1A
:1031500070470F49816010BC7047C0F80CC010BCAC
:103160007047C0F810C010BC7047036110BC7047B6
:10317000C0F804C010BC7047426010BC7047426089
:1031800010BC70478461426010BC70477000F03022
:10319000010101000100D14802D04115FEF7E0B95C
:1031A0004FF40071FEF7DAB900B583B001210420B5
:1031B000FEF759FB01208DF8040000218DF8061060
:1031C0008DF80500400200906946C448FEF750F9AA
:1031D0000020FFF7DFFF03B000BD0020DFEDC00AD5
:1031E00020EE200ABDEEC00A10EE101A00290BDDF9
:1031F00000BF00BF00BF00BF00BF00BF00BF00BFD7
:1032000000BF401C8842F3DB704700B583B001214A
:103210000846FEF728FB01208DF8040000218DF8F8
:1032200006108DF80500082000906946AD48FEF7AD
:103230001FF903B000BD002807D1AA4811B1082129
:10324000FEF78CB90821FEF78BB9704700220123E5
:10325000A549042807D005280BD10B704A708A7045
:1032600001210020E7E70A704B708A7000210846B0
:10327000E1E7704770B52DED048B9FED9C8AF6EE6B
:10328000000AF0EE009AB7EE009A994890F84901CA
:10329000DFED988A002805D09FED978ADFED970A29
:1032A000F0EE689A964C92480025217890F88A00B2
:1032B000092980F00F81DFE801F0051F375C789B5A
:1032C000B7DAF700D4ED010A30EE800A84ED010A86
:1032D0000520FFF7BBFF84ED028A94ED010AB4EEEE
:1032E000C80AF1EE10FA04DDC4ED018A2078401C12
:1032F0002070BDEC048B70BDD4ED010A30EE800A65
:1033000084ED010A0420FFF7A1FF94ED010AB4EE59
:10331000C80AF1EE10FAECDDC4ED018A2078401CF9
:103320002070BDEC048B70BD94ED011A31EE000AE3
:1033300084ED010A7348007828B1C4ED020A052023
:10334000FFF784FF04E084ED028A0420FFF77EFF8C
:1033500094ED010AD4ED020AB4EEE00AF1EE10FA9F
:10336000DFDDC4ED018A2078401C2070BDEC048BA9
:1033700070BDD4ED010A30EE800A84ED010A04200C
:10338000FFF764FF94ED020AD4ED010A39EE400A1A
:10339000B4EEE00AF1EE10FAE8D2C4ED018A20782A
:1033A000401C2070BDEC048B70BD94ED011A31EE11
:1033B000000A84ED010A28B1C4ED020A0520FFF7D6
:1033C00045FF04E084ED028A0420FFF73FFFD4EDBF
:1033D000010A94ED020AF4EEC00AF1EE10FAE1DD02
:1033E000C4ED018A2078401C2070BDEC048B70BDB8
:1033F000D4ED010A30EE800A84ED010A0420FFF7C3
:1034000025FF94ED020AD4ED010A39EE400AB4EE2C
:10341000E00AF1EE10FAE8D2C4ED018A2078401CEF
:103420002070BDEC048B70BD94ED011A31EE000AE2
:1034300084ED010A28B1C4ED020A0520FFF706FF5A
:1034400004E084ED028A0420FFF700FF94ED010AF6
:10345000D4ED020AB4EEE00AF1EE10FAE1DDC4EDBB
:10346000018A2078401C2070BDEC048B70BDD4ED27
:10347000010A30EE800A84ED010A0420FFF7E6FE1F
:1034800094ED020AD4ED010A39EE400AB4EEE00AE6
:10349000F1EE10FAE8D2C4ED018A2078401C2070C9
:1034A000BDEC048B70BDFFE7D4ED010A30EE800A5D
:1034B00084ED010A0420FFF7C9FE94ED010AB4EE81
:1034C000E90AF1EE10FAEBDDC4ED018A2570BDECDE
:1034D000048B70BD2570BDEC048B70BD00080240EC
:1034E000001B374A0000024071000020CDCCCC3DCB
:1034F000F4210020000000008988083DABAA2A3E84
:10350000700000205C01002000B585B06846FEF721
:1035100013F901984FF47A71B0FBF1F0C008401E26
:10352000B0F1807F09D24FF0E0214861314AF020AC
:10353000107000208861072008616FF00400FDF71B
:10354000D8FE05B000BD2C4800687047FBE701209D
:10355000FDF72DBE10B5441E05D34FF47A70FFF76A
:10356000F6FF641EF9D210BD00B500EB4001234800
:1035700000EB810191ED000A81ED010AFFF7E3FF05
:1035800000EE100ADFED1E0AB8EE400A80EE201AA7
:1035900081ED001A91ED000AD1ED010A30EE600ACA
:1035A00081ED020A91ED020A00BD00B5002210462D
:1035B000FFF7DAFF501CC2B20F2AF8D300BD10B5D6
:1035C00001210820FEF773F90E48802101800021B7
:1035D000021D1180084A11600B4A491E11605321D7
:1035E000121F1180094A01211180018841F0010157
:1035F000018010BD23ED00E0240C00409416002053
:1036000000247449000C00402C0C0040140C0040B5
:103610002DE9F0438FB00646169D179C0F46904645
:1036200099462D48864204D901218805FEF71BF9E9
:1036300003E001214805FEF716F93046FEF7E2FEE9
:103640003046FFF713F80028FAD10097CDF8048030
:10365000CDF80890402003900495002005904FF489
:1036600080610691079008900990890134B1012C7E
:1036700006D0022C06D0032C0BD107E00A9008E0FC
:103680000A9106E04FF400320A9202E04FF4403211
:103690000A920A910B9003210C910D900E906946AD
:1036A0003046FEF746FF0FB0BDE8F08370B5044624
:1036B0000D4600212046FEF789FF2046FEF7D6FF83
:1036C0000028FAD129462046FEF7A4FF2046BDE88F
:1036D00070400121FEF77ABF0064024070B50024FB
:1036E00001214020FEF7CBF80120FFF780F842F2DD
:1036F000107504E0601C84B26420FDF758FD0120C1
:10370000FFF792F808B9AC42F4D3AC4201D30120E0
:1037100070BD002070BD10B50120FFF785F80028AE
:10372000FAD0BDE81040FFF76FB870B504460D46FB
:10373000FFF7F1FF291B491CB0FBF1F201FB12005E
:10374000204470BD70B505460C4645F25550FFF754
:103750008BF82846FFF78BF82046FFF78BF8FFF72A
:103760008CF8BDE87040FFF78DB8FFF786B8000011
:1037700000687047FE49884201D200207047FD4929
:10378000884201D208207047FB49884201D21020AC
:103790007047FA49884201D218207047F849884298
:1037A00001D220207047F749884201D22820704773
:1037B000F549884201D230207047F449884201D24D
:1037C00038207047F249884201D240207047F149C1
:1037D000884201D248207047EF49884201D25020E8
:1037E0007047582070472DE9F04104460F461646B1
:1037F0004FF00908B4F1006F3AD314F0030F37D13A
:10380000FEF7ACFB0020FEF790FB254604EB860696
:10381000E2482C46854215D2B54213D22846FFF71E
:10382000A7FFB0F1FF3F0AD02846FFF7A3FF022110
:10383000FEF7D9FB8046B8F1090F03D100E02D1D3A
:10384000B542EBD3B8F1090F0BD1B44209D22046EF
:103850003968FEF79CFC092803D1241D3F1DB442A2
:10386000F5D30120FEF761FBBDE8F041FEF781BB17
:10387000BDE8F08110B504460023002A08D920468F
:10388000FFF776FF41F82300241D5B1C9342F6D31B
:1038900010BD10EE100A20F00040C0F1FF40C00F34
:1038A000002801D09FEDBE0A704710B582B00446D3
:1038B000204608F089F9019100900199009808B11B
:1038C000012000E00020084320F00040C0F17F60AC
:1038D00000F1E040C00F10B102B0002010BD02B0F6
:1038E000204610BD00EE100AB8EEC00A10EE101A05
:1038F00021F00041C1F1FF41C90F002900D0002093
:10390000704710B4A74A536803F1010CC2F804C011
:10391000C15453684FEA212C5C1C546000F803C06A
:1039200053684FEA214C5C1C546000F803C00B0E36
:10393000516801F1010CC2F804C0435410BC704737
:1039400010B410EE101A974A536803F1010CC2F834
:1039500004C0C15453684FEA212C5C1C546000F829
:1039600003C053684FEA214C5C1C546000F803C04C
:103970000B0E516801F1010CC2F804C0435410BC95
:10398000704700230A6800F1030C12F80CC043EAE8
:103990000C6300F1020C12F80CC043EA0C4300F176
:1039A000010C12F80CC043EA0C23805C1843121D72
:1039B0000A6000EE100A6CE700230A6800F1030CAD
:1039C00012F80CC043EA0C6300F1020C12F80CC0B0
:1039D00043EA0C4300F1010C12F80CC043EA0C233B
:1039E000805C1843121D0A607CE770B56D480025A5
:1039F00045600178491C01706B4801686B48FFF70E
:103A000080FF6B4C694894ED260AFFF799FF94ED0F
:103A1000780A6648FFF794FF94ED330A6348BDEED9
:103A2000C00A10EE101AFFF76CFF94ED850A5F488C
:103A3000BDEEC00A10EE101AFFF763FF5B48D4F822
:103A40000C11FFF75EFF5948D4F80811FFF759FF32
:103A50005648D4F81011FFF754FF5448D4F85412C4
:103A6000FFF74FFF5148D4F85012FFF74AFF4F4875
:103A7000D4F85812FFF745FF94F824114B48FFF78C
:103A800040FF94ED4A0A4948BDEEC00A10EE101AF4
:103A9000FFF737FF94ED4C0A4448FFF751FF94EDD0
:103AA0004F0A4248FFF74CFF94ED500A3F48BDEEE5
:103AB000C00A10EE101AFFF724FF94ED4E0A3B489F
:103AC000BDEEC00A10EE101AFFF71BFF394801685F
:103AD0003648FFF716FF384942F21072087B10FB98
:103AE00002F2487B897B00EBC00303EB001002EB82
:103AF000800001442D48FFF704FF304C0120207462
:103B000041F28830FEF7B6FEFFF72FFE5022A4F5F3
:103B1000FA712148FFF767FE25744FF47A70FEF7BB
:103B2000A9FEBDE87040FFF720BE2DE9F04F2DED56
:103B3000028B81B000260096204C0125257450226E
:103B4000A4F57A711448FFF795FE26746946A4F52A
:103B50007A70FFF731FF144F38606946A4F57A7028
:103B6000FFF70FFF124C84ED260A6946144829E03E
:103B7000004000080080000800C0000800000108A4
:103B80000000020800000408000006080000080801
:103B900000000A0800000C0800000E080000FF1FCB
:103BA000000000007C000020700100203C19002073
:103BB000F42100207401002070070020301B002039
:103BC00048170020FFF7DDFE84ED780A6946944827
:103BD000FFF7F2FE00EE100AB8EEC00A84ED330AD9
:103BE00069468F48FFF7E8FE00EE100AB8EEC00AFB
:103BF00084ED850A69468A48FFF7DEFEC4F80C01A9
:103C000069468748FFF7D8FEC4F80801694684482A
:103C1000FFF7D2FEC4F8100169468148FFF7CCFED9
:103C2000C4F8540269467E48FFF7C6FEC4F8500245
:103C300069467B48FFF7C0FEC4F8580269467848D9
:103C4000FFF7BAFE84F8240169467548FFF7B4FE11
:103C500000EE100AB8EEC00A84ED4A0A69467048C0
:103C6000FFF78FFE84ED4C0A69466D48FFF789FE29
:103C700084ED4F0A69466A48FFF79EFE00EE100A7F
:103C8000B8EEC00A84ED500A69466548FFF794FE15
:103C900000EE100AB8EEC00A84ED4E0A694660488C
:103CA000FFF78AFEDFF87C81C8F80000D4F8300105
:103CB00007F0B6FF9FED5C8B53EC182B07F0EBFD84
:103CC00041EC100B53EC102B9FED590B51EC100BEA
:103CD00007F0FAFE07F0E8FFC4F82C01D4F83C0125
:103CE00007F09EFF53EC182B07F0D5FD41EC180BA5
:103CF000D4F8380107F094FF53EC182B07F0E4FEDA
:103D000007F0D2FFC4F83401D4F8400107F088FF6F
:103D10009FED491B53EC112B07F0BDFD41EC100B3F
:103D200053EC102B9FED460B51EC100B07F0CCFE23
:103D300007F0BAFFC4F8440169463948FFF73CFE72
:103D400042F2107190FBF1F13F4AC9B211736FF466
:103D50001C7311FB03F100EB01113C4880FB0130A7
:103D60004311A3EBE07050736FF0180310FB03F0E6
:103D700001EB8000907304F58C70D4F834B190E8B6
:103D80000F10D4F830A1D4F82C9104F51874A4E8DD
:103D90000F10A4F51D7404F59C70C4F87CB2C4F82F
:103DA00078A2C4F874920FC804F520740FC4A4F567
:103DB00024744FF0630994F824010A280DD9C8F837
:103DC0000060C7F80090C4F80851C4F80C51C4F85A
:103DD000105184F82451FFF708FE94F86C020A2869
:103DE0000DD9C8F80060C7F80090C4F85052C4F864
:103DF0005452C4F8585284F86C52FFF7F6FD94F808
:103E00002411002907D0002001F04AFC94F86C121C
:103E1000012001F045FC01B0BDEC028BBDE8F08F44
:103E2000481700207401002048AFBC9AF2D77A3EB0
:103E3000000000000000F03FF168E388B5F8E43EC0
:103E40000000000000807640700700201F85EB51C5
:103E50002DE9F04188B0074601211020FDF733FD20
:103E600001210846FDF7FFFC25208DF80C000125F7
:103E70008DF80D5000248DF80E408DF80F5003A8DA
:103E8000FDF7EBF9DFF86084072209214046FDF7D2
:103E900075FB07220A214046FDF770FB680200907F
:103EA00002268DF804608DF805608DF806408DF8C7
:103EB000075069464046FDF7DBFAA80200908DF8EE
:103EC00004608DF805608DF806508DF8074069464E
:103ED0004046FDF7CDFA0497ADF81440ADF8164012
:103EE000ADF81840ADF81C400C20ADF81A00FF4C9E
:103EF00004A92046FDF768FE01212046FDF7EBFEF0
:103F000040212046FDF7BFFF012240F22551204607
:103F1000FDF795FF01212046FDF7DDFE08B0BDE865
:103F2000F0812DE9F04188B0074601214804FDF7F2
:103F3000BEFC01210846FDF796FC26208DF80C00FA
:103F400001258DF80D508DF80E508DF80F5003A8F7
:103F5000FDF783F9DFF89083072202214046FDF741
:103F60000DFB072203214046FDF708FB04200090CB
:103F700002268DF804608DF8056000248DF8064057
:103F80008DF8075069464046FDF772FA0820009008
:103F90008DF804608DF805608DF806508DF80740A7
:103FA00069464046FDF764FA0497ADF81440ADF851
:103FB0001640ADF81840ADF81C400C20ADF81A00C2
:103FC000CB4C04A92046FDF7FFFD01212046FDF75B
:103FD00082FE40212046FDF756FF012240F2255186
:103FE0002046FDF72CFF01212046FDF774FE08B0A6
:103FF000BDE8F0812DE9F04188B007460121880431
:10400000FDF755FC01210220FDF72DFC27208DF83E
:104010000C0001258DF80D5000248DF80E408DF810
:104020000F5003A8FDF719F9DFF8C88207220A210B
:104030004046FDF7A3FA07220B214046FDF79EFA02
:10404000A802009002268DF804608DF805608DF8B6
:1040500006408DF8075069464046FDF709FAE80228
:1040600000908DF804608DF805608DF806508DF88D
:10407000075069464046FDF7FBF90497ADF8144038
:10408000ADF81640ADF81840ADF81C400C20ADF866
:104090001A00994C04A92046FDF796FD01212046FF
:1040A000FDF719FE40212046FDF7EDFE012240F20A
:1040B00025512046FDF7C3FE01212046FDF70BFEEA
:1040C00008B0BDE8F0812DE9F04188B00746012134
:1040D000C804FDF7ECFB01210420FDF7C4FB3420EC
:1040E0008DF80C0002258DF80D5000248DF80E403F
:1040F00001268DF80F6003A8FDF7AFF8DFF8FC810B
:1041000008220A214046FDF739FA08220B214046D1
:10411000FDF734FA680200908DF804508DF80550D0
:104120008DF806408DF8076069464046FDF7A0F916
:10413000A80200908DF804508DF805508DF80660A7
:104140008DF8074069464046FDF792F90497ADF8AF
:104150001440ADF81640ADF81840ADF81C400C20E6
:10416000ADF81A00664C04A92046FDF72DFD01218B
:104170002046FDF7B0FD40212046FDF784FE0122D8
:1041800040F225512046FDF75AFE01212046FDF759
:10419000A2FD08B0BDE8F0812DE9F04188B00746E6
:1041A00001210805FDF783FB01210420FDF75BFBDE
:1041B00001210820FDF757FB35208DF80C00022562
:1041C0008DF80D5001248DF80E408DF80F4003A896
:1041D000FDF743F8DFF82C81082202214046FDF765
:1041E000CDF9042600968DF804508DF805508DF811
:1041F000064000248DF8074069464046FDF738F92F
:104200000497ADF81440ADF81640ADF81840ADF87D
:104210001C40ADF81A603C4C04A92046FDF7D4FCC4
:10422000012240F225512046FDF709FE01212046DA
:10423000FDF751FD08B0BDE8F08170B505462E4C84
:1042400080212046FDF718FE0028F9D02946204697
:10425000BDE87040FDF76BBD70B50546244C80216C
:104260002046FDF709FE0028F9D029462046BDE882
:104270007040FDF75CBD70B505461F4C802120469F
:10428000FDF7FAFD0028F9D029462046BDE8704028
:10429000FDF74DBD70B50546194C80212046FDF750
:1042A000EBFD0028F9D029462046BDE87040FDF717
:1042B0003EBD16480178012901D000207047002139
:1042C0000170012070472DE9F04F2DED048B83B074
:1042D0000948018811F0080F01D0011D098840F23A
:1042E0002551054814E00000000002400010014084
:1042F0000044004000040240004800400008024022
:10430000004C0040000C024000500040840000209F
:10431000FDF7BEFD002800F08C8140F22551FE48DB
:10432000FDF7DAFDFD480088C1B2FD4B5A69501C0B
:104330005861FC4B99540024322801DDF84844614F
:10434000F94D012605F1F00C686958B102220128E7
:1043500010D0032305F12802022815D0032840F0CD
:10436000688129E0012940F064816E618CF8054084
:1043700000F05FB90F2902D06C6100F05AB96A6190
:104380008CF8054000F055B9422902D06C6100F06C
:1043900050B96B610020131883F86440401CC0B210
:1043A0001428F8D39CF80500431C10448CF8053001
:1043B00080F8641000F03DB99CF80500431CDBB2A6
:1043C00010448CF8053080F864100E2B40F23181D7
:1043D00092F86400D54991F865104840D34A92F8A4
:1043E00066205040D14B93F867305840DFF83CC30B
:1043F0009CF868C08CEA0000CC4E96F869A08AEA66
:10440000000096F86AB08BEA000096F86B60704086
:10441000C64F97F86C7087EA0008C44890F86D00A2
:10442000029080EA0800DFF8048398F86E8088EA3A
:104430000009BE4890F86F00019080EA0909BB4866
:1044400090F87000009080EA0900DFF8E09299F897
:10445000719089EA000EB54890F8720086457BD1CC
:1044600041EA022000B200EE100AB148B8EEC08A5C
:1044700080ED008A43EA0C2000B200EE100AAC483E
:10448000B8EEC00A80ED010A4AEA0B2000B207F03C
:104490008AFB9FEDA99B53EC192B07F015FB07F046
:1044A00003FCDFF89CA2CAF8000046EA072000B22D
:1044B00007F079FB53EC192B07F006FB07F0F4FB30
:1044C000CAF80400029840EA082000B207F06BFB2B
:1044D0009FED9D1B53EC112B07F0F6FA07F0E4FB60
:1044E000AAF12C07B8619A480199017000994170AE
:1044F00080F80290974E86ED318A96ED510A68EE6B
:10450000000A96ED4A0A80EE801A86ED111A07F12C
:10451000240999ED001AC1EE000A10EE900A07F086
:104520007FFB9FED8D9B53EC192B07F05BFA07F097
:10453000BBFBF06496ED330A002038EE400ABDEE76
:10454000C00A10EE101A01F091F900EE100AB8EE50
:10455000C00A86ED320A00E06AE0BDEEC00A3046CD
:1045600010EE101A01F077FA4FF0010886F88A80F1
:10457000C6F88C4097ED060A86ED400A96ED420A91
:10458000DAED000A3046B8EEC00A20EE200A01F04B
:104590008DFB07F11C0096ED9C0AD0ED010A80EE20
:1045A000808A86ED838A96EDA31A60EE810A80EEFA
:1045B000801A86ED631A99ED011AC1EE000A10EE19
:1045C000900A07F02DFB53EC192B07F00BFA07F0BC
:1045D0006BFBC6F8940196ED850A012038EE400A7F
:1045E000BDEEC00A10EE101A01F040F900EE100AFC
:1045F000B8EEC00A86ED840ABDEEC00A06F5A470C6
:1046000010EE101A01F027FA86F8D281C6F8D441CC
:1046100097ED060A86ED920A96ED940ADAED010A04
:1046200006F5A470B8EEC00A20EE200A01F03EFBA9
:104630006C6140F227713848FDF72AFC002810D041
:10464000374A474B5078411CC9B251701B5C334804
:1046500003809078814204D14248018821F0800192
:10466000018003B0BDEC048BBDE8F08F70B53E4E09
:10467000308806F1040410F0080F00D0208840F2C2
:1046800025513046FDF704FC254D002874D040F23A
:1046900025513046FDF720FC2088C1B26A793348A5
:1046A0000AB9AA2902D0012A04D005E001226A71C0
:1046B000017061E0AF2902D0022A04D00AE0022290
:1046C0006A71417058E029B1F12903D203226A715D
:1046D000817051E04FF0000C032A08D1502906D216
:1046E00004226A71C170A97185F807C044E0042AE8
:1046F0003ED1AB796BB15A1ED2B2AA71EB7903F1FC
:10470000010C184485F807C001711AB905206871B9
:1047100032E02DE030E00000004800400448004056
:1047200084000020441B0020A81B0020D01B002078
:10473000A000002000000000000000000000594020
:10474000B000002000000000000000000000244035
:10475000AC1C0020F42100206666666666A64C400C
:10476000361D00200C48004000440040361F002049
:10477000052A18D085F805C040F227713046FDF7AC
:1047800087FB00280ED0E878FF4A411CC9B2E970C7
:10479000105C20802879814204D1FC48018821F0F6
:1047A0008001018070BD85F805C0EA79104401716F
:1047B000E2E770B5F64E308806F1040410F0080FF9
:1047C00000D0208840F225513046FDF761FBF14DC5
:1047D000002845D040F225513046FDF77DFB20886A
:1047E000C1B2AA7AEC480AB9AA2902D0012A04D097
:1047F00005E00122AA72017032E0AF2902D0022A3C
:1048000004D00AE00222AA72417029E029B1F129FC
:1048100003D20322AA72817022E04FF0000C032A17
:1048200008D1322906D20422AA72C170E97285F831
:104830000CC015E0042A0FD1EB7A6BB15A1ED2B22C
:10484000EA722B7B03F1010C184485F80CC001714E
:1048500032B90520A87203E0052A18D085F80AC0ED
:1048600040F227713046FDF713FB00280ED0287A5E
:10487000C54A411CC9B22972105C2080687A814205
:1048800004D1C648018821F08001018070BD85F8FF
:104890000AC02A7B10440171E2E770B5C04C208841
:1048A00004F1040510F0080F00D0288840F22551CB
:1048B0002046FDF7EDFA28B140F225512046FDF7DC
:1048C0000BFB288840F227712046FDF7E1FA00280B
:1048D0000FD0B04AB34B507B411CC9B25173185C26
:1048E0002880907B814204D1AF48018821F080016B
:1048F000018070BD10B5AD4C208810F0080F00D0BD
:10490000A08840F225512046FDF7C2FA002805D0C4
:1049100040F225512046FDF7DFFAA08810BD704710
:104920009C48002141820020A14A1154401C80B2C1
:10493000FA28FAD3704770B4002200290DD9DFF8A5
:1049400054C29B4C865C9CF810305D1C8CF8105057
:10495000E654521CD2B28A42F4D370BC7047C1B242
:10496000C0F307204840704710B50120FFF765FCF1
:10497000BDE81040002060E4F0B591B00021019145
:104980000291039104910591012206AE8DF8182041
:104990008DF8191070218DF81A1020218DF81B1038
:1049A00030308DF81C008DF81D1030208DF81E0061
:1049B0008DF81F108DF820000A273C468DF8211035
:1049C00010EE100A07F02CF941EC100B79A153EC12
:1049D000102B01A807F02AFBC1B2002000290BD937
:1049E00001AA234612F800C0641CE4B206F803C012
:1049F000401CC0B28842F4D3601CC5B237550024B5
:104A0000002D06D9305DFFF718FC601CC4B2AC4223
:104A1000F8D311B0F0BD10B50120FFF70EFC002057
:104A2000FFF70BFC6620FFF708FC2020FFF705FCD2
:104A30003020FFF702FCBDE810400A20FFF7FDBB65
:104A400070B504460120FFF7F8FB0020FFF7F5FBE7
:104A50004CB10024594D285DFFF7EFFB601CC4B238
:104A60002A2CF8D370BD0024554D285DFFF7E5FBD7
:104A7000601CC4B22A2CF8D370BD70B50446012066
:104A8000FFF7DBFB0020FFF7D8FB4CB100244D4DB6
:104A9000285DFFF7D2FB601CC4B21D2CF8D370BD9B
:104AA0000024494D285DFFF7C8FB601CC4B21D2CD3
:104AB000F8D370BDF0B499B0064600220023002E52
:104AC00000DA4042414F6D4687FB004C4FEAAC0490
:104AD000A4EBEC7CCCF1000404EB840400EB440078
:104AE0003030A8546046521C0028EDDC002E05DA58
:104AF00010464FF02D0C521C05F800C04FF0000C72
:104B000005F802C0501E002805DB2A5CCA545B1C55
:104B1000401E0028F9DA01F803C019B0F0BC704754
:104B200070B590B00021019102910391049105911B
:104B3000012206AE8DF818208DF8191063218DF82A
:104B40001A1020218DF81B1030308DF81C0006241F
:104B50008DF81D1010EE100A07F062F841EC100BF2
:104B600014A153EC102B01A807F060FAC1B2002089
:104B7000002930D901AA234612F800C0641CE4B20F
:104B800006F803C0401C23E0361E00200C44004001
:104B90000048004084000020861F00200C48004090
:104BA000004C0040B81F00200C4C0040005000405A
:104BB000B8200020252E336600000000E30000200E
:104BC000B80000202C0100200E01002067666666F8
:104BD000C0B28842CFD30A20611CCDB23055002428
:104BE000002D06D9305DFFF728FB601CC4B2AC4233
:104BF000F8D310B070BD10B5C1B2C0F30724084699
:104C0000FFF71BFB2046BDE81040FFF716BB10B4B2
:104C100010EE100ADFF8E8C3FA4B9CF80F104A1C9C
:104C2000D2B258540412511CC9B29C5404144A1CE8
:104C3000D2B25C54010E501C8CF80F00995410BC79
:104C400070472DE9F04F2DED108B81B0B0EE409AFA
:104C5000F0EE609AB0EE41CAF0EE61CAB0EE42DA10
:104C6000F0EE62DAB0EE43EAF0EE63EA9FEDE6FAC8
:104C7000DFEDE6FA9FEDE6AB9FEDE78B9FEDE8BB3E
:104C800019EE100A06F0CCFF53EC182B06F01CFFAF
:104C900053EC1A2B06F0D8FF0BD319EE100A06F0CE
:104CA000BFFF53EC182B06F00FFF53EC1B2B06F045
:104CB000E3FF19EE900A06F0B3FF53EC182B06F051
:104CC00003FF53EC1A2B06F0BFFF0BD319EE900A2B
:104CD00006F0A6FF53EC182B06F0F6FE53EC1B2B48
:104CE00006F0CAFF29EE0F0ABDEEC00A10EE100A48
:104CF00004B22CEE0F0ABDEEC00A10EE100A05B287
:104D00002DEE2F0ABDEEC00A10EE100A0FFA80FB3E
:104D100029EE8F0ABDEEC00A10EE100A06B22CEE84
:104D20008F0ABDEEC00A10EE100A07B22DEEAF0AD0
:104D3000BDEEC00A10EE100A0FFA80F82EEE2F0A10
:104D4000BDEEC00A10EE100A0FFA80F92EEEAF0A7F
:104D5000BDEEC00A10EE100A0FFA80FAE0B280F041
:104D60007000C4F3072180EA0100E9B281EA000083
:104D7000C5F3072180EA01000BF0FF0181EA000082
:104D8000F1B281EA0000C6F3072180EA0100F9B21E
:104D900081EA0000C7F3072180EA010008F0FF0163
:104DA00081EA0000C8F3072180EA010009F0FF0151
:104DB00081EA0000C9F3072180EA01000AF0FF013F
:104DC00081EA0000CAF3072180EA010000904FF059
:104DD0000100FFF732FA1320FFF72FFA7020FFF7D8
:104DE0002CFA2046FFF707FF2846FFF704FF584636
:104DF000FFF701FF3046FFF7FEFE3846FFF7FBFEE8
:104E00004046FFF7F8FE4846FFF7F5FE5046FFF72D
:104E1000F2FE009801B0BDEC108BBDE8F04FFFF73B
:104E20000CBA2DE9F04F04462DED108B81B0B0EE99
:104E300040AAF0EE60AAB0EE41DAF0EE61DAB0EE30
:104E400042EAF0EE62EA0D469FED6FFADFED6FFA8F
:104E50009FED75BB9FED6E8B9FED6F9B9FED70CBB4
:104E60001AEE100A06F0DCFE53EC192B06F02CFEAD
:104E700053EC182B06F0E8FE04D2B0EE48BAF0EE80
:104E800068BA1AE01AEE100A06F0CAFE53EC192BA3
:104E900006F01AFE53EC1B2B06F0EEFE0DD31AEEB5
:104EA000100A06F0BDFEB0EE491AF0EE691A53EC96
:104EB000112B06F009FE41EC1B0B51EC1B0B06F00D
:104EC000F3FE0AEE100A1AEE900A06F0A9FE53EC61
:104ED000192B06F0F9FD53EC182B06F0B5FE1BD389
:104EE0001AEE900A06F09CFE53EC192B06F0ECFD2E
:104EF00053EC1C2B06F0C0FE04D2B0EE4C8AF0EE50
:104F00006C8A09E01AEE900A06F08AFE53EC192B1F
:104F100006F0DAFD41EC180B51EC180B06F0C4FE5C
:104F200000EE100A6AEE0F0AFDEEE00A10EE900A9B
:104F300006B200EE904A2DEE2F1AF8EE600A61EEEE
:104F4000200AFDEEE00A10EE900A07B200EE904A49
:104F50002DEEAF1AF8EE600A61EE200AFDEEE00ACF
:104F600010EE900A0FFA80F820EE0F0ABDEEC00A8C
:104F700010EE100A0FFA80F900EE105A6EEE2F0AAA
:104F8000B8EE400A20EE800ABDEEC00A10EE100A0C
:104F90000FFA80FA00EE105A6EEEAF0AB8EE400A31
:104FA00020EE800ABDEEC00A10EE100A0FFA80FB58
:104FB000F0B280F05300C6F307214840F9B24840F0
:104FC000C7F30721484008F0FF014840C8F3072114
:104FD000484009F0FF014840C9F3072148400AF062
:104FE000FF014840CAF3072148400BF0FF01484049
:104FF000CBF307214140DCB1D5B1012019E000001D
:1050000084000020B61C002000007A440000C84242
:10501000A83DAE02822119C06666666666A64C404F
:10502000A83DAE02822119405C1A2974AC56064094
:105030000020484000900120FFF7FFF80F20FFF705
:10504000FCF85320FFF7F9F83046FFF7D4FD384657
:10505000FFF7D1FD4046FFF7CEFD4846FFF7CBFDF9
:105060005046FFF7C8FD5846FFF7C5FD14B10DB116
:10507000012000E00020FFF7E0F8009801B0BDEC4F
:10508000108BBDE8F04FFFF7D8B82DE9F04F04467C
:105090002DED0E8B81B0B0EE40AAF0EE60AAB0EE1E
:1050A00041CAF0EE61CAB0EE42DAF0EE62DA0D46C5
:1050B0009FEDFDEA5FED2BEA9FEDFD8B1FED2A9B37
:1050C0009FEDFDBB1AEE100A06F0AAFD53EC192B5A
:1050D00006F0FAFC53EC182B06F0B6FD04D2B0EE45
:1050E000480AF0EE680A1FE01AEE100A06F098FD72
:1050F00053EC192B06F0E8FC53EC1B2B06F0BCFD1F
:1051000004D2B0EE4B0AF0EE6B0A0DE01AEE100A74
:1051100006F086FDB0EE491AF0EE691A53EC112B39
:1051200006F0D2FC41EC100B51EC100B06F0BCFD6C
:105130000AEE100A1AEE900A06F072FD53EC192BD3
:1051400006F0C2FC53EC182B06F07EFD1BD31AEEC2
:10515000900A06F065FD53EC192B06F0B5FC53ECF4
:105160001B2B06F089FD04D2B0EE4B8AF0EE6B8A61
:1051700009E01AEE900A06F053FD53EC192B06F0E5
:10518000A3FC41EC180B51EC180B06F08DFD00EE62
:10519000100A6AEE0E0AFDEEE00A10EE900A06B260
:1051A00000EE904A2CEE2E1AF8EE600A61EE200A0C
:1051B000FDEEE00A10EE900A07B200EE904A2CEEE7
:1051C000AE1AF8EE600A61EE200AFDEEE00A10EE7B
:1051D000900A0FFA80F820EE0E0ABDEEC00A10EE1B
:1051E000100A0FFA80F900EE105A6DEE2E0AB8EE92
:1051F000400A20EE800ABDEEC00A10EE100A0FFA37
:1052000080FA00EE105A6DEEAE0AB8EE400A20EEBB
:10521000800ABDEEC00A10EE100A0FFA80FBF0B251
:1052200080F05600C6F307214840F9B24840C7F362
:105230000721484008F0FF014840C8F307214840D3
:1052400009F0FF014840C9F3072148400AF0FF0177
:105250004840CAF3072148400BF0FF014840CBF318
:105260000721414014B10DB1012000E00020484069
:1052700000900120FEF7E1FF0F20FEF7DEFF562031
:10528000FEF7DBFF3046FFF7B6FC3846FFF7B3FC0E
:105290004046FFF7B0FC4846FFF7ADFC5046FFF72D
:1052A000AAFC5846FFF7A7FC14B10DB1012000E09D
:1052B0000020FEF7C2FF009801B0BDEC0E8BBDE8E8
:1052C000F04FFEF7BABF2DE9F04107462DED068BF2
:1052D000B0EE609A10EE100A794C9FED7B8B7C4DFE
:1052E0009FED7DABA04204D9B0EE481AF0EE681AEB
:1052F0000EE010EE100AA84204DDB0EE4A1AF0EEFD
:105300006A1A05E010EE100A06F08AFC41EC110B57
:1053100051EC110B06F0C8FC09EE900A19EE100AC8
:10532000A0420ED819EE100AA84204DDB0EE4A8A57
:10533000F0EE6A8A05E019EE100A06F071FC41EC05
:10534000180B51EC180B06F0AFFC00EE900A00248D
:10535000634E644D012028700B20687043210320A8
:10536000F073A970B0EE690AFFF751FCB0EE600A65
:10537000FFF74DFC3846FEF760FF0220F17B022963
:1053800005DD2A5C2244D4B2401C8842F9DB481C6B
:10539000C0B2F0736C540024002806DD285DFEF7CF
:1053A0004CFF641CF07B8442F8DBBDEC068BBDE84F
:1053B000F0812DE9F04106462DED068BB0EE609AA6
:1053C00010EE100A3E4C9FED408B414D9FED42ABDD
:1053D000A04204D9B0EE481AF0EE681A0EE010EEC2
:1053E000100AA84204DDB0EE4A1AF0EE6A1A05E08F
:1053F00010EE100A06F014FC41EC110B51EC110BED
:1054000006F052FC09EE900A19EE100AA0420ED8DE
:1054100019EE100AA84204DDB0EE4A8AF0EE6A8A5C
:1054200005E019EE100A06F0FBFB41EC180B51ECFD
:10543000180B06F039FC00EE100ADFED2B0A29EEFE
:10544000A01ABDEEC11A11EE100A04B220EE200A15
:10545000BDEEC00A10EE100A05B2E0B280F06300A3
:10546000C4F307214840E9B24840C5F3072148404A
:1054700080EA06070120FEF7E0FE0720FEF7DDFECA
:105480006320FEF7DAFE2046FFF7B5FB2846FFF75C
:10549000B2FB3046FEF7D1FEBDEC068B3846BDE8C8
:1054A000F041FEF7CABE00000000484300000000C3
:1054B000E42A2018922D3AC0E42A2018922D3A406E
:1054C000000070C2000000000000000000004EC09C
:1054D00000007042000000000000000000004E408C
:1054E00084000020B61C00200000C8422DE9F047CF
:1054F0009FED281A20EE010ABDEEC00A10EE100A38
:1055000004B20025002620EE810ABDEEC00A10EE8E
:10551000100A07B2A846A9462046FFF720FA80F0F5
:1055200053022846FFF71BFA42403046FFF717FAAE
:1055300042403846FFF713FA42404046FFF70FFA61
:1055400042404846FFF70BFA80EA020A0120FEF7C4
:1055500074FE0F20FEF771FE5320FEF76EFE20460C
:10556000FFF749FB2846FFF746FB3046FFF743FBB2
:105570003846FFF740FB4046FFF73DFB4846FFF744
:105580003AFB0020FEF759FE5046BDE8F047FEF713
:1055900054BE000000007A4410EE100AFD49DFED11
:1055A000FE0A884202DD30EE600A704710EE100AF3
:1055B000FA498842F9D930EE200A7047B4EEC10AA0
:1055C000F1EE10FA02DDB0EE410A7047B4EEE00AE7
:1055D000F1EE10FAF9D2B0EE600A70479FEDF01AC2
:1055E000B5EEC00AF1EE10FA09DD30EE600AB5EE54
:1055F000C00AF1EE10FA01D2B0EE410A704730EE67
:10560000200AB5EEC00AF1EE10FAF7DDB0EE410A5D
:1056100070470021E34B0022DFEDE33ADFEDE30AC0
:105620009FEDE34ADFEDE34AB7EE000AF5EE001A1C
:105630009FEDE12ADFEDE12AB1EE083AB2EE041A5D
:1056400001EBC10000EB411003EBC00080F88810B3
:10565000C0ED1D3AC0ED180A80ED194AC0ED1B4A95
:1056600080ED380A80ED3C0A80ED3D0A80ED3E0A6F
:10567000C0ED031A80ED042A80ED060AC0ED072A6A
:1056800080ED083AC27080F8182180F8192180ED69
:10569000471A80ED480A481CC1B20429D0D370478C
:1056A000C04A00EBC00303EB401002EBC00001292D
:1056B00024D09FEDC30ADFEDC30A02293BD00329A2
:1056C0001BD19FEDC11A80ED4A1A9FEDC01A80EDE3
:1056D0004B1A9FEDBF1A80ED4C1A9FEDBE1A80ED5C
:1056E0004D1A9FEDBD1A80ED4E1AB3EE041A80EDEF
:1056F0004F1A80ED500AC0ED510A7047B0EE080A0B
:1057000080ED4A0A9FEDB50A80ED4B0A9FEDB40A81
:1057100080ED4C0AB7EE000A80ED4D0A80ED4E0A8E
:1057200080ED4F0A9FEDAF0A80ED500A9FEDAE0A63
:1057300080ED510A70479FEDAD1A80ED4A1A9FED3A
:10574000AC1A80ED4B1A9FEDAB1A80ED4C1A9FED11
:10575000AA1A80ED4D1A9FEDA91A80ED4E1AB2EEED
:10576000041A80ED4F1A80ED500AC0ED510A7047BF
:105770002DE9F0472DED048BB0EE409A002600EBAA
:10578000C001884A01EB401102EBC104002794F8E4
:105790001911DFED839AA2F140034FF0010803EBEA
:1057A0008005002904D0012912D0022959D154E0E2
:1057B0002079012855D1C5ED009AC5ED049A84F8E9
:1057C000198192ED0F0A84ED0C0A84F8187148E0F3
:1057D00095ED000A30EE090A85ED000A84F8018093
:1057E000D4ED0C0A94ED3E1AD4ED471A41EE210A8D
:1057F000C4ED0C0A10EE100A81494FF002098842EC
:1058000001DD84F81991D4F8200106F009FA41EC81
:10581000180BA06D06F004FA41EC100B06F03FFCEB
:1058200053EC182B51EC100B06F026FA06D295ED2E
:10583000040A30EE090A85ED040A01E0C5ED049A78
:105840002869B0F17E5F0CDD84F81991464684F832
:105850000380677084F8186103E0207908B984F840
:1058600019713046BDEC048BBDE8F08700EBC00237
:1058700002EB40104B4A002902EBC00090ED500AA9
:105880000ADA00EE901AF8EEE00A30EE200ABDEED9
:10589000C00A10EE100A704700EE901AF8EEE00A07
:1058A000B4EEE00AF1EE10FA0AD200EE901AF8EE29
:1058B000E00A30EEC00ABDEEC00A10EE100A7047D2
:1058C000084670479FED360A80ED040A80ED030A12
:1058D00080ED020A80ED010A704780ED050AC0EDF7
:1058E000060A80ED071AC0ED081A9FED460A80ED02
:1058F0000E0A80ED0D0A80ED0C0A80ED0B0A80ED9A
:105900000A0A80ED090ADDE70321017090ED023AF1
:1059100030EE430A90ED032AB1EE424A90ED041AAC
:10592000F1EE414AD0ED063A23EE800ADFED1C5A33
:10593000F0EE651AD0ED0B2AF4EEC02AF1EE10FA63
:1059400002D2B0EE620A0DE0D0ED0C2AF1EE622A2E
:10595000F4EEC02AF1EE10FA02DDB0EE620A01E0C8
:10596000F0EE631A61EE842A61EEA44A30EE420A38
:1059700032EEC15AD0ED073A23EE800AF0EE651AF6
:1059800090ED0D4AB4EEC04AF1EE10FA3CD2B0EE02
:10599000440A47E0000034430000B443000034C32D
:1059A00000000000F4210020666626406F12833A52
:1059B0003333B33E0AD7233C00003442CDCCCC3F36
:1059C000000000460000343D2CA09941555555403B
:1059D0009A99993ECDCC4C4400008046EB9B2442E2
:1059E000CB10C73C00007A45EC51B83D0000104296
:1059F0001CC7B140EC51383E00007A4400401C46C0
:105A000000002041A5D4685390ED0E4AB1EE444AFF
:105A1000B4EEC04AF1EE10FA02DDB0EE440A01E045
:105A2000F0EE631A30EE220A41EE854A30EE410A6A
:105A3000D0ED081A41EE804AB0EE430A00EE820A29
:105A400080ED020A00EE812A80ED032A00EEA41AFE
:105A500080ED041A70472DE9F04104462DED068BC8
:105A60000E4694F88800FDF77FFDB0EE409AFC4D9D
:105A700028789FEDFDABB8B9012028700022FC4BBF
:105A80001FED332AC2EB021003EB8000B0EE420A96
:105A9000F0EE401AB0EE401AF0EE400AFFF71DFF9C
:105AA000501CC2B2042AEDD384ED259AB4F8AE702E
:105AB000A4F8B070B6B2A4F8AE60D4F8400106F015
:105AC000AFF853EC1A2B05F08DFF41EC180BF01BCF
:105AD00006F069F853EC182B06F0CEF805D2D4F88E
