:020000040800F2
:10000000F03A0020390F00087D0D00087F0D000830
:10001000870D0008890D00088B0D00080000000006
:100020000000000000000000000000008D0D00082E
:100030008F0D0008000000004F0F0008510F00084E
:10004000530F0008530F0008530F0008530F000808
:10005000530F0008530F0008530F0008530F0008F8
:10006000530F0008530F0008530F0008530F0008E8
:10007000530F0008530F0008530F0008530F0008D8
:10008000530F0008530F0008530F0008530F0008C8
:10009000835B0008530F0008530F0008530F00083C
:1000A000530F0008530F0008530F0008530F0008A8
:1000B000530F0008530F0008530F0008530F000898
:1000C000530F0008530F0008530F0008530F000888
:1000D000530F000855450008094400089F400008D8
:1000E000530F0008530F0008530F0008530F000868
:1000F000530F0008530F0008530F0008530F000858
:10010000530F0008530F0008530F0008530F000847
:100110003D46000897460008530F0008530F00089B
:10012000530F0008530F0008530F0008530F000827
:10013000530F0008530F0008530F0008530F000817
:10014000595E0008530F0008530F000879AB0008F0
:10015000530F0008530F0008530F0008530F0008F7
:10016000530F0008530F0008530F0008530F0008E7
:10017000530F0008530F0008530F0008530F0008D7
:10018000530F0008530F0008DFF80CD00BF05EF897
:100190000048004705060008F03A00200000000073
:1001A0002DE9F001F9480068F94B1860F949096830
:1001B0005960F94A12689A600844F849104490FB63
:1001C000F1F201FB1200D86042F2107490FBF4F1DE
:1001D000DFF8CCC38CFB01525511A5EBE2726FF036
:1001E00018056A43EF4D01EB82012A68D14201D51F
:1001F00000211DE090FBF4F18CFB01767711A7EB59
:10020000E6766FF018077E4301EB860111446329FF
:1002100001DD63210CE090FBF4F18CFB017677119A
:10022000A7EBE6766FF018077E4301EB86011144D9
:10023000DD4E3162596390FBF4F104FB11018CFB3C
:1002400001214A11A2EBE1718CFB01725711A7EB5E
:10025000E2726FF018077A4301EB82016A68D142BB
:1002600001D500212DE090FBF4F104FB11018CFB82
:1002700001714F11A7EBE1718CFB01874FEA671801
:10028000A8EBE7776FF0180807FB08F701EB870189
:100290001144632901DD632113E090FBF4F104FBB9
:1002A00011018CFB01414C11A4EBE1718CFB017439
:1002B0006711A7EBE4746FF018077C4301EB84012E
:1002C0001144716299638CFB00214A11A2EBE17128
:1002D0006FF01802514300EB8100A968401801D566
:1002E000002002E0632800DD6320B062D863BDE82F
:1002F000F00170472DE9F04FA4480068DFF890E264
:10030000CEF80000A3490968CEF80410A24A12688A
:10031000CEF808200844A149104490FBF1F201FBFB
:100320001200CEF80C00DFF88482DEF81010DFF83F
:1003300070A2D8F80CC0D8F8004001FB04C18AFBB9
:1003400001325311A3EBE2726FF018035A4301EB31
:100350008202CEF81C20D8F81050DEF81410D8F81D
:10036000046001FB06518AFB01735F11A7EBE37385
:100370006FF018077B4301EB8301CEF82010D8F80B
:100380001470DEF81830D8F8088003FB08738AFB75
:1003900003B94FEA691BABEBE9796FF0180B09FB66
:1003A0000BF903EB8903CEF82430002A01DA00228E
:1003B00002E0632A00DD6322CEF81C20002901DA66
:1003C000002102E0632900DD6321CEF82010002B1C
:1003D00001DA002302E0632B00DD6323CEF8243032
:1003E00042F2107B90FBFBF18AFB01325311A3EB2D
:1003F000E2726FF018035A4301EB820369490A68FD
:10040000D34201D5002121E090FBFBF18AFB01934F
:100410004FEA6319A9EBE3736FF0180903FB09F3C3
:1004200001EB83011144632901DD63210EE090FBA0
:10043000FBF18AFB01934FEA6319A9EBE3736FF0B9
:10044000180903FB09F301EB8301114401FB04C10B
:100450008AFB01325311A3EBE2726FF018035A4387
:1004600001EB8201CEF8281090FBFBF20BFB12028D
:100470008AFB02325311A3EBE2728AFB02C34FEAFA
:10048000631CACEBE37C6FF01803DFF818910CFBF6
:1004900003F302EB8302D9F80430DA4201D50022DB
:1004A00031E090FBFBF20BFB12028AFB02C24FEA27
:1004B000621CACEBE2728AFB024C4FEA6C14A4EBB8
:1004C000EC7C6FF018040CFB04FC02EB8C021A4469
:1004D000632A01DD632216E090FBFBF20BFB1202A4
:1004E0008AFB02C24FEA621CACEBE2728AFB024C4E
:1004F0004FEA6C14A4EBEC7C6FF018040CFB04FCCA
:1005000002EB8C021A4402FB06528AFB02C34FEA3A
:10051000631CACEBE3736FF0180C03FB0CF302EB02
:100520008302CEF82C208AFB00C34FEA631CACEB9D
:10053000E3736FF0180C03FB0CF300EB8300D9F8A6
:100540000830C01801D5002002E0632800DD6320D8
:1005500000FB08708AFB00C34FEA631CACEBE3733B
:100560006FF0180C03FB0CF300EB8300CEF83000A7
:10057000002901DA002102E0632900DD6321CEF8C1
:100580002810002A14DA002215E00000107AFF1F5C
:100590000C070020147AFF1F187AFF1F809698001E
:1005A0001F85EB512C000020500700201400002074
:1005B000632A00DD6322CEF82C20002801DA002017
:1005C00002E0632800DD6320CEF83000FE4BDFF848
:1005D000FCC31C7BA1420DD1597B8A420AD1997B75
:1005E000884207D160208CF80000012018708EF836
:1005F000400003E0002018708CF800009CF8000018
:10060000BDE8F08F2DED088B96B000250C950D956B
:100610000E950F95109511951295139514951595A6
:1006200002950395049505950695079508950995F6
:100630000A950B95FFF7B4FDFFF75CFE4FF4A06041
:1006400000F0EEFCA82000F089FC03F05AF96420C9
:1006500002F06AFEDE480090DE4BDF4A0121DF48EF
:1006600009F038FC642002F05FFE02F092FE02F016
:100670001FFF02F0B4FCDA4803F0A8FBFC20DA4AC2
:10068000DA4E01240090D74B51060194304602F017
:10069000A9FE01228021D64801F0B0FAFC213046A3
:1006A00002F0EEFE642002F03FFE4FF47A71042067
:1006B00002F032FF0023B0EE080A06220521184698
:1006C00005F037FB642002F02FFE04F0DEFC9FED06
:1006D000C90ABD4880ED010A9FEDC70A80ED020AF4
:1006E000C648C74905700D709FEDC79BDFF820A372
:1006F000DFF820B30AF108070BF580689FEDC68A82
:100700009FEDC7ABFFF7F6FD052002F017FEAF4ED9
:1007100086ED020ABA480178A1B1B8490A78C249FF
:100720000968114303D00121017002F008FFBF499D
:100730000868421C0A60B0F5967F19DDBA48006867
:1007400018B115E002F0FBFEF1E7AC480D60057052
:100750008BF800508BF844518BED298A8BED208A61
:100760008BED0E8A8BED7A8A8BED718A8BED5F8A29
:10077000DBF850000AF0E6FB41EC100B0AF0DDFD5F
:1007800053EC192B51EC100B0AF008FC08D29DED2C
:10079000020AD6ED020A30EE200A8DED020A01E0CF
:1007A0008DED028AA24C0298A0420EDB8DED028AEA
:1007B0000120CBF810018BF800508BED298A8BEDCE
:1007C000208A8BED0E8A8BF81451DBF894010AF025
:1007D000B9FB41EC100B0AF0B0FDB0EE49BAF0EEF7
:1007E00069BA53EC1B2B51EC100B0AF0D7FB08D263
:1007F0009DED030AD6ED020A30EE200A8DED030AC4
:1008000001E08DED038A0398A0420EDB8DED038A93
:100810000120CBF854028BF844518BED7A8A8BED92
:10082000718A8BED5F8A8BF858520024DFF80492AE
:1008300004EB041000EB84110BEB810090F88A208C
:1008400012B31BF8211031B119F804201AB990ED38
:100850000F0A80ED0C0A09F80410C17839B91AF8AA
:100860000420022A03D10122827080F814210AF8A0
:10087000041096ED020A204604F0BCFF96ED020A31
:10088000204604F0B1FC07E00BF8215080ED298AE6
:1008900080ED208A80ED0E8A601CC4B2032CC7D381
:1008A000DBF810015C4630B1257084ED298A84EDB7
:1008B000208A84ED0E8AD4F8540238B184F8445169
:1008C00084ED7A8A84ED718A84ED5F8A207908B19B
:1008D000C4F8105194F8480108B1C4F8545294F87F
:1008E0002001012808D038B1022800F076810328C1
:1008F00000F0738100F0E0B9D4F88C1020464A1C57
:10090000C4F88C20B1F5967F0ADD80F88A50057016
:1009100080ED298A80ED208A80F8145180ED0E8ABE
:10092000D0F8D021511CC0F8D011B2F5967F0BDD64
:1009300080F8CE5180F8445180ED7A8A80ED718A3A
:1009400080F8585280ED5F8A37490968B9B3417819
:1009500090F8142111FB02F1CAB2027090F845110F
:1009600090F8583211FB03F1CBB280F84431D0F843
:10097000D4C1BCF1020F0AD0BCF1010F72D087EDD7
:10098000018A87ED008A2C490968C9B1CAE090ED57
:100990000F0A014680ED0C0A91ED600A81ED5D0AB7
:1009A00000EE102AD1ED290AB8EE400A60EE800A66
:1009B00091ED420AB8EEC00A20EE800A3EE06BE0FC
:1009C00065E000000000000050070020000000204B
:1009D000EC060020700600209C06002080100020FD
:1009E00020A107008E20002004100140B8640240BE
:1009F00000100140CDCC8C3F9A99993F48010020CE
:100A000049010020000000000000000000409A4062
:100A100004000020C82100200000000000000000A9
:100A20007B14AE47E17A743F640100205801002036
:100A3000CDCCCC3D010000208001002087ED000AD4
:100A400000EE103AD1ED7A0AB8EE400A60EE800A64
:100A500091ED930AB8EEC00A20EE800A87ED010AF4
:100A600091E7FFE700EE102AD0ED200AB8EE400A29
:100A700020EE800A87ED000A00EE103AD0ED710AF0
:100A8000B8EE400A20EE800A87ED010A7BE787ED89
:100A9000018A87ED008A45E0B349097859B390EDA2
:100AA0000F0A80ED0C0A90ED600A80ED5D0A017876
:100AB000D0ED290A00EE101AB8EE400A60EE800A66
:100AC00090ED420AB8EEC00A20EE800A87ED000AD7
:100AD00090F84411D0ED7A0A00EE101AB8EE400AF0
:100AE00060EE800A90ED930AB8EEC00A20EE800A0C
:100AF00087ED010A16E00178D0ED200A00EE101A09
:100B0000B8EE400A20EE800A87ED000A90F8441102
:100B1000D0ED710A00EE101AB8EE400A20EE800AFD
:100B200087ED010A90F88A20D0F81011F1B3002166
:100B3000514300EE101AD7ED000AB8EE400A20EE3D
:100B4000200A87ED000A90F8CE21D0F8541271B334
:100B50000021514300EE901A97ED011AF8EE600A59
:100B600060EE810AC7ED010A90ED1E1A0446F1EE0F
:100B7000410A04F05FFADFF8F49199F8400000EEC2
:100B8000900AF8EE600A20EE200A87ED000A94ED44
:100B90006F1A97ED010AF1EE410A04F04BFA99F849
:100BA000400000EE900AF8EE600A01E011E012E069
:100BB00060EE200AC7ED010A97ED000A84ED210AD4
:100BC000C4ED720A04F0C1F84FF4FA7000F0D9F9DC
:100BD00072E00121ACE70121BBE7D8ED1C0A94F8D3
:100BE000CC03E0B3002100EE101A98ED131A94F82C
:100BF0008812B8EE400A60EE800A00EE100AB8EEE5
:100C0000400A41EE000ABDEEE00AD4EDCB0A10EE38
:100C1000100A03B2E9B3002000EE100A94EDC21AE4
:100C2000A446B8EE400A60EE800A00EE101A94F86E
:100C30004411B8EE400A41EE000ABDEEE00AD4EDE0
:100C40007A0A10EE100A02B2E9B3002000EE100A90
:100C50009CED711AB8EE400A60EE800A00E040E0B8
:100C600000EE101AB8EE400A41EE000ABDEEE00AAE
:100C7000DCED290A10EE100A01B29CF8000078B3EE
:100C80004FF0000900EE109AB8EE400A60EE800ABC
:100C900000E028E000EE100A9CED201AB8EE400AB1
:100CA00041EE000ABDEEE00A10EE100A00B204F0B8
:100CB000DCFF012000F097F99DED0C0AD6ED020A49
:100CC00030EE200A00E010E08DED0C0A10EE100A64
:100CD000B0F17C5F0EDD8DED0C8A05F005FF0BE0B9
:100CE00005E001217FE7012096E70120AEE74FF004
:100CF0000109C7E705F049FB96ED020A07F043FE3C
:100D00001B480168A9B1257084ED298A84ED208AE9
:100D100084ED0E8A84F8145184F8445184ED7A8A63
:100D200084ED718A84ED5F8A84F85852056002F080
:100D300048FDDFF84090D9F8000078B10E4C2068EB
:100D40000AF000F953EC1A2B09F037FF0AF03EF9CC
:100D50002060B0F17C5F01DDC9F8005096ED020A19
:100D600002F072F9CEE40000480100200C070020D8
:100D70007C0100208001002084010020704704498C
:100D800001200870FEE7FEE7FEE7FEE770477047C8
:100D90003800002082B00022019200925849086871
:100DA00040F480300860086800F40030009001983A
:100DB000401C0190009818B90198B0F5A04FF2D1ED
:100DC000086810F4003F02D00120009000E000927B
:100DD0000098012830D14B48026842F080520260EE
:100DE0004948026842F44042026048480268026092
:100DF000026842F400420260026842F4A0520260BB
:100E0000021F434B13600A6842F080720A600A684E
:100E100012F0007FFBD03F4A40F20571116001687B
:100E200021F003010160016841F0020101600168E5
:100E300001F00C010829FAD102B0704710B536480C
:100E4000016841F4700101602D48016841F0010121
:100E500001602E4A00211160026822F4102222F063
:100E600080720260031D2D4A1A60026822F48022FB
:100E700002602B480160FFF78DFF2A494FF00060A8
:100E8000086010BD30B4214C206800F00C00264DE5
:100E90002649002811D04FEA650C04280FD00828F5
:100EA00010D00D602068C0F303122148805C0A68EE
:100EB00022FA00F0086030BC70470D60F2E7C1F81C
:100EC00000C0EFE71B4A1068C0F38053106800F0C1
:100ED0003F0033B1BCFBF0F01368C3F388135843F1
:100EE00005E0B5FBF0F01368C3F3881358431268AC
:100EF000C2F30142521C5200B0FBF2F00860D1E78D
:100F0000003802404038024000700040083802407B
:100F100008544007003C024088ED00E010300024F7
:100F20000C38024008ED00E00024F4003C000020F2
:100F30004000002004380240064880470648004729
:100F4000FEE7FEE7FEE7FEE7FEE7FEE7FEE7FEE779
:100F5000FEE7FEE73D0E00088901000810B50446D3
:100F60006FF0040000F0AFF82C49E008087000EBC7
:100F70004002C2EBC0104FF6FF7202EAC000488088
:100F800010BD2649097848434FF0E021486100230D
:100F90008B61086940F001000861086910F0010FD9
:100FA00002D010F4803FF8D0086920F001000861F9
:100FB0008B6170471949498848434FF0E0214861E7
:100FC00000238B61086940F001000861086910F096
:100FD000010F02D010F4803FF8D0086920F0010022
:100FE00008618B61704730B54FF40771B0FBF1F2C7
:100FF000D4B2B0FBF1F201FB1205002C07D04FF484
:101000000770FFF7D7FF611ECCB2002CF7D1002D7F
:1010100003D02846BDE83040CCE730BD500000206A
:10102000304940F0FD7040F080600860704710B4B7
:101030004FF00F0CC27801240178002A23D0294AEE
:10104000126802F4E062C2F5E062C2F30722C2F164
:1010500004032CFA02FC42789A40837803EA0C03DA
:101060001A43120101F1E02181F80024007800F018
:101070001F0104FA01F14009800000F1E020C0F8EE
:10108000001110BC704701F01F0004FA00F049097C
:10109000890001F1E021C1F8800110BC704721F006
:1010A0007F0121F0604108430F49086070470F4AF3
:1010B000002903D01168084310607047116821EAC5
:1010C0000000106070474FF0E021042804D0086948
:1010D00020F0040008617047086940F004000861CE
:1010E000704700000CED00E008ED00E010ED00E0BE
:1010F00010B5A0F18041B1F500313CD0A0F18041A4
:10110000B1F5013141D0A0F18041B1F5023146D0B5
:10111000A0F18041B1F503314BD0A0F18041B1F590
:10112000043150D0A0F18041B1F5053155D0A0F186
:101130008041B1F506315AD0A0F18041B1F50731B7
:101140005FD0A0F18041B1F5083164D0A0F18041B9
:10115000B1F509316AD0A0F18041B1F50A3170D101
:101160000121880200F0A5FABDE8104000214FF4EB
:10117000806000F09EBA0121084600F09AFA002132
:10118000BDE81040012000F094BA0121022000F0D7
:1011900090FA0021BDE81040022000F08ABA012137
:1011A000042000F086FA0021BDE81040042000F081
:1011B00080BA0121082000F07CFA0021BDE810402F
:1011C000082000F076BA0121102000F072FA002108
:1011D000BDE81040102000F06CBA0121202000F082
:1011E00068FA0021BDE81040202000F062BA012119
:1011F000402000F05EFA0021BDE81040402000F0E1
:1012000058BA0121802000F054FA0021BDE81040B6
:10121000802000F04EBA0121080200F04AFABDE831
:10122000104000214FF4807000F043BA01214802C1
:1012300000F03FFABDE8104000214FF4007000F0CC
:1012400038BA10BD2DE9F00100220126032706FA65
:1012500002FC0B6803EA0C03634538D105685300B0
:1012600007FA03F4A54305600D79D0F800809D408E
:1012700045EA080505600D79012D01D0022D17D131
:101280008568A54385604D79D0F808809D4045EA82
:1012900008058560456825EA0C0CC0F804C0D0F844
:1012A00004C08D799540ADB24CEA050CC0F804C07D
:1012B000D0F80CC02CEA040CC0F80CC091F807C0A0
:1012C0000CFA03F3D0F80CC043EA0C03C360521CC1
:1012D000102ABCD3BDE8F00170474FF6FF710160E2
:1012E0000021017141718171C171704781B041F478
:1012F00080320092009AC261C1610099C161C169E6
:10130000C069009001B070470246002012690A428D
:1013100000D001207047006980B27047024600206B
:1013200052690A4200D001207047406980B270477C
:101330000183704741837047002A01D001837047C1
:101340004183704741617047426951404161704734
:101350004B07DB0E9A40C90800EB8100016A4FF091
:101360000F0C0CFA03F399430162016A1143016205
:1013700070470000F948016841F001010160F84A36
:1013800000211160026822F4102222F0A8520260AB
:10139000031DF44A1A60F54BF34A1A601B1DF44A08
:1013A0001A60026822F480220260F2480160181D6F
:1013B00001607047F04900220A70087070470022EF
:1013C000410901290DD002290ED0EC49096800F02D
:1013D0001F00012303FA00F0084200D0012210464A
:1013E0007047DE490968F2E7E5490968EFE708B5A3
:1013F000002000903120FFF7E2FF0099491C009186
:101400000099B1F5A04F01D00028F3D03120FFF7AB
:10141000D6FF08B1012008BD002008BDCF4A1168E1
:1014200021F0F80141EAC00010607047D54908601A
:101430007047D34900220A700A70012804D004289A
:1014400001D1052008707047012008707047CE490F
:1014500008607047DDF800C041EA82114FF0FF32AA
:1014600002EB530241EA02410843C84940EA0C60DA
:1014700008607047C34908667047800140EA017000
:10148000BA4908607047BF4988667047800140EAE2
:101490000160BF4940EA027008607047B9490867B7
:1014A0007047B849C8647047AD4B1A6822F0EC62C7
:1014B0000843104318607047A94B1A6822F078421D
:1014C0000843104318607047A54A116821F00301D2
:1014D000084310607047A248006800F00C00704795
:1014E0009F4A116821F0F0010843106070479C4A40
:1014F000116821F4E051084310607047984A116860
:1015000021F4604141EAC0001060704730B4DFF858
:1015100050C2DCF8001001F00C019E4D002923D0D0
:101520006C10042922D0082922D00560DCF80010B4
:1015300001F0F0010909984B595C026822FA01F1A7
:101540004160DCF8002002F4E052920A9A5C21FA31
:1015500002F28260DCF8002002F46042520B9A5CD6
:10156000D140C16030BC70470560DFE70460DDE753
:10157000864A1168C1F38053116801F03F0133B10D
:10158000B4FBF1F11368C3F38813594305E0B5FBCD
:10159000F1F11368C3F3881359431268C2F301428F
:1015A000521C5200B1FBF2F10160BFE74FF44071F1
:1015B000814309D16A4A116821F4F81120F440737B
:1015C00023F07043194311606D490A68C0F30B00A2
:1015D000104308607047714908607047704908609F
:1015E00070477049086070476F4A116821F01F0109
:1015F000401E0843106070476B4A116821F4F8518F
:10160000401E41EA002010607047674A116821F4CB
:101610004011084310607047634A116821F440018B
:10162000084310607047604A116821F44031084354
:10163000106070475D49086070475D4A002903D01B
:101640001168084310607047116821EA00001060BB
:101650007047584A002903D011680843106070474A
:10166000116821EA000010607047534A002903D036
:101670001168084310607047116821EA000010608B
:1016800070474E4A002903D0116808431060704724
:10169000116821EA000010607047494A002903D010
:1016A0001168084310607047116821EA000010605B
:1016B0007047444A002903D01168084310607047FE
:1016C000116821EA0000106070473F4A002903D0EA
:1016D0001168084310607047116821EA000010602B
:1016E00070473A4A002903D01168084310607047D8
:1016F000116821EA000010607047354A002903D0C4
:101700001168084310607047116821EA00001060FA
:101710007047304A002903D01168084310607047B1
:10172000116821EA0000106070472B4A002903D09D
:101730001168084310607047116821EA00001060CA
:101740007047264A002903D011680843106070478B
:10175000116821EA00001060704700000038024064
:101760000838024010300024003000208438024045
:10177000003000240C380240023802407438024025
:101780007038024000004742800E47420438024051
:10179000883802400024F400540000203C0E4742E8
:1017A000400E47425C0147428C380240E0114742FC
:1017B0003038024034380240383802404038024065
:1017C00044380240103802401438024018380240B1
:1017D0002038024024380240503802405438024039
:1017E000264A002903D01168084310607047116829
:1017F00021EA000010607047214A002903D01168D7
:10180000084310607047116821EA000010607047BB
:101810001C4A002903D01168084310607047116802
:1018200021EA0000106070471749012804D00868B9
:1018300020F0080008607047086840F00800086061
:101840007047124A002903D011780843107070477E
:10185000117821EA0000107070470D48016841F0CE
:10186000807101607047014600200A4A12680A42EE
:1018700000D001207047084908707047583802406E
:101880006038024064380240703802400D3802402F
:10189000743802400C3802400E38024010B5A0F1F6
:1018A0008041B1F588312DD0A0F18041B1F588415A
:1018B00032D0A0F18041B1F5904138D0A0F1804103
:1018C000B1F598413ED0A0F18041B1F5A04144D09E
:1018D000A0F18041B1F58A314AD0A0F18041B1F543
:1018E000F0414FD0A0F18041B1F5F84155D101212F
:1018F000C807FFF702FFBDE8104000214FF000408D
:10190000FFF7FBBE01211020FFF703FF0021BDE818
:1019100010401020FFF7FDBE01214804FFF7EDFE47
:10192000BDE8104000214FF40030FFF7E6BE012172
:101930008804FFF7E2FEBDE8104000214FF480204C
:10194000FFF7DBBE0121C804FFF7D7FEBDE810405A
:1019500000214FF40020FFF7D0BE01210805FFF75A
:10196000CCFEBDE8104000214FF48010FFF7C5BE4B
:1019700001212020FFF7CDFE0021BDE810402020EE
:10198000FFF7C7BE01218807FFF7B7FEBDE810408B
:1019900000214FF08040FFF7B0BE10BD30B585B0DC
:1019A00004460D46208A20F44050E98808432082EE
:1019B000A08920F4037020F4A050A9882A8911433B
:1019C0006A8910430843A081A08A20F44070A98945
:1019D0000843A0826846FFF799FDA4F18040B0F566
:1019E000883012D0A4F18040B0F58A300DD0029832
:1019F000A18911F4004F0AD000EBC00101EB0010E7
:101A000029684900B0FBF1F009E00398F0E700EB2A
:101A1000C00101EB001029688900B0FBF1F0A84A71
:101A2000A2FB0031490909010B096FF0180C03FBF7
:101A30000CF300EB8300A38913F4004F4FF0320343
:101A400007D003EBC000A2FB0020C0F34210084304
:101A500006E003EB0010A2FB0020C0F34310084394
:101A6000208105B030BD4FF4165101600021818006
:101A7000C18001810C22428181817047028A22F457
:101A800070620B88B1F802C043EA0C03B1F804C0DD
:101A9000C9884CEA010119431143018270470021B2
:101AA000018041808180C1807047002904D08189F4
:101AB00041F4005181817047818921F40051818175
:101AC0007047028B02F47F420283028B1143018331
:101AD0007047002904D0818941F400418181704719
:101AE0008189C1F30E0181817047002904D0818A68
:101AF00041F4006181827047818A21F40061818212
:101B00007047C1F30801818070478088C0F30800E6
:101B10007047028A22F00F020282028A1143018278
:101B20007047002904D0818941F00201818170470A
:101B3000818921F0020181817047828922F400624B
:101B400082818289114381817047028A22F02002BA
:101B50000282028A114301827047002904D0018A5F
:101B600041F4804101827047018A21F48041018261
:101B70007047818941F0010181817047002904D0BB
:101B8000818A41F0080181827047818A21F0080131
:101B900081827047028BD2B20283028B42EA01211A
:101BA00001837047002904D0818A41F0200181829D
:101BB0007047818A21F0200181827047002904D07A
:101BC000818A41F0100181827047818A21F01001E1
:101BD00081827047828A22F004028282828A1143C3
:101BE00081827047002904D0818A41F002018182FC
:101BF0007047818A21F0020181827047002A03D058
:101C0000828A114381827047828A22EA010181829D
:101C1000704740F66A13C1F3421301F01F014FF001
:101C2000010C0CFA01F1012B07D0022B07D0143064
:101C30003AB102681143016070470C30F8E7103088
:101C4000F6E7026822EA01010160704702460020BF
:101C500012880A4200D00120704701F40072C94383
:101C60000180704710B44FF0000C40F66A12C1F3C7
:101C7000421301F01F02012404FA02F2012B0FD0DB
:101C8000022B10D0838A1A40090A04FA01F1008855
:101C9000084012B108B14FF0010C10BC604670470B
:101CA00083891A40F0E7038A1A40EDE740F66A128A
:101CB000090A012202FA01F1C943018070470000BC
:101CC0001F85EB51FC4908707047FB49002804D080
:101CD000086840F4807008607047086820F48070DD
:101CE00008607047F449002804D0086840F4007088
:101CF00008607047086820F4007008607047EE497B
:101D0000002804D0086840F48060086070470868C4
:101D100020F4806008607047E748016841F4006182
:101D200001607047E448016841F4805101607047E8
:101D3000E248006810F0004F04D0E248E04901603A
:101D4000E14901607047DD48016841F000410160F0
:101D500070470920DD490A6812F4803F01D0012054
:101D600070470A6812F0100F01D0062070470A6809
:101D700012F4807F01D0022070470A6812F0EF0F42
:101D800001D007207047096811F0020FFAD008202F
:101D9000704708B509200090FFF7DBFF00909DF821
:101DA0000000012806D1FFF7D4FF00909DF8000045
:101DB0000128F8D09DF8000008BD70B50646002542
:101DC000002905D0012927D0022928D04FF44075D9
:101DD000FFF7DFFF09281ED1B84C206820F44070BF
:101DE0002060206828432060206820F0F8002060F0
:101DF000206846F0020108432060206840F48030EB
:101E00002060FFF7C6FF216821F0020121602168F0
:101E100021F0F801216070BD4FF48075D8E74FF4D0
:101E20000075D5E730B505460024FFF7B2FF2DB1A8
:101E3000012D1CD0022D1DD04FF44074092815D15E
:101E40009E4D286820F44070286028682043286050
:101E5000286840F004002860286840F4803028603A
:101E6000FFF797FF296821F00401296030BD4FF486
:101E70008074E3E74FF40074E0E730B505460024D2
:101E8000FFF787FF2DB1012D1CD0022D1DD04FF47F
:101E90004074092815D1894D286820F440702860C5
:101EA000286820432860286840F0040028602868DB
:101EB00040F480302860FFF76CFF296821F00401AE
:101EC000296030BD4FF48074E3E74FF40074E0E71D
:101ED00030B505460024FFF75CFF2DB1012D1CD065
:101EE000022D1DD04FF44074092815D1734D286878
:101EF00020F440702860286820432860286840F457
:101F000000402860286840F480302860FFF741FFD7
:101F1000296821F40041296030BD4FF48074E3E763
:101F20004FF40074E0E7F0B5074614461D46FFF78E
:101F300030FF092814D1614E306820F440703060C1
:101F4000306840F440703060306840F0010030602C
:101F50003C607D60FFF71DFF316821F001013160B9
:101F6000F0BD70B506460D46FFF713FF092813D1E3
:101F7000524C206820F440702060206840F40070CB
:101F80002060206840F0010020603560FFF701FF0D
:101F9000216821F00101216070BD70B506460D4633
:101FA000FFF7F7FE092813D1444C206820F4407055
:101FB0002060206840F480702060206840F00100BC
:101FC00020603580FFF7E5FE216821F001012160E6
:101FD00070BD70B505460E46FFF7DBFE092811D12E
:101FE000364C206820F44070206020682060206813
:101FF00040F0010020602E70FFF7CBFE216821F039
:102000000101216070BD3248006810F0010F04D05A
:102010003148304901603149016070472C480168FE
:1020200041F001010160704730B504460D46FFF7ED
:10203000B0FE092804D12A481DB10188A1430180BE
:1020400030BD01882143018030BD30B504460D46C6
:10205000FFF79FFE092804D122481DB10188A14342
:10206000018030BD01882143018030BD1E4A1178B6
:1020700001F07F0108431070704730B504460D46EB
:10208000FFF787FE092804D115481DB101882143B7
:10209000018030BD0188A143018030BD30B50446C8
:1020A0000D46FFF776FE092804D10E48F5B10188E8
:1020B0002143018030BD0000003C0240103C024042
:1020C00023016745043C0240AB89EFCD0C3C024044
:1020D000143C02403B2A1908083C02407F6E5D4CCC
:1020E000163C02401A3C0240173C02400188A143C2
:1020F000018030BD10B50446FFF74BFE092801D121
:102100002F48047010BD70B504460D461646FFF703
:1021100040FE092807D12B4B187800F00F00284308
:1021200030432043187070BD26490A7822F010020F
:102130000A700A7810430870704722490A7822F022
:102140000C020A700A781043087070471D48017825
:1021500041F0020101701CE61A480068C0F3471004
:10216000704719480088704718480088704716481B
:10217000008870471548008870470020104909788A
:10218000AA2900D0012070470E48007800F00C000A
:1021900070470F4A002903D0116808431060704748
:1021A000116821EA00001060704701460020094ACA
:1021B00012680A4200D00120704706490860704743
:1021C000153C0240143C0240163C02401A3C0240BE
:1021D000103C02400C3C02402DE9F003016821F064
:1021E000010101600021016041608160C160016105
:1021F00021214161D34AD4494FF03D08904204D196
:10220000C1F80880BDE8F0037047D04A4FF4746409
:10221000904203D18C60BDE8F0037047CC4A4FF484
:102220007415904203D18D60BDE8F0037047C94A30
:102230004FF07466904203D18E60BDE8F0037047A2
:10224000C54BC64A984203D1CA60BDE8F003704747
:10225000DFF80CC3C34B604503D1CB60BDE8F0038E
:102260007047C14FDFF804C3B84204D1C1F80CC0B5
:10227000BDE8F0037047DFF8F8924FF03D5748454E
:1022800003D1CF60BDE8F0037047DFF8E892BA49A8
:10229000484504D1C1F80080BDE8F0037047DFF87D
:1022A000DC82404503D10C60BDE8F0037047B44CBC
:1022B000A04203D10D60BDE8F0037047B14CA042CD
:1022C00003D10E60BDE8F0037047AF4CAF49A042A8
:1022D00003D10A60BDE8F0037047AD4A904203D1D4
:1022E0000B60BDE8F0037047AA4A904204D1C1F8E0
:1022F00000C0BDE8F0037047A74A9042F9D10F60D3
:10230000BDE8F003704710B40268A44B1A40D1F83E
:102310000CC00B688C6943EA0C03D1F814C04CEA7A
:10232000040C43EA0C03D1F81CC043EA0C03D1F8B7
:1023300020C043EA0C03D1F824C043EA0C03D1F8CF
:1023400028C043EA0C03D1F834C043EA0C03D1F8A7
:1023500038C043EA0C031A430260426922F00702C4
:10236000D1F830C0CB6A43EA0C031A4342610A69D0
:1023700042604A6882608968C16010BC7047002171
:10238000016041608160C160016141618161C16141
:10239000016241628162C16201634163816370478E
:1023A000002904D0016841F0010101607047016813
:1023B00021F0010101607047002904D0016841F457
:1023C000004101607047016821F4004101607047DD
:1023D000002904D0016841F02001016070470168C4
:1023E00021F020010160704741607047406880B271
:1023F0007047002A04D0026842F40022026003E021
:10240000026822F40022026001617047002904D0B2
:10241000016841F4802101607047016821F4802146
:1024200001607047002A01D001617047C1607047A8
:1024300001460020096811F4002F00D001207047E8
:1024400001460020096811F0010F00D001207047FB
:10245000406900F03800704702460020454B9A4220
:1024600001D2394A00E04E4A11F0005F01D05268B3
:1024700000E012684B4B1A400A4200D0012070471E
:102480003C4A904201D2304800E04548454A11F0AC
:10249000005F01EA020101D0C160704781607047AE
:1024A00011F0800F09D022B1436943F080034361EA
:1024B00003E0436923F080034361802905D001F0E4
:1024C0001E011AB10268114301607047026822EAD6
:1024D0000101016070470023264A904201D21A4A46
:1024E00000E02F4ADFF8C0C011EA0C0F07D04FF010
:1024F0001E0C0CEAD12C006800EA0C0002E04069D6
:1025000000F0800011F0005F01D0526800E0126816
:10251000DFF890C002EA0C020A4201D000B10123A8
:1025200018467047134A904201D2074800E01C4801
:102530001C4A11F0005F01EA020101D0C16070473E
:1025400081607047106002400060024028600240D5
:102550004060024058600240706002403D00002030
:1025600088600240400F0020A060024000003D2033
:10257000B8600240106402400864024028640240CF
:102580004064024058640240706402400C6402409F
:1025900088640240A0640240B86402403F801CF09E
:1025A000006402407D0F7D0F3C0F3C0F10B50121F0
:1025B0004020FFF78AF80021BDE810404020FFF7D7
:1025C00084B81B49002804D0086840F00400086063
:1025D0007047086820F004000860704715480068DC
:1025E00070471349002804D0086840F008000860CC
:1025F0007047086820F00800086070470146002016
:102600000D4A12680A4200D0012070470A496FEA59
:1026100000100860704701460020074A12680A420D
:1026200000D0012070470449C043C0B20860704721
:102630000008065008080650040806500D490860B6
:1026400070470C49486070470A49886070470949DB
:102650004AF6AA200860704706494CF6CC4008604C
:10266000704701460020034AD2680A4200D0012088
:10267000704700000030004010B5A0F18041B1F576
:10268000C8410AD001218806FFF737F8BDE810409D
:1026900000214FF08060FFF730B801214806FFF7B6
:1026A0002CF8BDE8104000214FF00070FFF725B86E
:1026B0000022036823F002030360036843F0010370
:1026C00003604FF6FF7300E0521CD0F804C01CF00A
:1026D000010F01D19A42F7D1426812F0010F41D0A7
:1026E0008A79012A40D0026822F080020260CA7909
:1026F000012A3ED0026822F0400202600A7A012AD2
:102700003CD0026822F0200202604A7A012A3AD0C4
:10271000026822F0100202608A7A012A38D0026828
:1027200022F008020260CA7A012A36D0026822F03A
:10273000040202608A7891F803C0920742EA0C62B0
:1027400091F804C042EA0C4291F805C0098842EAB7
:102750000C52491E1143C161016821F00101016061
:10276000002120E000207047026842F080020260F1
:10277000BDE7026842F040020260BFE7026842F033
:1027800020020260C1E7026842F010020260C3E763
:10279000026842F008020260C5E7026842F00402E3
:1027A0000260C7E7491C426812F0010F01D099424C
:1027B000F8D1406810F0010F01D0002070470120CF
:1027C000704730B4827A01219140F84B1A6842F088
:1027D00001021A60DFF8D8C3DCF800208A43CCF885
:1027E0000020047BF34A002C1AD114688C43146037
:1027F0004488C58844EA0544857AED0005F18045A2
:1028000005F5C045C5F840460588848845EA044575
:10281000847AE40004F1804404F5C044C4F84456CA
:10282000047B012C1AD114680C431460428804887C
:1028300042EA0442847AE40004F1804404F5C0448E
:10284000C4F84026C288848842EA0442847AE400BC
:1028500004F1804404F5C044C4F84426C47AD64A3E
:1028600034B114680C4314600489D44A24B106E0DE
:1028700014688C431460F7E714688C43146004896F
:10288000012C02D114680C431460407B012804D150
:10289000DCF800000843CCF80000186820F00100C4
:1028A000186030BC704700218171C17101724172A2
:1028B0008172C1728170C170032101710221417165
:1028C000012101807047B9490A6842F001020A609B
:1028D0000A6822F4877222F478520A600A6842EA8F
:1028E00000200860086820F0010008607047002997
:1028F00004D0016841F4803101607047016821F41F
:10290000803101607047002916D0016841F08001D4
:102910000160D0F8841141F48071C0F88411D0F8BE
:10292000941141F48071C0F89411D0F8A41141F4CD
:102930008071C0F8A4117047016821F08001016026
:10294000D0F8841121F48071C0F88411D0F894116A
:1029500021F48071C0F89411D0F8A41121F4807191
:10296000C0F8A411704710B402460020936813F019
:10297000806F0CD1906810F0006F01D0012006E04C
:10298000906810F0805F01D0022000E0042004284D
:102990004FD002EB0012D2F8803103F00103C2F8ED
:1029A00080310B7AF3B3D2F880C14C684CEA030350
:1029B00091F809C04CEAC40C43EA0C03C2F8803118
:1029C0008B7A03F00F038B72D2F8843123F00F035C
:1029D000C2F88431D2F8843191F80AC043EA0C037A
:1029E000C2F88431CB7A91F80EC00C7B43EA0C63B9
:1029F00091F80DC04FEA0C4C4CEA042C43EA0C034E
:102A0000C2F88831CB7B91F812C043EA0C6391F88D
:102A100011C0097C4FEA0C4C4CEA01211943C2F861
:102A20008C1100E007E0D2F8801141F00101C2F8FA
:102A3000801110BC7047D2F8803191F809C043EA88
:102A40000C03B1F800C043EA4C53C2F88031B7E739
:102A50000022002904D0012907D002290ED109E063
:102A60008068574900EA010208E08068554900EA99
:102A7000010203E08068544900EA01025349501AF8
:102A80008A421AD007DCA2B16FF08060101812D011
:102A900002280BD115E0B0F5007F14D0A0F1006042
:102AA000B0F57F400BD0B0F5003F0ED00020C0B293
:102AB00070470220FBE70020F9E70020F7E700203D
:102AC000F5E70120F3E70120F1E70120EFE7002916
:102AD00008D001290BD0022903D1816841F40001FB
:102AE00081607047816841F0800181607047816832
:102AF00041F400418160704700EB0113D3F8B0C18D
:102B00000CF0040C82F808C0BCF1000F47D0D3F8D9
:102B1000B0C14FEADC0CC2F804C0D3F8B0C10CF06D
:102B2000020C82F809C0D3F8B4C10CF00F0C82F883
:102B30000AC0D3F8B4C14FEA1C2C82F813C0D3F8F2
:102B4000B8C182F80BC0D3F8B8C14FEA1C2C82F888
:102B50000CC0D3F8B8C14FEA1C4C82F80DC0D3F8B2
:102B6000B8C14FEA1C6C82F80EC0D3F8BCC182F821
:102B70000FC0D3F8BCC14FEA1C2C82F810C0D3F8A8
:102B8000BCC14FEA1C4C82F811C0D3F8BC311B0EFB
:102B90009374E9B1016941F0200101617047D3F8F4
:102BA000B0C14FEA5C5CC2F800C0B6E70066004006
:102BB0001C6600400C66004004660040146600403D
:102BC00003000004000300080000031000010008D7
:102BD000C16841F02001C1607047002904D001693B
:102BE00041F0200101617047C16841F02001C160DE
:102BF000704702460020002905D0012902D1106942
:102C000000F003007047D06800F003007047002315
:102C10004FF6FF72002904D001291AD002292CD0C6
:102C200042E0016821F0020141F00101016000E091
:102C3000521E416801F00301012901D0002AF7D199
:102C4000406800F00300012801D000232CE001239C
:102C50002AE0016821F00301016000E0521E416892
:102C600011F0030F01D0002AF8D1406810F0030FD3
:102C700001D0002318E0012316E0016821F00101D2
:102C800041F00201016000E0521E416801F00301C1
:102C9000022901D0002AF7D1406800F00300022881
:102CA00001D0002300E0012318467047002102688C
:102CB00022F0010242F002020260406800F00300CC
:102CC000022800D10121084670474FF6FF7100230A
:102CD000026822F00202026000E0491E426812F01F
:102CE000020F01D00029F8D1406810F0020F00D186
:102CF0000123184670478069C0F302100001704735
:102D00008069000E70478069C0F307407047002A51
:102D100003D04269114341617047426922EA0101CF
:102D2000416170470346002011F4700FC1F3130294
:102D300004D09969114200D00120704711F0807FC2
:102D400004D059681142F8D00120704711F0006F8B
:102D500004D099681142F8D00120704711F0007F2B
:102D600004D0D9681142F8D0012070471969114286
:102D7000FBD0012070477A4A914202D10021816143
:102D80007047C1F3130211F0007F01D0C260704799
:102D900011F0806F01D00261704711F0006F01D017
:102DA0008260704742607047024600200A4200D0AD
:102DB0000120704710B5002243690B427CD0B1F569
:102DC000807F5CD010DC082935D006DC012920D0BA
:102DD000022924D004296FD127E0102931D02029DD
:102DE00035D0402968D138E0B1F5004F5FD009DC1B
:102DF000B1F5007F49D0B1F5806F4CD0B1F5006FCF
:102E00005AD14EE0B1F5803F2DD0B1F5003F53D1FE
:102E10002FE080685349FFF7C7FF02464CE0C068C7
:102E20000321FFF7C1FF024646E0C0680821FFF713
:102E3000BBFF024640E0C0681021FFF7B5FF024625
:102E40003AE000690321FFF7AFFF024634E0006972
:102E50000821FFF7A9FF02462EE000691021FFF7C5
:102E6000A3FF024628E040680821FFF79DFF0246C5
:102E700022E040681021FFF797FF02461CE08069BE
:102E80000121FFF791FF024616E080690221FFF75A
:102E90008BFF024610E080690421FFF785FF0246A0
:102EA0000AE080697021FFF77FFF024604E0406876
:102EB0000421FFF779FF0246104610BD10B410231D
:102EC00004224FF0080CB1F5007F3FD013DC20291D
:102ED00031D008DC012926D0042928D0082900D1C6
:102EE000C36010BC7047402929D0B1F5807FF8D16C
:102EF000426010BC70470024B1F5004F2CD009DCB3
:102F0000B1F5806F25D0B1F5006FF2D184614260D8
:102F100010BC7047B1F5803F14D0B1F5003FF7D138
:102F2000436010BC70470F49816010BC7047C0F807
:102F30000CC010BC7047C0F810C010BC70470361D3
:102F400010BC7047C0F804C010BC7047426010BC91
:102F50007047426010BC70478461426010BC70478B
:102F60007000F030010101000100D14802D041158C
:102F7000FEF7E0B94FF40071FEF7DAB900B583B09F
:102F800001210420FEF759FB01208DF804000021E7
:102F90008DF806108DF80500400200906946C4487F
:102FA000FEF750F90020FFF7DFFF03B000BD00205F
:102FB000DFEDC00A20EE200ABDEEC00A10EE101AA6
:102FC00000290BDD00BF00BF00BF00BF00BF00BF76
:102FD00000BF00BF00BF401C8842F3DB704700B554
:102FE00083B001210846FEF728FB01208DF804007C
:102FF00000218DF806108DF8050008200090694624
:10300000AD48FEF71FF903B000BD002807D1AA485C
:1030100011B10821FEF78CB90821FEF78BB9704772
:1030200000220123A549042807D005280BD10B70E5
:103030004A708A7001210020E7E70A704B708A709D
:1030400000210846E1E7704770B52DED048B9FED38
:103050009C8AF6EE000AF0EE009AB7EE009A9948C4
:1030600090F84401DFED988A002805D09FED978AFB
:10307000DFED970AF0EE689A964C92480025217889
:1030800090F88A00092980F00F81DFE801F0051F20
:10309000375C789BB7DAF700D4ED010A30EE800A8E
:1030A00084ED010A0520FFF7BBFF84ED028A94ED51
:1030B000010AB4EEC80AF1EE10FA04DDC4ED018A8B
:1030C0002078401C2070BDEC048B70BDD4ED010A4B
:1030D00030EE800A84ED010A0420FFF7A1FF94ED91
:1030E000010AB4EEC80AF1EE10FAECDDC4ED018A73
:1030F0002078401C2070BDEC048B70BD94ED011A4B
:1031000031EE000A84ED010A7348007828B1C4ED5D
:10311000020A0520FFF784FF04E084ED028A042000
:10312000FFF77EFF94ED010AD4ED020AB4EEE00A47
:10313000F1EE10FADFDDC4ED018A2078401C20702A
:10314000BDEC048B70BDD4ED010A30EE800A84ED35
:10315000010A0420FFF764FF94ED020AD4ED010A8E
:1031600039EE400AB4EEE00AF1EE10FAE8D2C4ED0E
:10317000018A2078401C2070BDEC048B70BD94ED5A
:10318000011A31EE000A84ED010A28B1C4ED020AE9
:103190000520FFF745FF04E084ED028A0420FFF7D5
:1031A0003FFFD4ED010A94ED020AF4EEC00AF1EEFD
:1031B00010FAE1DDC4ED018A2078401C2070BDECDE
:1031C000048B70BDD4ED010A30EE800A84ED010A53
:1031D0000420FFF725FF94ED020AD4ED010A39EE31
:1031E000400AB4EEE00AF1EE10FAE8D2C4ED018A2A
:1031F0002078401C2070BDEC048B70BD94ED011A4A
:1032000031EE000A84ED010A28B1C4ED020A05205E
:10321000FFF706FF04E084ED028A0420FFF700FFB9
:1032200094ED010AD4ED020AB4EEE00AF1EE10FAD0
:10323000E1DDC4ED018A2078401C2070BDEC048BD8
:1032400070BDD4ED010A30EE800A84ED010A04203D
:10325000FFF7E6FE94ED020AD4ED010A39EE400ACA
:10326000B4EEE00AF1EE10FAE8D2C4ED018A20785B
:10327000401C2070BDEC048B70BDFFE7D4ED010A4B
:1032800030EE800A84ED010A0420FFF7C9FE94EDB8
:10329000010AB4EEE90AF1EE10FAEBDDC4ED018AA1
:1032A0002570BDEC048B70BD2570BDEC048B70BD2A
:1032B00000080240001B374A000002406500002061
:1032C000CDCCCC3DC8210020000000008988083DFD
:1032D000ABAA2A3E640000204801002000B585B05A
:1032E0006846FEF713F901984FF47A71B0FBF1F0DC
:1032F000C008401EB0F1807F09D24FF0E021486144
:10330000314AF020107000208861072008616FF0BA
:103310000400FDF7D8FE05B000BD2C4800687047DA
:10332000FBE70120FDF72DBE10B5441E05D34FF479
:103330007A70FFF7F6FF641EF9D210BD00B500EBFE
:103340004001234800EB810191ED000A81ED010A63
:10335000FFF7E3FF00EE100ADFED1E0AB8EE400AA9
:1033600080EE201A81ED001A91ED000AD1ED010ADC
:1033700030EE600A81ED020A91ED020A00BD00B54F
:1033800000221046FFF7DAFF501CC2B20F2AF8D312
:1033900000BD10B501210820FEF773F90E48802109
:1033A00001800021021D1180084A11600B4A491E4C
:1033B00011605321121F1180094A012111800188D7
:1033C00041F00101018010BD23ED00E0240C00401C
:1033D0007416002000247449000C00402C0C00409E
:1033E000140C00402DE9F0438FB00646169D179C43
:1033F0000F46904699462D48864204D901218805FA
:10340000FEF71BF903E001214805FEF716F93046E7
:10341000FEF7E2FE3046FFF713F80028FAD10097D6
:10342000CDF80480CDF8089040200390049500204A
:1034300005904FF4806106910790089009908901EA
:1034400034B1012C06D0022C06D0032C0BD107E09E
:103450000A9008E00A9106E04FF400320A9202E076
:103460004FF440320A920A910B9003210C910D9077
:103470000E9069463046FEF746FF0FB0BDE8F08378
:1034800070B504460D4600212046FEF789FF204610
:10349000FEF7D6FF0028FAD129462046FEF7A4FF02
:1034A0002046BDE870400121FEF77ABF006402406B
:1034B00070B5002401214020FEF7CBF80120FFF772
:1034C00080F842F2107504E0601C84B26420FDF7BD
:1034D00058FD0120FFF792F808B9AC42F4D3AC4292
:1034E00001D3012070BD002070BD10B50120FFF791
:1034F00085F80028FAD0BDE81040FFF76FB870B526
:1035000004460D46FFF7F1FF291B491CB0FBF1F201
:1035100001FB1200204470BD70B505460C4645F213
:103520005550FFF78BF82846FFF78BF82046FFF73A
:103530008BF8FFF78CF8BDE87040FFF78DB8FFF708
:1035400086B800000000000000687047FE4988420D
:1035500001D200207047FD49884201D208207047FF
:10356000FB49884201D210207047FA49884201D2B3
:1035700018207047F849884201D220207047F74947
:10358000884201D228207047F549884201D2302074
:103590007047F449884201D238207047F249884286
:1035A00001D240207047F149884201D2482070473B
:1035B000EF49884201D250207047582070472DE9CA
:1035C000F04104460F4616464FF00908B4F1006F6B
:1035D0003AD314F0030F37D1FEF7AAFB0020FEF711
:1035E0008EFB254604EB8606E2482C46854215D222
:1035F000B54213D22846FFF7A7FFB0F1FF3F0AD02C
:103600002846FFF7A3FF0221FEF7D7FB8046B8F15B
:10361000090F03D100E02D1DB542EBD3B8F1090F1E
:103620000BD1B44209D220463968FEF79AFC09282A
:1036300003D1241D3F1DB442F5D30120FEF75FFBEB
:10364000BDE8F041FEF77FBBBDE8F08110B5044650
:103650000023002A08D92046FFF776FF41F823000F
:10366000241D5B1C9342F6D310BD10EE100A20F00F
:103670000040C0F1FF40C00F002801D09FEDBE0AFE
:10368000704710B582B00446204607F02FFC019128
:1036900000900199009808B1012000E00020084343
:1036A00020F00040C0F17F6000F1E040C00F10B199
:1036B00002B0002010BD02B0204610BD00EE100A7E
:1036C000B8EEC00A10EE101A21F00041C1F1FF411E
:1036D000C90F002900D00020704710B4A74A5368D2
:1036E00003F1010CC2F804C0C15453684FEA212C05
:1036F0005C1C546000F803C053684FEA214C5C1C0A
:10370000546000F803C00B0E516801F1010CC2F8BF
:1037100004C0435410BC704710B410EE101A974AFE
:10372000536803F1010CC2F804C0C15453684FEA56
:10373000212C5C1C546000F803C053684FEA214CF4
:103740005C1C546000F803C00B0E516801F1010CC1
:10375000C2F804C0435410BC704700230A6800F14B
:10376000030C12F80CC043EA0C6300F1020C12F8CF
:103770000CC043EA0C4300F1010C12F80CC043EA00
:103780000C23805C1843121D0A6000EE100A6CE7DF
:1037900000230A6800F1030C12F80CC043EA0C6322
:1037A00000F1020C12F80CC043EA0C4300F1010CCA
:1037B00012F80CC043EA0C23805C1843121D0A6007
:1037C0007CE770B56D48002545600178491C0170A3
:1037D0006B4801686B48FFF780FF6B4C694894EDBC
:1037E000260AFFF799FF94ED770A6648FFF794FFE2
:1037F00094ED330A6348BDEEC00A10EE101AFFF7CD
:103800006CFF94ED840A5F48BDEEC00A10EE101AFA
:10381000FFF763FF5B48D4F80811FFF75EFF5948D4
:10382000D4F80411FFF759FF5648D4F80C11FFF7EC
:1038300054FF5448D4F84C12FFF74FFF5148D4F8C6
:103840004812FFF74AFF4F48D4F85012FFF745FFE0
:1038500094F820114B48FFF740FF94ED490A49487E
:10386000BDEEC00A10EE101AFFF737FF94ED4B0AB9
:103870004448FFF751FF94ED4E0A4248FFF74CFFD2
:1038800094ED4F0A3F48BDEEC00A10EE101AFFF744
:1038900024FF94ED4D0A3B48BDEEC00A10EE101A0D
:1038A000FFF71BFF394801683648FFF716FF384914
:1038B00042F21072087B10FB02F2487B897B00EB1E
:1038C000C00303EB001002EB800001442D48FFF71A
:1038D00004FF304C0120207441F28830FEF7B4FE22
:1038E000FFF72DFE5022A4F5FA712148FFF767FE7D
:1038F00025744FF47A70FEF7A7FEBDE87040FFF71D
:103900001EBE2DE9F04F2DED028B81B000260096F2
:10391000204C012525745022A4F57A711448FFF734
:1039200095FE26746946A4F57A70FFF731FF144FAF
:1039300038606946A4F57A70FFF70FFF124C84EDEA
:10394000260A6946144829E0004000080080000863
:1039500000C0000800000108000002080000040880
:10396000000006080000080800000A0800000C0813
:1039700000000E080000FF1F000000007000002083
:103980005C0100201C190020C821002060010020DB
:1039900050070020101B002028170020FFF7DDFE35
:1039A00084ED770A69469448FFF7F2FE00EE100AAC
:1039B000B8EEC00A84ED330A69468F48FFF7E8FE87
:1039C00000EE100AB8EEC00A84ED840A69468A48FF
:1039D000FFF7DEFEC4F8080169468748FFF7D8FE06
:1039E000C4F8040169468448FFF7D2FEC4F80C010C
:1039F00069468148FFF7CCFEC4F84C0269467E4810
:103A0000FFF7C6FEC4F8480269467B48FFF7C0FED0
:103A1000C4F8500269467848FFF7BAFE84F82001DE
:103A200069467548FFF7B4FE00EE100AB8EEC00A0A
:103A300084ED490A69467048FFF78FFE84ED4B0A12
:103A400069466D48FFF789FE84ED4E0A69466A486B
:103A5000FFF79EFE00EE100AB8EEC00A84ED4F0A92
:103A600069466548FFF794FE00EE100AB8EEC00AFA
:103A700084ED4D0A69466048FFF78AFEDFF87C81D5
:103A8000C8F80000D4F82C0107F05CFA9FED5C8BBD
:103A900053EC182B07F091F841EC100B53EC102B62
:103AA0009FED590B51EC100B07F0A0F907F08EFABF
:103AB000C4F82801D4F8380107F044FA53EC182B65
:103AC00007F07BF841EC180BD4F8340107F03AFA10
:103AD00053EC182B07F08AF907F078FAC4F8300194
:103AE000D4F83C0107F02EFA9FED491B53EC112B43
:103AF00007F063F841EC100B53EC102B9FED460BD5
:103B000051EC100B07F072F907F060FAC4F84001AD
:103B100069463948FFF73CFE42F2107190FBF1F123
:103B20003F4AC9B211736FF41C7311FB03F100EB30
:103B300001113C4880FB01304311A3EBE07050734E
:103B40006FF0180310FB03F001EB8000907304F595
:103B50008A70D4F830B190E80F10D4F82CA1D4F8C2
:103B6000289104F51674A4E80F10A4F51B7404F54D
:103B70009A70C4F874B2C4F870A2C4F86C920FC8FA
:103B800004F51E740FC4A4F522744FF0630994F871
:103B900020010A280DD9C8F80060C7F80090C4F8C1
:103BA0000451C4F80851C4F80C5184F82051FFF7AF
:103BB00008FE94F864020A280DD9C8F80060C7F816
:103BC0000090C4F84852C4F84C52C4F8505284F8DB
:103BD0006452FFF7F6FD94F82011002907D0002069
:103BE00001F09AFA94F86412012001F095FA01B0FC
:103BF000BDEC028BBDE8F08F28170020600100208B
:103C000048AFBC9AF2D77A3E000000000000F03FB7
:103C1000F168E388B5F8E43E0000000000807640DB
:103C2000500700201F85EB512DE9F04188B0074671
:103C300001211020FDF731FD01210846FDF7FDFCB3
:103C400025208DF80C0001258DF80D5000248DF8ED
:103C50000E408DF80F5003A8FDF7E9F9DFF86084F6
:103C6000072209214046FDF773FB07220A2140463F
:103C7000FDF76EFB6802009002268DF804608DF857
:103C800005608DF806408DF8075069464046FDF7FF
:103C9000D9FAA80200908DF804608DF805608DF8BF
:103CA00006508DF8074069464046FDF7CBFA049769
:103CB000ADF81440ADF81640ADF81840ADF81C4012
:103CC0000C20ADF81A00FF4C04A92046FDF766FE53
:103CD00001212046FDF7E9FE40212046FDF7BDFF0A
:103CE000012240F225512046FDF793FF0121204695
:103CF000FDF7DBFE08B0BDE8F0812DE9F04188B0AA
:103D0000074601214804FDF7BCFC01210846FDF7E8
:103D100094FC26208DF80C0001258DF80D508DF8AF
:103D20000E508DF80F5003A8FDF781F9DFF890834E
:103D3000072202214046FDF70BFB072203214046E4
:103D4000FDF706FB0420009002268DF804608DF834
:103D5000056000248DF806408DF8075069464046FE
:103D6000FDF770FA082000908DF804608DF805606A
:103D70008DF806508DF8074069464046FDF762FA17
:103D80000497ADF81440ADF81640ADF81840ADF802
:103D90001C400C20ADF81A00CB4C04A92046FDF7BE
:103DA000FDFD01212046FDF780FE40212046FDF764
:103DB00054FF012240F225512046FDF72AFF012140
:103DC0002046FDF772FE08B0BDE8F0812DE9F04114
:103DD00088B0074601218804FDF753FC0121022029
:103DE000FDF72BFC27208DF80C0001258DF80D50D8
:103DF00000248DF80E408DF80F5003A8FDF717F939
:103E0000DFF8C88207220A214046FDF7A1FA0722FF
:103E10000B214046FDF79CFAA802009002268DF87F
:103E200004608DF805608DF806408DF807506946EE
:103E30004046FDF707FAE80200908DF804608DF81F
:103E400005608DF806508DF8075069464046FDF72D
:103E5000F9F90497ADF81440ADF81640ADF81840E4
:103E6000ADF81C400C20ADF81A00994C04A920466E
:103E7000FDF794FD01212046FDF717FE4021204665
:103E8000FDF7EBFE012240F225512046FDF7C1FE71
:103E900001212046FDF709FE08B0BDE8F0812DE9BB
:103EA000F04188B007460121C804FDF7EAFB012173
:103EB0000420FDF7C2FB34208DF80C0002258DF89C
:103EC0000D5000248DF80E4001268DF80F6003A8D8
:103ED000FDF7ADF8DFF8FC8108220A214046FDF726
:103EE00037FA08220B214046FDF732FA68020090AB
:103EF0008DF804508DF805508DF806408DF8076058
:103F000069464046FDF79EF9A80200908DF80450DE
:103F10008DF805508DF806608DF8074069464046DB
:103F2000FDF790F90497ADF81440ADF81640ADF8E0
:103F30001840ADF81C400C20ADF81A00664C04A9DE
:103F40002046FDF72BFD01212046FDF7AEFD402167
:103F50002046FDF782FE012240F225512046FDF762
:103F600058FE01212046FDF7A0FD08B0BDE8F08114
:103F70002DE9F04188B0074601210805FDF781FBD6
:103F800001210420FDF759FB01210820FDF755FB15
:103F900035208DF80C0002258DF80D5001248DF888
:103FA0000E408DF80F4003A8FDF741F8DFF82C8193
:103FB000082202214046FDF7CBF9042600968DF831
:103FC00004508DF805508DF8064000248DF8074008
:103FD00069464046FDF736F90497ADF81440ADF850
:103FE0001640ADF81840ADF81C40ADF81A603C4CD6
:103FF00004A92046FDF7D2FC012240F225512046BB
:10400000FDF707FE01212046FDF74FFD08B0BDE892
:10401000F08170B505462E4C80212046FDF716FE36
:104020000028F9D029462046BDE87040FDF769BD5B
:1040300070B50546244C80212046FDF707FE002878
:10404000F9D029462046BDE87040FDF75ABD70B54D
:1040500005461F4C80212046FDF7F8FD0028F9D0C9
:1040600029462046BDE87040FDF74BBD70B50546BA
:10407000194C80212046FDF7E9FD0028F9D029469A
:104080002046BDE87040FDF73CBD16480178012987
:1040900001D00020704700210170012070472DE9F8
:1040A000F05F2DED048B0A48018811F0080F01D054
:1040B000011D098840F225510548FDF7D3FD13E0A5
:1040C0000000024000100140004400400004024093
:1040D0000048004000080240004C0040000C024034
:1040E0000050004078000020002800F0718140F26C
:1040F0002551FD48FDF7DAFDFC480088C1B2FC4BB4
:104100005A69501C5861FB4B99540024322801DD38
:10411000F7484461F84D012605F1F00C686958B183
:104120000222012810D0032305F12802022815D00D
:10413000032840F04D8129E0012940F049816E615A
:104140008CF8054000F044B90C2902D06C6100F0F5
:104150003FB96A618CF8054000F03AB9502902D0A5
:104160006C6100F035B96B610020131883F864406E
:10417000401CC0B21428F8D39CF80500431C10441E
:104180008CF8053080F8641000F022B99CF8050026
:10419000431CDBB210448CF8053080F864100B2B04
:1041A00040F2168192F86400D44991F865104840B5
:1041B000D24A92F866205040D04B93F8673058406E
:1041C000DFF838C39CF868C08CEA0000CB4E96F844
:1041D00069A08AEA000096F86AB08BEA000096F8B7
:1041E0006B607040C54F97F86C707840DFF80C83B7
:1041F00098F86D8088EA0000DFF8009399F86E90D7
:1042000089EA000EBD4890F86F0086457CD141EAEE
:10421000022000B200EE100AB948B8EEC08A80ED64
:10422000008A43EA0C2000B200EE100AB448B8EE4F
:10423000C00A80ED010A4AEA0B2000B206F045FEF2
:104240009FEDB19B53EC192B06F0D0FD06F0BEFE9E
:10425000DFF8BCA2CAF8000046EA072000B206F068
:1042600034FE53EC192B06F0C1FD06F0AFFECAF880
:10427000040048EA092000B206F027FE9FEDA61BC5
:1042800053EC112B06F0B2FD06F0A0FEAAF12C07AC
:10429000B861A34E86ED318A96ED500A68EE000AA9
:1042A00096ED490A80EE801A86ED111A07F124096D
:1042B00099ED001AC1EE000A10EE900A06F042FED7
:1042C0009FED999B53EC192B06F01EFD06F07EFE28
:1042D000F06496ED330A002038EE400ABDEEC00AC5
:1042E00010EE101A01F000F800EE100AB8EEC00A45
:1042F00086ED320ABDEEC00A304610EE101A01F00B
:104300001FF84FF0010800E061E086F88A80C6F8E7
:104310008C4097ED060A86ED3F0A96ED410ADAEDEC
:10432000000A3046B8EEC00A20EE200A01F011F96A
:1043300007F11C0096ED9A0AD0ED010A80EE808A02
:1043400086ED828A96EDA11A60EE810A80EE801ACF
:1043500086ED621A99ED011AC1EE000A10EE900A7C
:1043600006F0F0FD53EC192B06F0CEFC06F02EFE05
:10437000C6F8900196ED840A012038EE400ABDEEA1
:10438000C00A10EE101A00F0AFFF00EE100AB8EEEF
:10439000C00A86ED830ABDEEC00A06F5A27010EED3
:1043A000101A00F0CDFF86F8CE81C6F8D04197ED07
:1043B000060A86ED900A96ED920ADAED010A06F5F4
:1043C000A270B8EEC00A20EE200A01F0C2F86C61BB
:1043D00040F227714448FDF745FC002810D0444ABC
:1043E000534B5078411CC9B251701B5C3F4803804D
:1043F0009078814204D14F48018821F080010180EA
:10440000BDEC048BBDE8F09F70B54B4E308806F1D3
:10441000040410F0080F00D0208840F225513046E7
:10442000FDF720FC324D002845D040F225513046A2
:10443000FDF73CFC2088C1B26A7940480AB9AA2934
:1044400002D0012A04D005E001226A71017032E035
:10445000AF2902D0022A04D00AE002226A71417018
:1044600029E029B1F12903D203226A71817022E087
:104470004FF0000C032A08D1502906D204226A7199
:10448000C170A97185F807C015E0042A0FD1AB7976
:104490006BB15A1ED2B2AA71EB7903F1010C184428
:1044A00085F807C0017132B90520687103E0052A5B
:1044B0004AD085F805C040F227713046FDF7D2FB9F
:1044C00000280ED0E8781E4A411CC9B2E970105C81
:1044D00020802879814204D11A48018821F0800186
:1044E000018070BD0000000000480040044800400A
:1044F00078000020241B0020881B0020B01B002017
:10450000940000200000000000000000000059405E
:10451000A400002000000000000000000000244073
:10452000C8210020000000006666666666A64C4052
:104530000C1D00200C480040004400400C1F0020CF
:104540000C1E00200C44004085F805C0EA79104498
:104550000171B0E770B5FD4E308806F1040410F02B
:10456000080F00D0208840F225513046FDF77AFB35
:10457000F74D002845D040F225513046FDF796FB17
:104580002088C1B2AA7AF3480AB9AA2902D0012A1E
:1045900004D005E00122AA72017032E0AF2902D0F6
:1045A000022A04D00AE00222AA72417029E029B14D
:1045B000F12903D20322AA72817022E04FF0000C8D
:1045C000032A08D1322906D20422AA72C170E972E4
:1045D00085F80CC015E0042A0FD1EB7A6BB15A1E96
:1045E000D2B2EA722B7B03F1010C184485F80CC09F
:1045F000017132B90520A87203E0052A18D085F8A8
:104600000AC040F227713046FDF72CFB00280ED07F
:10461000287AD14A411CC9B22972105C2080687A7C
:10462000814204D1CD48018821F08001018070BD14
:1046300085F80AC02A7B10440171E2E770B5C84CC6
:10464000208804F1040510F0080F00D0288840F2FB
:1046500025512046FDF706FB28B140F225512046A2
:10466000FDF724FB288840F227712046FDF7FAFA6F
:1046700000280FD0B64ABB4B507B411CC9B25173C6
:10468000185C2880907B814204D1B748018821F0D2
:104690008001018070BD10B5B44C208810F0080F67
:1046A00000D0A08840F225512046FDF7DBFA002813
:1046B00005D040F225512046FDF7F8FAA08810BD3C
:1046C0007047A348002141820020A94A1154401C90
:1046D00080B2FA28FAD3704770B4002200290DD9AD
:1046E000DFF86CC2A24C865C9CF810305D1C8CF824
:1046F0001050E654521CD2B28A42F4D370BC7047B8
:10470000C1B2C0F307204840704710B50120FFF741
:1047100080FCBDE8104000207BE4F0B591B00021A2
:1047200001910291039104910591012206AE8DF849
:1047300018208DF8191070218DF81A1020218DF88D
:104740001B1030308DF81C008DF81D1030208DF8B6
:104750001E008DF81F108DF820000A273C468DF8AA
:10476000211010EE100A06F0EDFB41EC100B81A1B8
:1047700053EC102B01A806F0A7FDC1B200200029C0
:104780000BD901AA234612F800C0641CE4B206F853
:1047900003C0401CC0B28842F4D3601CC5B2375578
:1047A0000024002D06D9305DFFF733FC601CC4B235
:1047B000AC42F8D311B0F0BD10B50120FFF729FCD1
:1047C0000020FFF726FC6620FFF723FC2020FFF7E0
:1047D00020FC3020FFF71DFCBDE810400A2018E443
:1047E00070B504460120FFF714FC0020FFF711FC10
:1047F0004CB10024614D285DFFF70BFC601CC4B276
:104800002A2CF8D370BD00245D4D285DFFF701FC14
:10481000601CC4B22A2CF8D370BD70B504460120C8
:10482000FFF7F7FB0020FFF7F4FB4CB10024554DD8
:10483000285DFFF7EEFB601CC4B21D2CF8D370BDE1
:104840000024514D285DFFF7E4FB601CC4B21D2C11
:10485000F8D370BDF0B499B0064600220023002EB4
:1048600000DA4042494F6D4687FB004C4FEAAC04EA
:10487000A4EBEC7CCCF1000404EB840400EB4400DA
:104880003030A8546046521C0028EDDC002E05DABA
:1048900010464FF02D0C521C05F800C04FF0000CD4
:1048A00005F802C0501E002805DB2A5CCA545B1CB8
:1048B000401E0028F9DA01F803C019B0F0BC7047B7
:1048C00070B590B00021019102910391049105917E
:1048D000012206AE8DF818208DF8191063218DF88D
:1048E0001A1020218DF81B1030308DF81C00062482
:1048F0008DF81D1010EE100A06F024FB41EC100B91
:104900001CA153EC102B01A806F0DEFCC1B2002064
:1049100000290BD901AA234612F800C0641CE4B296
:1049200006F803C0401CC0B28842F4D30A20611CC0
:10493000CDB230550024002D06D9305DFFF769FB5C
:10494000601CC4B2AC42F8D310B070BD0048004047
:10495000780000205C1F00200C1E00200C48004046
:10496000004C00408E1F00200C4C004000500040C6
:104970008E200020252E336600000000D700002086
:10498000AC0000202001002002010020676666665E
:1049900010B5C1B2C0F307240846FFF73AFB204622
:1049A000BDE81040FFF735BB10B410EE100ADFF879
:1049B00000C49CF80F104A1CD2B2FE4B585404128B
:1049C000511CC9B29C5404144A1CD2B25C54010E4E
:1049D000501C8CF80F00995410BC70472DE9F04F13
:1049E0002DED108B81B0B0EE409AF0EE609AB0EEF3
:1049F00041CAF0EE61CAB0EE42DAF0EE62DAB0EE31
:104A000043EAF0EE63EA9FEDECFADFEDECFA9FED9E
:104A1000ECAB9FEDED8B9FEDEEBB19EE100A06F0AF
:104A200091FA53EC182B06F0E1F953EC1A2B06F02F
:104A30009DFA0BD319EE100A06F084FA53EC182BEA
:104A400006F0D4F953EC1B2B06F0A8FA19EE900AE5
:104A500006F078FA53EC182B06F0C8F953EC1A2B31
:104A600006F084FA0BD319EE900A06F06BFA53ECB9
:104A7000182B06F0BBF953EC1B2B06F08FFA29EE2E
:104A80000F0ABDEEC00A10EE100A04B22CEE0F0A97
:104A9000BDEEC00A10EE100A05B22DEE2F0ABDEED3
:104AA000C00A10EE100A0FFA80FB29EE8F0ABDEE45
:104AB000C00A10EE100A06B22CEE8F0ABDEEC00A34
:104AC00010EE100A07B22DEEAF0ABDEEC00A10EECE
:104AD000100A0FFA80F82EEE2F0ABDEEC00A10EE73
:104AE000100A0FFA80F92EEEAF0ABDEEC00A10EEE2
:104AF000100A0FFA80FAE0B280F07000C4F30721C8
:104B000080EA0100E9B281EA0000C5F3072180EAEA
:104B100001000BF0FF0181EA0000F1B281EA000020
:104B2000C6F3072180EA0100F9B281EA0000C7F369
:104B3000072180EA010008F0FF0181EA0000C8F3C4
:104B4000072180EA010009F0FF0181EA0000C9F3B2
:104B5000072180EA01000AF0FF0181EA0000CAF3A0
:104B6000072180EA010000904FF00100FFF751FAA1
:104B70001220FFF74EFA7020FFF74BFA2046FFF79E
:104B800007FF2846FFF704FF5846FFF701FF3046AE
:104B9000FFF7FEFE3846FFF7FBFE4046FFF7F8FE44
:104BA0004846FFF7F5FE5046FFF7F2FE009801B0C9
:104BB000BDEC108BBDE8F04FFFF72BBA2DE9F047A5
:104BC0002DED0E8BB0EE409AF0EE609AB0EE41CA39
:104BD000F0EE61CAB0EE42DAF0EE62DA9FED76EA0C
:104BE000DFED76EA9FED76AB9FED778B9FED78BB9F
:104BF00019EE100A06F0A6F953EC182B06F0F6F899
:104C000053EC1A2B06F0B2F90BD319EE100A06F08A
:104C100099F953EC182B06F0E9F853EC1B2B06F02E
:104C2000BDF919EE900A06F08DF953EC182B06F039
:104C3000DDF853EC1A2B06F099F90BD319EE900A14
:104C400006F080F953EC182B06F0D0F853EC1B2B30
:104C500006F0A4F929EE0E0ABDEEC00A10EE100A05
:104C600004B22CEE2E0ABDEEC00A10EE100A05B2F8
:104C70002CEEAE0ABDEEC00A10EE100A06B229EE06
:104C80008E0ABDEEC00A10EE100A07B22DEE2E0AF3
:104C9000BDEEC00A10EE100A0FFA80F82DEEAE0A33
:104CA000BDEEC00A10EE100A0FFA80F9E0B280F0F3
:104CB0004300C4F3072180EA0100E9B281EA000061
:104CC000C5F3072180EA0100F1B281EA0000C6F3D2
:104CD000072180EA0100F9B281EA0000C7F3072149
:104CE00080EA010008F0FF0181EA0000C8F3072113
:104CF00080EA010009F0FF0181EA0000C9F3072101
:104D000080EA010A4FF00100FFF783F90E20FFF758
:104D100080F95320FFF77DF92046FFF739FE28463A
:104D2000FFF736FE3046FFF733FE3846FFF730FE1A
:104D30004046FFF72DFE4846FFF72AFEBDEC0E8BDE
:104D40005046BDE8F047FFF764B970B52DED068B0E
:104D5000B0EE609A10EE100A1F4C9FED218B224D91
:104D60009FED23ABA04204D9B0EE481AF0EE681ACA
:104D70000EE010EE100AA84204DDB0EE4A1AF0EE82
:104D80006A1A05E010EE100A06F0DCF841EC110B8F
:104D900051EC110B06F01AF909EE900A19EE100AFF
:104DA000A04234D819EE100AA8422ADD24E00000FF
:104DB000780000208C1C002000007A440000C842CB
:104DC000A83DAE02822119C06666666666A64C40A2
:104DD000A83DAE0282211940000070C20000000010
:104DE0000000000000004EC0000070420000000003
:104DF0000000000000004E40B0EE4A8AF0EE6A8AE1
:104E000005E019EE100A06F09DF841EC180B51EC84
:104E1000180B06F0DBF800EE900A0024784E794D6E
:104E2000012028700A20687043210320F073A970C4
:104E3000B0EE690AFFF7B8FDB0EE600AFFF7B4FD07
:104E40000220F17B022905DD2A5C2244D4B2401CF9
:104E50008842F9DB481CC0B2F0736C54002400286F
:104E600006DD285DFFF7D5F8641CF07B8442F8DB93
:104E7000BDEC068B70BD70B52DED068BB0EE609A63
:104E800010EE100A604C1FED2A8B604D1FED28AB11
:104E9000A04204D9B0EE481AF0EE681A0EE010EE07
:104EA000100AA84204DDB0EE4A1AF0EE6A1A05E0D4
:104EB00010EE100A06F046F841EC110B51EC110B04
:104EC00006F084F809EE900A19EE100AA0420ED8F6
:104ED00019EE100AA84204DDB0EE4A8AF0EE6A8AA2
:104EE00005E019EE100A06F02DF841EC180B51EC14
:104EF000180B06F06BF800EE100A1FED501A69EE61
:104F0000810AFDEEE00A10EE900A04B220EE010ADA
:104F1000BDEEC00A10EE100A05B2E0B280F0430008
:104F2000C4F307214840E9B24840C5F3072180EAAD
:104F300001060120FFF76DF80620FFF76AF843200D
:104F4000FFF767F82046FFF723FD2846FFF720FD0F
:104F5000BDEC068B3046BDE87040FFF75AB82DE92E
:104F6000F0471FED6B1A20EE010ABDEEC00A10EEED
:104F7000100A04B20025002620EE810ABDEEC00A08
:104F800010EE100A07B2A846A9462046FFF7B8FB64
:104F900080F053022846FFF7B3FB42403046FFF74C
:104FA000AFFB42403846FFF7ABFB42404046FFF7BD
:104FB000A7FB42404846FFF7A3FB80EA020A012014
:104FC000FFF727F80E20FFF724F85320FFF721F80A
:104FD0002046FFF7DDFC2846FFF7DAFC3046FFF7F6
:104FE000D7FC3846FFF7D4FC4046FFF7D1FC4846D3
:104FF000FFF7CEFC5046BDE8F047FFF70AB80000C7
:10500000780000208C1C0020000070C2000070425C
:1050100010EE100AFD49DFEDFE0A884202DD30EE97
:10502000600A704710EE100AFA498842F9D930EE4A
:10503000200A7047B4EEC10AF1EE10FA02DDB0EEBC
:10504000410A7047B4EEE00AF1EE10FAF9D2B0EE80
:10505000600A70479FEDF01AB5EEC00AF1EE10FA43
:1050600009DD30EE600AB5EEC00AF1EE10FA01D2A9
:10507000B0EE410A704730EE200AB5EEC00AF1EEFC
:1050800010FAF7DDB0EE410A70470021E34B002231
:10509000DFEDE33ADFEDE30AB6EE004ADFEDE24A88
:1050A000B7EE000AF5EE001A9FEDE02ADFEDE02AE8
:1050B000B1EE083AB2EE041A01EB011000EB8110D8
:1050C00003EB800080F88810C0ED1D3AC0ED180A8F
:1050D00080ED194AC0ED1B4A80ED370A80ED3B0A8E
:1050E00080ED3C0A80ED3D0AC0ED031A80ED042AF4
:1050F00080ED060AC0ED072A80ED083A827080F83C
:10510000142180F8152180ED461A80ED470A481CCD
:10511000C1B20429D0D37047C04A00EB001303EB9F
:10512000801002EB8000012924D09FEDC20ADFED40
:10513000C20A02293BD003291BD19FEDC01A80ED82
:10514000491A9FEDBF1A80ED4A1A9FEDBE1A80EDF5
:105150004B1A9FEDBD1A80ED4C1A9FEDBC1A80EDE5
:105160004D1AB3EE041A80ED4E1A80ED4F0AC0EDD1
:10517000500A7047B0EE080A80ED490A9FEDB40A64
:1051800080ED4A0A9FEDB30A80ED4B0AB7EE000AA4
:1051900080ED4C0A80ED4D0A80ED4E0A9FEDAE0A7F
:1051A00080ED4F0A9FEDAD0A80ED500A70479FEDEC
:1051B000AC1A80ED491A9FEDAB1A80ED4A1A9FEDAB
:1051C000AA1A80ED4B1A9FEDA91A80ED4C1A9FED9B
:1051D000A81A80ED4D1AB2EE041A80ED4E1A80ED39
:1051E0004F0AC0ED500A70472DE9F05F2DED048B9A
:1051F000B0EE409A002700EB0011DFF820B201EB7F
:1052000080160BEB8604B84694F81511DFED829AF0
:10521000ABF140024FF0010902EB8005002904D0F8
:10522000012912D002295AD155E0E078012856D13F
:10523000C5ED009AC5ED049A84F815919BED0F0A0F
:1052400084ED0C0A84F8148149E095ED000A30EEF3
:10525000090A85ED000A0BF82690D4ED0C0A94EDAE
:105260003D1AD4ED461A41EE210AC4ED0C0A10EEA7
:10527000100A80494FF0020A884201DD84F815A126
:10528000D4F81C0105F05EFE41EC180BA06D05F092
:1052900059FE41EC100B06F050F853EC182B51EC72
:1052A000100B05F07BFE06D295ED040A30EE090ADC
:1052B00085ED040A01E0C5ED049A2869B0F17E5F2E
:1052C0000DDD84F815A14F4684F802900BF8268076
:1052D00084F8147103E0E07808B984F81581384641
:1052E000BDEC048BBDE8F09F00EB001202EB8010D8
:1052F0004A4A002902EB800090ED4F0A0ADA00EEDC
:10530000901AF8EEE00A30EE200ABDEEC00A10EE68
:10531000100A704700EE901AF8EEE00AB4EEE00AC8
:10532000F1EE10FA0AD200EE901AF8EEE00A30EE32
:10533000C00ABDEEC00A10EE100A7047084670475A
:1053400070B504460D4694F88800FDF7F7FFB0EEFF
:10535000401A84ED251AB4F8AE20A4F8B020A8B203
:10536000A4F8AE00811A00EE101AF6EE001AF8EE5C
:10537000C00A94ED4F0A60EE211AF4EEE10AF1EE54
:1053800010FA05DDD4F8B410491EC4F8B41011E0C9
:1053900000EE901AFEEE001AF8EEE00A60EE211A16
:1053A000F4EEE10AF1EE10FA04D2D4F8B410491C7C
:1053B000C4F8B41000EE900AD4ED2D1AB4F8B2007F
:1053C000F8EE600AF8EEE11A41EE800A00EE100AEB
:1053D000B8EE400A30EEC00ABDEEC00A10EE100A68
:1053E000C4F8B800D4F8C010D4ED500A411A00EE49
:1053F000101AD4ED491AB8EEC00A60EE200A80EE09
:10540000A10A84ED340A10EE101A35E0000034438E
:105410000000B443000034C300000000C821002095
:10542000666626406F12833A0AD7233C0000344256
:10543000CDCCCC3F000000460000343D2CA099416B
:10544000555555409A99993ECDCC4C440000804624
:10545000EB9B2442CB10C73C00007A45EC51B83D91
:10546000000010421CC7B140EC51383E00007A44A5
:1054700000401C4600002041FD4A914204DA10EE33
:10548000101AFC4A914201D3C4F8C000DFEDFA1AA9
:10549000D4F80C0140B1D4ED360A30EE600AFFF7C3
:1054A000B7FD84ED0F0A0BE0FFF7B2FD31EEC00A45
:1054B000D4ED360A30EE600AFFF7AAFD84ED0F0A3C
:1054C00094ED0F0AD4ED380A30EE600AFFF7A0FD24
:1054D000C0EE010AC4ED120A94ED0F0AD4ED260ABB
:1054E00030EE200AFFF794FD84ED100A94ED120AC5
:1054F000D4ED3C0AB7EE002A20EE201A72EE600AC4
:1055000094ED142A00EE821A84ED141AD4ED0F0AD9
:10551000C4ED380A84ED390AA07801280BD002289E
:1055200008D10020A070D4F80C0158B194ED340AD1
:1055300084ED360A70BD0220A07094ED310A84ED2E
:10554000330A70BD94ED340A31EEC00A84ED360A98
:1055500070BD80ED280AD0ED370A20EE200AD0ED8C
:10556000490A20EE200AD0ED4B0A20EE200A80EDF9
:10557000150AD0ED3D0AB7EE001A20EE200A71EEB2
:10558000600A90ED3A1A00EE810A80ED160A80ED6D
:105590003A0AD0ED1F0A30EEC00A80ED170A7047B4
:1055A00010B504462DED048BB4F8AE20A4F8B0205D
:1055B000087BCB7A40EA0320A4F8AE004B7B91F83D
:1055C0000EC04CEA0323A4F89C30CB7B91F810C0AA
:1055D0001B021BB243EA0C0300EE103AD4ED4E0A54
:1055E000B8EEC00A20EE200AD4ED4D0A80EE201A53
:1055F00084ED281A497C84F8AC10821A00EE102A37
:10560000B6EE001AD4F8B410F8EEC00A94ED4F0AC2
:1056100020EE011AF4EEC10AF1EE10FA03DD491E84
:10562000C4F8B4100FE000EE902ABEEE001AF8EEB7
:10563000E00A20EE011AF4EEC10AF1EE10FA02D2ED
:10564000491CC4F8B41000EE900A94ED2D1AB4F879
:10565000B200F8EE600AB8EEC11A41EE000A00EEA0
:10566000100AB8EE400A30EEC00ABDEEC00A10EED5
:10567000100AC4F8B800D4F8C010D4ED500A411A8A
:1056800000EE101A94ED491AB8EEC00A60EE200A36
:1056900080EE810A84ED340A10EE101A744A9142A9
:1056A00004DA10EE101A734A914201D3C4F8C00014
:1056B0009FED719AD4F80C0140B1D4ED360A30EE6A
:1056C000600AFFF7A5FC84ED0F0A0BE0FFF7A0FCD2
:1056D00039EE400AD4ED360A30EE600AFFF798FC46
:1056E00084ED0F0AD4ED499A19EE900A05F02AFCD0
:1056F00041EC180BB4F99C0005F0E7FB9FED601B33
:1057000053EC112B05F000FB9FED5F1B53EC112BAD
:1057100005F06CFB53EC182B05F068FB05F056FC0C
:1057200000EE100A84ED120AD4ED280A94ED371A1F
:1057300060EE810A94ED4B1A60EE810A20EEA91A00
:10574000D4ED3E0A00EE601A84ED151AD4ED0F0A6E
:10575000D4ED3B1AF7EE002A94ED382A60EEA10A48
:1057600072EEE11A41EE820AC4ED100A94ED3C2A71
:1057700060EE021A32EEC20A94ED392A40EE021AA5
:10578000C4ED141A94ED3D2A21EE020A32EEC21A3B
:1057900094ED3A2A01EE020A84ED160AC4ED380AA5
:1057A000C4ED391A84ED3A0AD4ED1F0A30EEC00A6E
:1057B00084ED170AA07800280CD00020A070D4F83F
:1057C0000C0150B194ED340AD4ED260A30EE600A93
:1057D00084ED360ABDEC048B10BD94ED340AD4ED93
:1057E000260A39EE400A30EE600A84ED360ABDEC36
:1057F000048B10BD2DE9F0412DED048BB0EE408AF5
:10580000012500EB0011DFF8888001EB801608EB22
:105810008604D4F80C01002800D1451E6079DFED24
:105820001D8A012807D0F3EE0E0A02283DD01A4F38
:10583000032853D0CBE094ED020A30EE080A84ED41
:10584000020AD4ED030AB0EE081A60EE810AB4EE43
:10585000E00AF1EE10FA40DD94ED050AD4ED040AF9
:1058600030EE200A84ED050AFFF7D2FB16E00000B7
:105870000000B4430000B4C3000034430000000043
:1058800000000000008076400000000000004E4054
:10589000C8210020000000004001002084ED050A1E
:1058A000C4ED028A84ED0C0A91E094ED031A94EDA4
:1058B000020A21EE081A01EE200A84ED020A05F020
:1058C00047FDD4ED040A20EE200A84ED050AFFF717
:1058D0009FFB84ED050A84ED0C0A78E094ED031A31
:1058E00094ED020A21EE081A01EE200A84ED020A64
:1058F00005F02EFDD4ED040A20EE200A84ED050A01
:10590000FFF786FB84ED050A84ED0C0AA06905F01B
:1059100019FB41EC190B94ED170ADFED5A0AFFF75A
:1059200099FB10EE100A05F00DFB41EC100B05F091
:1059300004FD53EC192B51EC100B05F02FFB33D267
:10594000E06905F0FFFA41EC190B94ED160ADFED62
:105950004E0AFFF77FFB10EE100A05F0F3FA41EC58
:10596000100B05F0EAFC53EC192B51EC100B05F071
:1059700015FB19D2206A05F0E5FA41EC190BE06D30
:1059800005F0E0FA41EC100B05F0D7FC53EC192BB5
:1059900051EC100B05F0EAFA06D297ED010A30EE51
:1059A000080A87ED010A01E0C7ED018A97ED010AB7
:1059B000D7ED000AB4EEE00AF1EE10FA07DD0020A0
:1059C0006071C7ED018A94ED0F0A84ED0C0A94ED25
:1059D0000C0AFFF71DFBD4ED100A30EE600AFFF74A
:1059E00017FBD4ED190AD4ED141A20EE200AD4EDD9
:1059F000180A20EE201A00EE105AB8EEC00A21EE66
:105A0000000A94ED0D1A31EE611AD4ED1B1A21EE45
:105A1000211A21EE201A00EE905AF8EEE00A01EE6B
:105A2000200A00EE905A94ED0E1AF8EEE00A01EE0C
:105A3000200A84ED1F0A94ED491AC0EE010A94ED84
:105A40004A0A20EE800AD4ED4C0A20EE200A84EDAA
:105A5000200A94ED1D1A21EE201A84ED1E1AF1EE93
:105A6000410AFFF7E7FA18F8260000EE900AF8EE70
:105A7000600A20EE200A84ED200ABDEC048BBDE80C
:105A8000F0817047CDCC4C3E9A99993F00000000C0
:105A90002DE9F04F8BB00746149E884691469A46F2
:105AA00001210220FBF7C9FD01214806FBF7E9FDB2
:105AB0004FF44070089002208DF8240000248DF8E7
:105AC000264003208DF8250001258DF82750DFF8AA
:105AD00040B408A95846FBF7B5FB092208215846EF
