:020000040800F2
:100000009869002069020008792C0008C9260008B8
:10001000B92B0008CD0A0008A7570008000000000F
:10002000000000000000000000000000C1320008D5
:1000300085230008000000007F02000881020008FC
:10004000830200088302000883020008830200087C
:10005000830200088302000883020008830200086C
:10006000830200088302000883020008830200085C
:10007000830200088302000883020008830200084C
:10008000830200088302000883020008830200083C
:10009000D10A0008830200088302000883020008D6
:1000A000830200088302000883020008830200081C
:1000B000830200088302000883020008830200080C
:1000C00083020008830200088302000883020008FC
:1000D00083020008193B0008153C0008113D000888
:1000E00083020008830200088302000883020008DC
:1000F00083020008830200088302000883020008CC
:1001000083020008830200088302000883020008BB
:100110007D3A0008E93A00088302000883020008DB
:10012000830200088302000883020008830200089B
:10013000830200088302000883020008830200088B
:10014000F10D00088302000883020008052D000855
:10015000830200088302000883020008830200086B
:10016000830200088302000883020008830200085B
:10017000830200088302000883020008830200084B
:10018000830200088302000800F002F800F05CF827
:100190000AA090E8000C82448344AAF10107DA45E2
:1001A00001D100F051F8AFF2090EBAE80F0013F0D8
:1001B000010F18BFFB1A43F00103184774950000A4
:1001C000949500000A444FF0000C10F8013B13F026
:1001D000070408BF10F8014B1D1108BF10F8015BA0
:1001E000641E05D010F8016B641E01F8016BF9D193
:1001F00013F0080F1EBF10F8014BAD1C0C1B09D1EA
:100200006D1E58BF01F801CBFAD505E014F8016B5B
:1002100001F8016B6D1EF9D59142D6D370470000ED
:100220000023002400250026103A28BF78C1FBD8FF
:10023000520728BF30C148BF0B6070471FB509F097
:100240005CFA1FBD10B510BD00F044F81146FFF771
:10025000F5FF07F0F9F900F062F803B4FFF7F2FFD9
:1002600003BC00F065F800000948804709480047D2
:10027000FEE7FEE7FEE7FEE7FEE7FEE7FEE7FEE756
:10028000FEE7FEE704480549054A064B70470000B3
:100290009D390008890100089863002098690020B2
:1002A000986500209865002070477047704710B52A
:1002B00000F008F8006810BD10B5044600F002F820
:1002C000046010BD00487047346300200048704748
:1002D000346300207546FFF7F9FFAE460500694616
:1002E000534620F00700854618B020B5FFF7CAFF37
:1002F000BDE820404FF000064FF000074FF0000827
:100300004FF0000B21F00701AC46ACE8C009ACE8A7
:10031000C009ACE8C009ACE8C0098D46704710B50B
:100320000446AFF300802046BDE81040FFF795BFBC
:1003300001491820ABBEFEE726000200704700000E
:100340002DE9F04F04462DED108B81B000220420E2
:10035000009000204B1E002B07DD14F800C0624403
:10036000D2B2401CC0B29842F7DB601810F8010C02
:10037000904231D12078AA282ED16078AF282BD195
:10038000A078FD4A9FEDFD0ADFF8F483002708F509
:10039000806102F50076522823D0532835D00125FC
:1003A00054284AD0F74BF84971284ED0992813D1D8
:1003B0001D6081ED020AA07852F82010491C42F815
:1003C00020103570776002F542704760057069460D
:1003D000204605F09FFE707201B0BDEC108BBDE8A9
:1003E000F08FD2F84801401CC2F8480188ED180A85
:1003F00081EDEF0A88F8637488F8647488ED110A57
:1004000088F8297786F82470E6E7D2F84C01401C7A
:10041000C2F84C0188ED180A81EDEF0A88F8637480
:1004200088F8647488ED110A88F8297786F82470B2
:100430000121042002F058F9CEE7D2F85001401C07
:10044000C2F8500188F82857C6E71D6081ED020AFE
:10045000CE480560CE4880ED000AA07852F8201002
:10046000491C42F820106946204605F053FE0B282F
:1004700001D1C84805606946204605F04BFEDFF80B
:1004800018939FEDC7FB9FEDC8EB9FEDC99B9FEDB8
:10049000CADB9FEDCBBB9FEDCC8B9FEDCDCBCE4E82
:1004A00000286AD086F84A71B7706946204605F080
:1004B00031FE86F84C0130716946204605F02AFE6F
:1004C000C9F800006946204605F024FEC3490860CB
:1004D0006946204605F01EFE86F84E01B071694659
:1004E000204606F0C5FC86ED4A0A6946204606F01D
:1004F000BFFC86ED4C0A6946204606F0B9FC86ED45
:100500004F0A6946204606F0B3FC86ED4E0A69465E
:10051000204606F0ADFC86ED500AD6F8300109F011
:100520007BF853EC1B2B08F003FB41EC100B51EC58
:10053000180B53EC102B08F0AFFB08F0C7FAC6F805
:100540002C01D6F83C0109F067F853EC1E2B08F09B
:10055000EFFA41EC1A0BD6F8380109F05DF853ECCC
:100560001A2B08F099FB53EC1F2B08F047FD0CD217
:10057000B0EE4F9AF0EE6F9A32E0C6F8D801C6F8A6
:10058000900086F84A51B5708FE7D6F83C0109F023
:1005900043F853EC1E2B08F0CBFA41EC1A0BD6F8BB
:1005A000380109F039F853EC1A2B08F075FB53ECBD
:1005B000192B08F005FF13D3D6F83C0109F02CF8ED
:1005C00053EC1E2B08F0B4FA41EC190BD6F83801A5
:1005D00009F022F853EC192B08F05EFB41EC190BE3
:1005E00051EC190B08F072FAC6F83401D6F8400144
:1005F00009F012F853EC1B2B08F09AFA41EC100B9F
:1006000051EC1C0B53EC102B08F046FB53EC1D2B4C
:1006100008F0F4FC04D2B0EE4D8AF0EE6D8A26E0CC
:10062000D6F8400108F0F8FF53EC1B2B08F080FAD5
:1006300041EC100B51EC1C0B53EC102B08F02CFB75
:1006400053EC182B08F0BCFE11D3D6F8400108F08B
:10065000E3FF53EC1B2B08F06BFA41EC100B51EC51
:100660001C0B53EC102B08F017FB41EC180B51EC52
:10067000180B08F02BFAC6F8440106F58C70D6F872
:1006800034E190E80F10D6F830B1D6F82CA1C6F8B6
:100690007CE206F51876A6E80F10A6F51D7606F59D
:1006A0009C70C6F878B2C6F874A20FC806F520761A
:1006B0000FC6A6F52476D9F800004FF0FF390028C0
:1006C00056D06946204605F025FD86F86C0296F85E
:1006D0004E0100284ED06946204606F0C9FB694607
:1006E000204606F0C5FB86ED7B0A6946204606F0EB
:1006F000BFFB86ED6F0A6946204605F00BFD022818
:1007000039D0C6F854526946204605F003FD022848
:1007100066D0C6F850526946204605F0FBFC012819
:100720007ED0C6F858526946204606F0A1FB86EDF9
:10073000780A6946204606F09BFB86ED6A0A694600
:10074000204605F0E7FC86F82401B07988B16946B7
:10075000204606F08DFB6946204606F089FB86EDB3
:10076000290A6946204606F083FB86ED1D0A38E01B
:100770007EE06DE05CE062E03053002000000000AD
:100780004C030020680100208C010020840100201F
:10079000880100208001002064010020000000008A
:1007A00000000000000000008DEDB5A0F7C6B03ECF
:1007B0000000000000408F40178016801680763FB2
:1007C00048AFBC9AF2D77A3E000000000000F03F2C
:1007D0000000000000807640D01D00206001002055
:1007E00030E06946204605F095FC022837D0C6F86F
:1007F0000C516946204605F08DFC022832D0C6F81F
:1008000008516946204605F085FC01282DD0C6F820
:1008100010516946204606F02BFB86ED260A00E0C3
:1008200013E06946204606F023FB86ED180A99E09E
:100830006946204606F01CFB86ED5E0A4FE7C6F8C7
:10084000549260E7C6F8509265E7C6F858726AE7B6
:100850006946204606F00CFB86ED0C0A7BE7C6F8DD
:100860000C91C6E7C6F80891CBE7C6F81071D0E73F
:100870006946204605F04EFC86F82401B079002830
:100880007AD06946204606F0F3FA6946204606F01B
:10089000EFFA86ED290A6946204606F0E9FA86ED68
:1008A0001D0A6946204605F035FC022874D0C6F8BA
:1008B0000C516946204605F02DFC022871D0C6F87F
:1008C00008516946204605F025FC01286CD0C6F881
:1008D00010516946204606F0CBFA86ED260A694695
:1008E000204606F0C5FA86ED180A6946204605F04E
:1008F00011FC86F86C0296F84E01E0B3694620467A
:1009000006F0B6FA6946204606F0B2FA86ED7B0A92
:100910006946204606F0ACFA86ED6F0A6946204625
:1009200005F0F8FB022849D0C6F854526946204623
:1009300005F0F0FB022844D0C6F850526946204624
:1009400005F0E8FB01283FD0C6F85852694620461A
:1009500006F08EFA86ED780A6946204606F088FA97
:1009600086ED6A0A96ED0C0A514810EE102A9FEDAA
:10097000511A514902E01AE007E00DE0DFED4F0A9D
:10098000824224D9B0EE410A27E06946204606F0AB
:100990006FFA86ED0C0A78E7C6F80C9189E700E05B
:1009A00002E0C6F808918CE7C6F8107191E7694635
:1009B000204606F05DFA86ED5E0AA3E7C6F854927B
:1009C000B4E7C6F85092B9E7C6F85872BEE710EE21
:1009D000102A8A4201DDB0EE600A86ED0C0A96ED1F
:1009E0005E0A9FED378B10EE102A0227824202D951
:1009F000B0EE410A05E010EE100A884201DDB0EECB
:100A0000600A86ED5E0A6946204606F0CAFDC8F80F
:100A10001C0042F2107190FBF1F1C9B288F80C1081
:100A20006FF41C7211FB02F2274B00EB021283FBE6
:100A300002325311A3EBE27288F80D20F02311FB70
:100A400003F16FF0180312FB03F201EB820108447B
:100A500088F80E0006F044FAD6F8EC0108F0DCFD48
:100A600041EC100B05F0ADF853EC182B51EC100BCA
:100A700008F0A6FC02D2C6F8D87101E0C6F8D85139
:100A8000D6F8A40008F0C8FD41EC100B05F099F869
:100A900053EC182B51EC100B08F092FC02D2C6F864
:100AA000907099E4C6F8905096E4000000000000B1
:100AB000000032C3000032C3000032430000324362
:100AC0009A9999999999A93F1F85EB51FEE70000E2
:100AD00000B585B06A4600211D4800F083FE9DF8F0
:100AE0000800002831D19DF80A0008282DD100986F
:100AF000A0F50070042828D89DF810009DF80F106C
:100B000040EA0122134802809DF80E009DF80D1066
:100B100040EA0120104908809DF80C109DF80B3028
:100B200041EA03210D4B19809B1F58819981DA817D
:100B30000098A0F2012000EBC00101EB4010084931
:100B400001EBC000694606F087FA05B000BD000061
:100B50000064004054010020500100205201002098
:100B6000D01D00202DE9F04706462DED028B8AB0FE
:100B70000F469046B0EE408A99460121022002F0CD
:100B8000C7F80121480602F0DFF80121880602F0CB
:100B9000DBF86020089002208DF8240000248DF8F6
:100BA000264003208DF8250001258DF82750DFF819
:100BB00034A208A9504601F0ABFC09220521504699
:100BC00001F0F1FC09220621504601F0ECFC8DF801
:100BD0001A408DF81B508DF81C508DF81D408DF873
:100BE0001E408DF81F408DF816908DF817608DF817
:100BF00018808DF81970BCEEC80A10EE100AADF816
:100C00001400DFF8E48105A9404600F062FD0E20E3
:100C10008DF80E008DF80F408DF81050734E7069EE
:100C20007830410BADF80410042747EAC000ADF856
:100C30000600ADF80840ADF80A40ADF80C408DF85C
:100C4000115001A800F0BEFC0F208DF80E008DF8A9
:100C50000F408DF81050706900F1C801480BADF8D5
:100C6000040047EAC100ADF80600ADF80840ADF851
:100C70000A40ADF80C408DF8115001A800F0A2FC1C
:100C800010208DF80E008DF80F408DF8105070690F
:100C900000F18C01480BADF8040047EAC100ADF843
:100CA0000600ADF80840ADF80A40ADF80C408DF8EC
:100CB000115001A800F086FC11208DF80E008DF86F
:100CC0000F408DF81050706900F1A001480BADF88D
:100CD000040047EAC100ADF80600ADF80840ADF8E1
:100CE0000A40ADF80C408DF8115001A800F06AFCE4
:100CF00012208DF80E008DF80F408DF8105070699D
:100D0000B430410BADF8041047EAC000ADF806005E
:100D1000ADF80840ADF80A40ADF80C408DF8115020
:100D200001A800F04FFC13208DF80E008DF80F4045
:100D30008DF810507069410BADF8041047EAC000FF
:100D4000ADF80600ADF80840ADF80A40ADF80C402B
:100D50008DF8115001A800F035FC14208DF80E001C
:100D60008DF80F408DF8105070691430410BADF8BC
:100D7000041047EAC000ADF80600ADF80840ADF831
:100D80000A40ADF80C408DF8115001A800F01AFC93
:100D900001220221404600F091FC40208DF8000025
:100DA0008DF801508DF802508DF80350684601F01F
:100DB00065FF0022E903404600F080FC0122022189
:100DC000404600F07BFC0221404600F0A7FB0121D9
:100DD000404600F0A3FB0AB00020BDEC028BBDE84A
:100DE000F087000000040240006800404C01002031
:100DF0002DE9F04F2DED088B85B000256A460021C6
:100E0000DFF8F4B3584600F0EDFC9FEDFC0ADFF884
:100E1000F09389ED090A002609F12C0466556D1C32
:100E2000082DFBDB00209DF80A10002906DD6A462C
:100E30001318DB7A2354401C8142F9DC0098C9F86E
:100E4000200019B1082912D000F050BBB0F5C87FBE
:100E500005D0A0F58070913840F0488303E005F09C
:100E600067FD00F043BB05F06FFE00F03FBBD9F813
:100E70001420DFF8908302F178030121DFF888A3C2
:100E80009FEDE39BE44D08F12807984202D1D9F881
:100E90001C30EBB302F1C8039FEDE18B984203D104
:100EA000D9F81C30002B7AD002F18C03984240F024
:100EB000C18185F848612E7089F8011089F8001009
:100EC000C9F810609FEDD88BD9F81800002800F001
:100ED000568120786178000200B2084308F063F878
:100EE00053EC182B07F0D8FE07F0F0FDC5F8EC0125
:100EF000A078E178000200B2084308F054F853ECFF
:100F0000182B07F0C9FE07F0E1FDC5F8A40000E0CA
:100F100001E000F052B985F848612E7089F801109F
:100F200089F80010C9F810600A2001F051FB88ED23
:100F3000000A10EE100A504502DD3868401C386087
:100F4000386880F308003860B868401CB8600A2828
:100F500003DDBE607868401C7860786880F3080024
:100F60007860D9F8180000B320786178000200B2E8
:100F7000084308F018F853EC192B07F08DFE07F022
:100F8000A5FDC5F8F001A078E178000200B20843A1
:100F900008F009F853EC192B07F07EFE00E041E061
:100FA00007F094FDC5F8A8001DE0207861780002E4
:100FB00000B2084307F0F7FF53EC192B07F06CFE63
:100FC00007F084FDC5F8A800A078E178000200B21F
:100FD000084307F0E8FF53EC192B07F05DFE07F01C
:100FE00075FDC5F8F00120793C2800D93C2000EEC1
:100FF000100AB8EE400A85ED6F0A85ED1D0A60798A
:1010000085F849016870A07985F84C012871E0796C
:1010100085F84D016871D9F82800401CC9F82800EE
:1010200000F064BA042085F84801287089F801109E
:1010300089F80010C9F810609FED7D0A85ED180A47
:1010400085ED6A0A0A2001F0C3FA88ED000A10EE65
:10105000100A504502DD3868401C3860386880F35B
:1010600008003860B868401CB8600A2803DDBE601C
:101070007868401C7860786880F308007860D9F858
:101080001800D0B320786178000200B2084307F05E
:101090008AFF53EC182B07F0FFFD07F017FDC5F88A
:1010A0007801A078E178000200B2084307F07BFFE6
:1010B00053EC192B07F0F0FD07F008FDC5F880018F
:1010C00020796179000200B2084307F06CFF53EC0D
:1010D000182B07F0E1FD07F0F9FC2863A079E1790E
:1010E000000200B2084307F05EFF53EC192B07F033
:1010F000D3FD07F0EBFCA8633AE0FFE720786178C6
:10110000000200B2084307F04EFF53EC182B07F023
:10111000C3FD07F0DBFC2863A078E178000200B291
:10112000084307F040FF53EC192B07F0B5FD07F01B
:10113000CDFCA86320796179000200B2084307F072
:1011400032FF53EC182B07F0A7FD07F0BFFCC5F8E2
:101150007801A079E179000200B2084307F023FF8B
:1011600053EC192B07F098FD07F0B0FCC5F880018F
:10117000D9F82800401CC9F8280000F0B7B9207839
:101180006178000200B2084307F00DFF53EC182B02
:1011900007F082FD07F09AFCC5F8A400A078E1787A
:1011A000000200B2084307F0FEFE53EC182B07F0D4
:1011B00073FD07F08BFCC5F8EC0120793C2800D9C1
:1011C0003C2000EE100AB8EE400A85ED6F0A85ED6E
:1011D0001D0A607985F849016870A07985F84C018D
:1011E0002871E07985F84D016871D9F82800401C14
:1011F000C9F8280000F07AB900680040000000003B
:101200004C010020E0230020BC74133B00000000D0
:101210000000000000407F40D01D002000000000C2
:10122000000000000000494000000000000059409C
:101230000AD7233C904269D189F8011089F800103F
:10124000C9F810600B2001F0C3F988ED010AD9F844
:101250001800F0B120786178000200B2084307F06E
:10126000A2FE53EC182B07F017FD07F02FFCC5F872
:10127000E001A078E178000200B2084307F093FE95
:1012800053EC182B07F008FD07F020FCC5F8980078
:101290001DE020786178000200B2084307F083FE69
:1012A00053EC182B07F0F8FC07F010FCC5F8980079
:1012B000A078E178000200B2084307F074FE53EC16
:1012C000182B07F0E9FC07F001FCC5F8E0012079D4
:1012D0003C2800D93C2000EE100AB8EE400A85ED0B
:1012E0006F0A85ED1D0A607985F849016870A0795B
:1012F00085F84C012871E07985F84D016871D9F8BD
:101300002800401CC9F8280000F0F0B802F11403CE
:101310009FED7DAB9FED7EBB98427BD189F801109C
:1013200089F80010C9F810600C2001F051F988ED1F
:10133000020A20786178000200B2084307F033FE09
:1013400053EC192B07F0A8FC07F0C0FBC5F83001DF
:10135000C5F87802A078E178000200B2084307F0EF
:1013600022FE53EC1A2B07F097FC07F0AFFBC5F8F1
:10137000AC01686620796179000200B2084307F089
:1013800012FE53EC1B2B07F087FC07F09FFBC5F800
:10139000B401E866E079DFF880C100EBC00101EB41
:1013A0004011090BACFB0132D208524202EB82021F
:1013B00001EB4202CD2110FB01F1C90AACFB016334
:1013C000DB085B4203EB830301EB4301ACFB00C38F
:1013D000DB085B4203EB830300EB4303A0793C286B
:1013E00000D93C2000EE100AB8EE400A85ED6F0AE5
:1013F00085ED1D0A85F849216A7085F84C1129711F
:1014000085F84D316B71D9F82800401CC9F82800C7
:101410006CE0FFE7A032904268D1022085F84801D5
:10142000287089F8011089F80010C9F81060D9F8FF
:101430001800E8B120786178000200B2084307F094
:10144000B2FD53EC182B07F027FC07F03FFBC5F863
:101450007801A078E178000200B2084307F0A3FD0C
:1014600053EC182B07F018FC07F030FB28631CE046
:1014700020786178000200B2084307F094FD53EC35
:10148000182B07F009FC07F021FB2863A078E1780E
:10149000000200B2084307F086FD53EC182B07F05A
:1014A000FBFB07F013FBC5F8780120796179000296
:1014B00000B2084307F077FD53EC1A2B07F0ECFB62
:1014C00007F004FB6866A079E179000200B20843E6
:1014D00007F069FD53EC1B2B07F0DEFB07F0F6FA73
:1014E000E866D9F82800401CC9F8280002215846AF
:1014F00000F014F80121584600F010F805B0BDECDA
:10150000088BBDE8F08F00000000000000408F4015
:10151000000000000088C340CDCCCCCC10B4102318
:1015200004224FF0080CB1F5007F3FD013DC2029D6
:1015300031D008DC012926D0042928D0082900D17F
:10154000C36010BC7047402929D0B1F5807FF8D125
:10155000426010BC70470024B1F5004F2CD009DC6C
:10156000B1F5806F25D0B1F5006FF2D18461426092
:1015700010BC7047B1F5803F14D0B1F5003FF7D1F2
:10158000436010BC70470E49816010BC7047C0F8C2
:101590000CC010BC7047C0F810C010BC704703618D
:1015A00010BC7047C0F804C010BC7047426010BC4B
:1015B0007047426010BC70478461426010BC704745
:1015C0000101010030B4827A01219140364B1A6842
:1015D00042F001021A60DFF8D4C0DCF800208A4330
:1015E000CCF80020047B324A002C1AD114688C43BA
:1015F00014604488C58844EA0544857AED0005F105
:10160000804505F5C045C5F840460588848845EA0B
:101610000445847AE40004F1804404F5C044C4F82D
:101620004456047B012C1AD114680C431460428880
:10163000048842EA0442847AE40004F1804404F518
:10164000C044C4F84026C288848842EA0442847AAE
:10165000E40004F1804404F5C044C4F84426C47A8C
:10166000144A34B114680C4314600489124A24B13A
:1016700006E014688C431460F7E714688C43146028
:101680000489012C02D114680C431460407B0128AA
:1016900004D1DCF800000843CCF80000186820F002
:1016A0000100186030BC7047006600401C660040B6
:1016B0000C6600400466004014660040002A03D017
:1016C0004269114341617047426922EA0101416167
:1016D00070470022036823F002030360036843F0AD
:1016E000010303604FF6FF7300E0521CD0F804C002
:1016F0001CF0010F01D19A42F7D1426812F0010F9C
:1017000041D08A79012A40D0026822F0800202602A
:10171000CA79012A3ED0026822F0400202600A7AA9
:10172000012A3CD0026822F0200202604A7A012A93
:101730003AD0026822F0100202608A7A012A38D078
:10174000026822F008020260CA7A012A36D00268D2
:1017500022F0040202608A7891F803C0920742EAFC
:101760000C6291F804C042EA0C4291F805C0098865
:1017700042EA0C52491E1143C161016821F0010186
:101780000160002120E000207047026842F08002E2
:101790000260BDE7026842F040020260BFE70268F3
:1017A00042F020020260C1E7026842F010020260CB
:1017B000C3E7026842F008020260C5E7026842F02F
:1017C00004020260C7E7491C426812F0010F01D011
:1017D0009942F8D1406810F0010F01D00020704705
:1017E0000120704700EB0113D3F8B0C10CF0040CDA
:1017F00082F808C0BCF1000F47D0D3F8B0C14FEA5F
:10180000DC0CC2F804C0D3F8B0C10CF0020C82F8B2
:1018100009C0D3F8B4C10CF00F0C82F80AC0D3F899
:10182000B4C14FEA1C2C82F813C0D3F8B8C182F8B7
:101830000BC0D3F8B8C14FEA1C2C82F80CC0D3F807
:10184000B8C14FEA1C4C82F80DC0D3F8B8C14FEABA
:101850001C6C82F80EC0D3F8BCC182F80FC0D3F85C
:10186000BCC14FEA1C2C82F810C0D3F8BCC14FEAAF
:101870001C4C82F811C0D3F8BC311B0E937459B1C3
:10188000016941F0200101617047D3F8B0C14FEA0E
:101890005C5CC2F800C0B6E7C16841F02001C160DD
:1018A000704710B402460020936813F0806F0CD18B
:1018B000906810F0006F01D0012006E0906810F0F1
:1018C000805F01D0022000E0042004284FD002EB0A
:1018D0000012D2F8803103F00103C2F880310B7A94
:1018E000E3B3D2F880C14C684CEA030391F809C015
:1018F0004CEAC40C43EA0C03C2F880318B7A03F043
:101900000F038B72D2F8843123F00F03C2F88431B5
:10191000D2F8843191F80AC043EA0C03C2F884314A
:10192000CB7A91F80EC00C7B43EA0C6391F80DC0A2
:101930004FEA0C4C4CEA042C43EA0C03C2F8883101
:10194000CB7B91F812C043EA0C6391F811C0097C7B
:101950004FEA0C4C4CEA0121194300E009E0C2F8BF
:101960008C11D2F8801141F00101C2F8801110BC35
:101970007047D2F8803191F809C043EA0C03B1F8FE
:1019800000C043EA4C53C2F88031B7E70022002977
:1019900004D0012907D002290ED109E080681B4933
:1019A00000EA010208E08068194900EA010203E048
:1019B0008068184900EA01021749501A8A421AD071
:1019C00007DCA2B16FF08060101812D002280BD192
:1019D00015E0B0F5007F14D0A0F10060B0F57F40B5
:1019E0000BD0B0F5003F0ED00020C0B270470220EF
:1019F000FBE70020F9E70020F7E70020F5E70120EA
:101A0000F3E70120F1E70120EFE700000300000405
:101A100000030008000003100001000810B50B4689
:101A200003F07F0202EB820113F0800F00EBC10193
:101A300002D001F58E7101E001F55D710A70C3F30A
:101A4000C0124A7003F030FC002010BD10B50A46E9
:101A500012F0800F02F07F0306D003EB830100EB4E
:101A6000C10101F58E7105E002EB820100EBC101BD
:101A700001F55D714FF0000C81F802C00B70C2F3EC
:101A8000C0124A7003F0EFFB002010BD70B50C4689
:101A900004F07F0C0CEB8C0114F0800F00EBC10103
:101AA00002D001F58E7101E001F55D7181F800C091
:101AB000C4F3C0144C708A60CB700CB1A1F806C09E
:101AC000022B01D100220A7103F098FB002070BDA7
:101AD00010B501F07F0C0CEB8C0100EBC10101F59E
:101AE0005D71CA604B6100238B614B7081F800C04F
:101AF000C378012B00D10A610A781AB103F017FCF0
:101B0000002010BD03F0C7FAFAE7002261F30A12C1
:101B10000069016811430160704710B50A4612F070
:101B2000800F02F07F0306D003EB830100EBC101BD
:101B300001F58E7105E002EB820100EBC10101F5B8
:101B40005D714FF0010C81F802C00B70C2F3C0123E
:101B50004A7003F0C9FB002010BD10B501F07F0CE6
:101B60000CEB8C0100EBC10101F58E7101244C706E
:101B700081F800C0CA600A6100228A614B61BCF131
:101B8000000F03D003F0D3FB002010BD03F083FA55
:101B9000FAE738B50446204603F056FAE068C16813
:101BA00021F470550095C560204603F005FD0146FF
:101BB0000020032911D00120A0704020A08025F42E
:101BC000705000F5A0500090E1680098C8604FF494
:101BD0000050E1684861012038BDA0704FF40070EA
:101BE000A08025F4705000F510500090ECE7000044
:101BF0002DE9F84F0546002400200090284603F008
:101C00000DFD0646300068D001274FF008084FF060
:101C100010094FF0400A4FF0020B16F0010F58D098
:101C2000E1B2284600F038FA009010F0010F1CD005
:101C300007FA04F12869426B22EA01014163009727
:101C400005EB8400806987602548E1B2006842683E
:101C500028469047E878012807D134B995F8110152
:101C6000042802D1284603F0ABFA009810F0080FC0
:101C700006D0CDF8008005EB84008069C0F80880AC
:101C8000009810F0100F06D0CDF8009005EB8400FE
:101C90008069C0F80890009810F0400F06D0CDF889
:101CA00000A005EB84008069C0F808A0009810F03F
:101CB000020F06D0CDF800B005EB84008069C0F8B3
:101CC00008B0009810F0800F03D02146284600F09D
:101CD000F1F9641C7608002E9FD10120BDE8F88F31
:101CE000EC0100202DE9F04782B0054600240020D9
:101CF0000190284603F098FC0646300057D02E4F3E
:101D00004FF001084FF002094FF0080A16F0010FDA
:101D100049D0E1B2284603F08DFC019010F0010F8C
:101D200027D0CDF8048005EB8400416DC1F8088010
:101D3000E97801290DD1406D0069009004EB840120
:101D400005EBC101C0F31200D1F87C23101AC1F8D1
:101D50008C033868E1B2026828469047E878012889
:101D600007D134B995F81101052802D1284603F0AE
:101D700027FA019810F0020F06D0CDF8049005EB79
:101D80008400406DC0F80890019810F0080F0AD048
:101D90003868816828468847CDF804A005EB8400A0
:101DA000406DC0F808A0641C7608002EAED102B0C9
:101DB0000120BDE8F0870000EC01002038B50446A2
:101DC000A07A002808D0D4F80C01016821F00201A3
:101DD00021F00101009101602069416821F00101B9
:101DE0004160054800688169204688474FF00040FF
:101DF000E1684861012038BDEC01002070B582B077
:101E0000054610200190E868816921F01001816188
:101E1000E868006A009000F00F0101EB810105EB1A
:101E2000C10101F55D74C0F34341072923D2DFE806
:101E300001F0222204222222160047F6F071084205
:101E400019D0C0F30A1632462846E16803F0FAFBBF
:101E5000E0683044E060A0693044A0610BE00822F3
:101E600005F2CC51284603F0EDFB0099A069C1F3BF
:101E70000A110844A061E868816941F0100181619C
:101E800002B0012070BD000010B504460449204690
:101E90000968C96888470821E0684161012010BDD0
:101EA000EC01002010B584B004460020009094F8A6
:101EB0001201009017480068416920468847206950
:101EC000806801904FF400610391E2685161A17A4A
:101ED000E9B110F0010F1AD094F81501012816D1BC
:101EE0009DF80000032812D1D4F80C01016841F0DC
:101EF0000101016003200290D4F80C01016841F057
:101F0000030101600448016841F00601016004B06A
:101F1000012010BDEC01002010ED00E070B586B08E
:101F20000446002505950495039502950095012624
:101F300001962069416821F001014160002120469D
:101F400003F014FB0020617800290AD9FF2204EB7A
:101F500080018B699A60496D8A60401C617881427A
:101F6000F5D821694FF0FF308861ADF81460ADF805
:101F7000166021690598C86145F0080040F001002D
:101F800040F002002169486145F0010040F008007E
:101F900040F00200216908612069016821F4FE61B6
:101FA0000160204603F00CF94FF48050E16848616D
:101FB0000348006801692046884706B0012070BDCB
:101FC000EC01002010B50446204603F04DFB4FF015
:101FD000010C84F812C1002084F8140100226178F9
:101FE0004023002911D902EB820104EBC10101F564
:101FF0008E7181F801C00A70CA80C8708B60C86099
:102000004861521C61789142EDD800226178002924
:1020100010D902EB820104EBC10101F55D7148703A
:102020000A70CA80C8708B60C8604861521C6178B1
:102030009142EED8204602F0FFFF204602F0CFFE8C
:102040000021204603F07AFB204602F01CFF2046C8
:10205000BDE8104003F060BA10B5044605492046BB
:102060000968C96988474FF48011E068416101201F
:1020700010BD0000EC01002010B5044605492046C3
:102080000968096A88474FF40011E068416101203E
:1020900010BD0000EC01002002691369526BCA40B8
:1020A00002F0010243EAC21200EB810080698068FD
:1020B000104070472DE9F84F06460F46002000906B
:1020C00007EB870006EBC00000F58E74A16960691C
:1020D000401AA168814200D20846C01C4FEA900A0B
:1020E00006EB8708D8F81800806900904FF00109C6
:1020F00022E0151AA268AA4200D21546E81C4FEA4F
:10210000900AABB2FAB23046E16803F032FBE06805
:102110002844E060A0692844A061D8F818108969B3
:1021200000916169814207D1207809FA00F1306994
:10213000426B22EA01014163009880B2504505D903
:102140006269A069904201D2002AD2D10120BDE883
:10215000F88F002904D0016841F001010160704747
:10216000016821F001010160704700002DE9F003D2
:10217000016821F00101016000210160416081607E
:10218000C160016121214161444A45494FF03D0848
:10219000904204D1C1F80880BDE8F0037047414A7D
:1021A0004FF47464904203D18C60BDE8F003704733
:1021B0003D4A4FF47415904203D18D60BDE8F003A1
:1021C00070473A4A4FF07466904203D18E60BDE882
:1021D000F0037047364B374A984203D1CA60BDE8D6
:1021E000F0037047DFF8D0C0344B604503D1CB60BB
:1021F000BDE8F0037047324FDFF8C8C0B84204D1E1
:10220000C1F80CC0BDE8F0037047DFF8BC904FF098
:102210003D57484503D1CF60BDE8F0037047DFF874
:10222000AC902B49484504D1C1F80080BDE8F003CB
:102230007047DFF8A080404503D10C60BDE8F00393
:102240007047254CA04203D10D60BDE8F0037047F4
:10225000224CA04203D10E60BDE8F0037047204C31
:102260002049A04203D10A60BDE8F00370471E4A2E
:10227000904203D10B60BDE8F00370471B4A9042C7
:1022800004D1C1F800C0BDE8F0037047184A90427D
:10229000F9D10F60BDE8F003704700001060024004
:1022A00000600240286002404060024058600240E6
:1022B000706002403D00002088600240400F002016
:1022C000A060024000003D20B8600240106402405F
:1022D000086402402864024040640240586402409E
:1022E000706402400C64024088640240A0640240B2
:1022F000B864024001460020096811F0010F00D0C7
:102300000120704710B402681C4B1A40D1F80CC071
:102310000B688C6943EA0C03D1F814C04CEA040C36
:1023200043EA0C03D1F81CC043EA0C03D1F820C0E7
:1023300043EA0C03D1F824C043EA0C03D1F828C0C7
:1023400043EA0C03D1F834C043EA0C03D1F838C097
:1023500043EA0C031A430260426922F00702D1F8F3
:1023600030C0CB6A43EA0C031A4342610A694260F7
:102370004A6882608968C16010BC70473F801CF069
:1023800041607047704710B5441E05D34FF47A7012
:1023900000F003F8641EF9D210BD012004F062BA07
:1023A0000649002804D0086840F48060086070473F
:1023B000086820F48060086070470000003C02401C
:1023C00070B506460025002905D0012927D002292D
:1023D00028D04FF4407500F087F809281ED1134C1F
:1023E000206820F440702060206828432060206826
:1023F00020F0F8002060206846F0020108432060C9
:10240000206840F48030206000F06EF8216821F0F0
:1024100002012160216821F0F801216070BD4FF4B4
:102420008075D8E74FF40075D5E70000103C0240F6
:1024300009200F490A6812F4803F01D0012070473B
:102440000A6812F0100F01D0062070470A6812F4D3
:10245000807F01D0022070470A6812F0EF0F01D090
:1024600007207047096811F0020FFAD00820704762
:102470000C3C02400248016841F000410160704795
:10248000103C024070B506460D4600F02DF80928B4
:1024900013D10A4C206820F440702060206840F47A
:1024A00000702060206840F001002060356000F07E
:1024B0001BF8216821F00101216070BD103C024031
:1024C0000548006810F0004F04D00548034901603A
:1024D0000449016070470000103C02402301674539
:1024E000043C0240AB89EFCD08B509200090FFF70E
:1024F0009FFF00909DF80000012806D1FFF798FF8C
:1025000000909DF800000128F8D09DF8000008BD5B
:102510002DE9F00100220126032706FA02FC0B68D0
:1025200003EA0C03634538D10568530007FA03F446
:10253000A54305600D79D0F800809D4045EA080567
:1025400005600D79012D01D0022D17D18568A543B5
:1025500085604D79D0F808809D4045EA0805856082
:10256000456825EA0C0CC0F804C0D0F804C08D7989
:102570009540ADB24CEA050CC0F804C0D0F80CC0D0
:102580002CEA040CC0F80CC091F807C00CFA03F355
:10259000D0F80CC043EA0C03C360521C102ABCD311
:1025A000BDE8F00170474B07DB0E9A40C90800EB0D
:1025B0008100016A4FF00F0C0CFA03F3994301629A
:1025C000016A11430162704741837047018370477C
:1025D00000B500EB40010F4800EB810191ED000ACE
:1025E00081ED010A05F0C8FD00EE100ADFED0A0AD0
:1025F000B8EE400A80EE201A81ED001A91ED000A33
:10260000D1ED010A30EE600A81ED020A91ED020A75
:1026100000BD0000701200200024744970B50B4802
:102620000168001D0568001D0068084400280CD0E2
:10263000074C0822A11C00F0A9F804F11201284659
:10264000BDE87040042200F0A1B870BD107AFF1FF1
:10265000CE02002030B41A4C217801290AD0E1685A
:102660000025B1F5006F00D1E560A268E1689142F4
:1026700002D1257030BC704703D9C1F500622261D8
:1026800002E0A2EB010222612269402A08D91FFA66
:1026900081FC40234031E160A2F14001216105E06D
:1026A0001FFA81FC93B21144E16025610121217080
:1026B000044930BC01EB0C028121FFF74EBA000047
:1026C00004020020325A0020014901200870FEE770
:1026D0004800002002494CF6CC40086070470000DA
:1026E0000030004000F014B870B505460C4645F2C5
:1026F000555000F021F8284600F012F8204600F06E
:1027000015F800F005F8BDE87040FFF7E3BF0000E2
:1027100002494AF6AA2008607047000000300040D5
:10272000014948607047000000300040014988605E
:102730007047000000300040014908607047000009
:102740000030004010B50121082000F0FDFA0B48D0
:10275000802101800021021D1180094A1160094A6F
:10276000491E11605321121F1180074A0121118057
:10277000018841F00101018010BD0000000C004003
:10278000240C00402C0C0040140C0040F0B400233A
:10279000002A18D90A24302537269C46B4EB107F2E
:1027A00004D905EB107701F8137003E006EB1077FE
:1027B00001F81370000101EB430787F801C05B1CAF
:1027C000DBB29342EAD3F0BC70470000002807D187
:1027D000044811B10821FFF7F9BE0821FFF7F4BE44
:1027E000704700000000024000220123094904282C
:1027F00008D005280DD10B704A708A700121002085
:10280000FFF7E4BF0A704B708A7000210846FFF79B
:10281000DDBF70476100002070B52DED048B9FED8A
:10282000988AF6EE000AF0EE009AB7EE009A954804
:1028300090F84901DFED948A002805D09FED938A36
:10284000DFED930AF0EE689A924C8E4800252178CD
:1028500090F88A00092980F00F81DFE801F0051F58
:10286000375C789BB7DAF700D4ED010A30EE800AC6
:1028700084ED010A0520FFF7B7FF84ED028A94ED8D
:10288000010AB4EEC80AF1EE10FA04DDC4ED018AC3
:102890002078401C2070BDEC048B70BDD4ED010A83
:1028A00030EE800A84ED010A0420FFF79DFF94EDCD
:1028B000010AB4EEC80AF1EE10FAECDDC4ED018AAB
:1028C0002078401C2070BDEC048B70BD94ED011A83
:1028D00031EE000A84ED010A6F48007828B1C4ED9A
:1028E000020A0520FFF780FF04E084ED028A04203D
:1028F000FFF77AFF94ED010AD4ED020AB4EEE00A84
:10290000F1EE10FADFDDC4ED018A2078401C207062
:10291000BDEC048B70BDD4ED010A30EE800A84ED6D
:10292000010A0420FFF760FF94ED020AD4ED010ACA
:1029300039EE400AB4EEE00AF1EE10FAE8D2C4ED46
:10294000018A2078401C2070BDEC048B70BD94ED92
:10295000011A31EE000A84ED010A28B1C4ED020A21
:102960000520FFF741FF04E084ED028A0420FFF711
:102970003BFFD4ED010A94ED020AF4EEC00AF1EE39
:1029800010FAE1DDC4ED018A2078401C2070BDEC16
:10299000048B70BDD4ED010A30EE800A84ED010A8B
:1029A0000420FFF721FF94ED020AD4ED010A39EE6D
:1029B000400AB4EEE00AF1EE10FAE8D2C4ED018A62
:1029C0002078401C2070BDEC048B70BD94ED011A82
:1029D00031EE000A84ED010A28B1C4ED020A052097
:1029E000FFF702FF04E084ED028A0420FFF7FCFEFB
:1029F00094ED010AD4ED020AB4EEE00AF1EE10FA09
:102A0000E1DDC4ED018A2078401C2070BDEC048B10
:102A100070BDD4ED010A30EE800A84ED010A042075
:102A2000FFF7E2FE94ED020AD4ED010A39EE400A06
:102A3000B4EEE00AF1EE10FAE8D2C4ED018A207893
:102A4000401C2070BDEC048B70BDFFE7D4ED010A83
:102A500030EE800A84ED010A0420FFF7C5FE94EDF4
:102A6000010AB4EEE90AF1EE10FAEBDDC4ED018AD9
:102A70002570BDEC048B70BD2570BDEC048B70BD62
:102A8000CDCCCC3DD01D0020000000008988083D41
:102A9000ABAA2A3E600000204C01002000B583B0A4
:102AA0000121084600F034F901208DF804000021CE
:102AB0008DF806108DF80500082000906946024840
:102AC000FFF726FD03B000BD00000240B4EEC10ACE
:102AD000F1EE10FA02DDB0EE410A7047B4EEE00A02
:102AE000F1EE10FAF9D2B0EE600A70472DE9F0432A
:102AF0008FB00646169D179C0F4690469946224871
:102B0000864204D90121880500F002F903E0012181
:102B1000480500F0FDF83046FFF728FB3046FFF788
:102B2000E9FB0028FAD10097CDF80480CDF8089091
:102B3000402003900495002005904FF48061069199
:102B4000079008900990890134B1012C06D0022C1D
:102B500006D0032C0BD107E00A9008E00A9106E0AA
:102B60004FF400320A9202E04FF440320A920A9186
:102B70000B9003210C910D900E9069463046FFF7A3
:102B8000C1FB0FB0BDE8F0830064024070B504469D
:102B90000D4600212046FFF7DCFA2046FFF7AAFB8E
:102BA0000028FAD129462046FFF7EAFB2046BDE877
:102BB00070400121FFF7CDBAFEE7000070B4E5B028
:102BC0001E2851D264294FD201294DD9284B1A5CB5
:102BD000521CD2B21A548A4201D300221A5400EB7A
:102BE000C00202EB001C234A185C02EB0C1202EB41
:102BF000800080ED000A00206C4602EB800393ED1C
:102C0000000A04EB800383ED000A401CC0B2884236
:102C1000F3D34FF0000C4E1E002E20DD0020A1EB60
:102C20000C02551E002D14DD04EB8002401C04EB49
:102C3000800392ED000AD3ED000AB4EEE00AF1EE53
:102C400010FA03DDC2ED000A83ED000AC0B285422E
:102C5000EADC0CF1010000F0FF0CB445DEDB4808B3
:102C600004EB800090ED000A65B070BC7047000076
:102C700010530020302400207047000010B44FF0A3
:102C80000F0CC27801240178002A23D0174A126859
:102C900002F4E062C2F5E062C2F30722C2F104036B
:102CA0002CFA02FC42789A40837803EA0C031A4318
:102CB000120101F1E02181F80024007800F01F01E9
:102CC00004FA01F14009800000F1E020C0F8001191
:102CD00010BC704701F01F0004FA00F04909890098
:102CE00001F1E021C1F8800110BC70470CED00E05B
:102CF000034940F0FD7040F08060086070470000BC
:102D00000CED00E0014801F0E0BC00007C0C00206C
:102D1000054A002903D01168084310607047116804
:102D200021EA00001060704730380240054A00294F
:102D300003D01168084310607047116821EA000051
:102D40001060704734380240054A002903D01168EA
:102D5000084310607047116821EA00001060704756
:102D60004038024030B4DFF89CC0DCF8001001F0BD
:102D70000C01254D002923D06C10042922D00829EC
:102D800022D00560DCF8001001F0F00109091F4BAA
:102D9000595C026822FA01F14160DCF8002002F47B
:102DA000E052920A9A5C21FA02F28260DCF800207A
:102DB00002F46042520B9A5CD140C16030BC704753
:102DC0000560DFE70460DDE7114A1168C1F3805355
:102DD000116801F03F0133B1B4FBF1F11368C3F3A3
:102DE0008813594305E0B5FBF1F11368C3F3881369
:102DF00059431268C2F30142521C5200B1FBF2F176
:102E00000160BFE7083802400024F4004E000020B3
:102E100004380240000000002DE9F04F2DED028B38
:102E200081B000260096A44C012525745022A4F5FB
:102E30007A71A24800F0E8F926746946A4F57A7020
:102E400004F0C8FB9E4F38606946A4F57A7004F020
:102E50002AF89C4C84ED260A69469B4804F023F826
:102E600084ED780A6946984804F0B4FB00EE100A35
:102E7000B8EEC00A84ED330A6946934804F0AAFB11
:102E800000EE100AB8EEC00A84ED850A69468E4845
:102E900004F0A0FBC4F80C0169468B4804F09AFBCF
:102EA000C4F808016946884804F094FBC4F810018E
:102EB0006946854804F08EFBC4F85402694682488E
:102EC00004F088FBC4F8500269467F4804F082FB96
:102ED000C4F8580269467C4804F07CFB84F824015D
:102EE0006946794804F076FB00EE100AB8EEC00A95
:102EF00084ED4A0A6946744803F0D5FF84ED4C0A14
:102F00006946714803F0CFFF84ED4F0A69466E4869
:102F100004F060FB00EE100AB8EEC00A84ED500A1F
:102F20006946694804F056FB00EE100AB8EEC00A84
:102F300084ED4E0A6946644804F04CFBDFF88C814E
:102F4000C8F80000D4F8300106F066FB9FED608BF6
:102F500053EC182B05F0ECFD41EC100B53EC102B4F
:102F60009FED5D0B51EC100B05F096FE05F0AEFDEC
:102F7000C4F82C01D4F83C0106F04EFB53EC182B9E
:102F800005F0D6FD41EC180BD4F8380106F044FBEF
:102F900053EC182B05F080FE05F098FDC4F83401C1
:102FA000D4F8400106F038FB9FED4D1B53EC112B7C
:102FB00005F0BEFD41EC100B53EC102B9FED4A0BBE
:102FC00051EC100B05F068FE05F080FDC4F84401DB
:102FD00069463D4804F0FEFA42F2107190FBF1F1AF
:102FE000434AC9B211736FF41C7311FB03F100EB78
:102FF0000111404880FB01304311A3EBE070507396
:103000006FF0180310FB03F001EB8000907304F5E0
:103010008C70D4F834B190E80F10D4F830A1D4F803
:103020002C9104F51874A4E80F10A4F51D7404F590
:103030009C70C4F87CB2C4F878A2C4F874920FC82B
:1030400004F520740FC4A4F524744FF0630994F8B8
:1030500024010A280DD9C8F80060C7F80090C4F808
:103060000851C4F80C51C4F8105184F8245102F0EE
:10307000E5FC94F86C020A280DD9C8F80060C7F87E
:103080000090C4F85052C4F85452C4F8585284F80E
:103090006C5202F0D3FC94F82411002907D00020D0
:1030A00005F086F994F86C12012005F081F901B061
:1030B000BDEC028BBDE8F08F0C17002000000E085D
:1030C00060010020D01D0020241300206401002096
:1030D00048AFBC9AF2D77A3E000000000000F03FF3
:1030E000F168E388B5F8E43E000000000080764017
:1030F0004C0300201F85EB510649002804D00868C6
:1031000040F0040008607047086820F00400086080
:10311000704700000008065001460020024A12686D
:103120000A4200D0012070470408065070B5002400
:1031300001214020FFF7FAFD0120FFF7DDFF42F2F9
:10314000107504E0601C84B2642003F08BFB012046
:10315000FFF7E2FF08B9AC42F4D3AC4201D301203F
:1031600070BD002070BD00001C49884201D20020C3
:1031700070471B49884201D208207047194988428C
:1031800001D2102070471849884201D21820704798
:103190001649884201D2202070471549884201D241
:1031A000282070471349884201D2302070471249C5
:1031B000884201D2382070471049884201D240200D
:1031C00070470F49884201D2482070470D49884214
:1031D00001D250207047582070470000004000087E
:1031E0000080000800C0000800000108000002087C
:1031F00000000408000006080000080800000A0893
:1032000000000C0800000E0810B504460023002A38
:1032100008D9204600F007F841F82300241D5B1C64
:103220009342F6D310BD0068704700002DE9F041CD
:1032300004460F4616464FF00908B4F1006F3AD322
:1032400014F0030F37D1FFF73BF90020FFF7A8F880
:10325000254604EB860619482C46854215D2B54210
:1032600013D22846FFF7DFFFB0F1FF3F0AD0284610
:10327000FFF77AFF0221FFF7A3F88046B8F1090FA4
:1032800003D100E02D1DB542EBD3B8F1090F0BD1EE
:10329000B44209D220463968FFF7F4F8092803D16F
:1032A000241D3F1DB442F5D30120FFF779F8BDE896
:1032B000F041FFF7DFB8BDE8F08100000000FF1F1C
:1032C000704710B5C1B2C0F30724084602F0DAFA1D
:1032D0002046BDE8104002F0D5BA00000000000012
:1032E0002DE9F04106462DED068BB0EE609A10EE0A
:1032F000100A394C9FED3A8B3B4D9FED3DABA04200
:1033000004D9B0EE481AF0EE681A0EE010EE100A7A
:10331000A84204DDB0EE4A1AF0EE6A1A05E010EE9B
:10332000100A06F079F941EC110B51EC110B05F084
:10333000CDFB09EE900A19EE100AA0420ED819EE44
:10334000100AA84204DDB0EE4A8AF0EE6A8A05E06F
:1033500019EE100A06F060F941EC180B51EC180B4D
:1033600005F0B4FB00EE100ADFED230A29EEA01AE7
:10337000BDEEC11A11EE100A04B220EE200ABDEE15
:10338000C00A10EE100A05B2E0B280F06300C4F388
:1033900007214840E9B24840C5F30721484080EA88
:1033A0000607012002F06EFA072002F06BFA632094
:1033B00002F068FA2046FFF784FF2846FFF781FFF6
:1033C000304602F05FFABDEC068B3846BDE8F041AE
:1033D00002F058BA00000000000070C200000000B7
:1033E0000000000000004EC000007042000000001D
:1033F0000000000000004E400000C8420000000035
:103400002DE9F04F04462DED108B81B0B0EE40AAAF
:10341000F0EE60AAB0EE41DAF0EE61DAB0EE42EA28
:10342000F0EE62EA0D469FED84FADFED84FA9FED3F
:1034300084BB9FED858B9FED869B9FED87CB1AEE1E
:10344000100A06F0E9F853EC192B05F025FC53ECB3
:10345000182B05F0D3FD04D2B0EE48BAF0EE68BAEE
:103460001AE01AEE100A06F0D7F853EC192B05F003
:1034700013FC53EC1B2B05F0A3FF0DD31AEE100A1F
:1034800006F0CAF8B0EE491AF0EE691A53EC112BA7
:1034900005F002FC41EC1B0B51EC1B0B05F016FB7D
:1034A0000AEE100A1AEE900A06F0B6F853EC192B41
:1034B00005F0F2FB53EC182B05F0A0FD1BD31AEE20
:1034C000900A06F0A9F853EC192B05F0E5FB53EC34
:1034D0001C2B05F075FF04D2B0EE4C8AF0EE6C8A1E
:1034E00009E01AEE900A06F097F853EC192B05F054
:1034F000D3FB41EC180B51EC180B05F0E7FA00EE8A
:10350000100A6AEE0F0AFDEEE00A10EE900A06B20B
:1035100000EE904A2DEE2F1AF8EE600A61EE200AB6
:10352000FDEEE00A10EE900A07B200EE904A2DEE92
:10353000AF1AF8EE600A61EE200AFDEEE00A10EE26
:10354000900A0FFA80F820EE0F0ABDEEC00A10EEC6
:10355000100A0FFA80F900EE105A6EEE2F0AB8EE3C
:10356000400A20EE800ABDEEC00A10EE100A0FFAE3
:1035700080FA00EE105A6EEEAF0AB8EE400A20EE66
:10358000800ABDEEC00A10EE100A0FFA80FBF0B2FE
:1035900080F05300C6F307214840F9B24840C7F312
:1035A0000721484008F0FF014840C8F30721484080
:1035B00009F0FF014840C9F3072148400AF0FF0124
:1035C0004840CAF3072148400BF0FF014840CBF3C5
:1035D0000721414014B10DB1012000E00020484016
:1035E0000090012002F04EF90F2002F04BF9532019
:1035F00002F048F93046FFF764FE3846FFF761FEF7
:103600004046FFF75EFE4846FFF75BFE5046FFF779
:1036100058FE5846FFF755FE14B10DB1012000E0E9
:10362000002002F02FF9009801B0BDEC108BBDE82E
:10363000F04F02F027B9000000007A440000C842B1
:103640005C1A2974AC560640A83DAE02822119C00E
:103650006666666666A64C40A83DAE0282211940A9
:103660002DE9F04F04462DED0E8B81B0B0EE40AA4F
:10367000F0EE60AAB0EE41CAF0EE61CAB0EE42DAF6
:10368000F0EE62DA0D469FED86EADFED86EA9FED09
:10369000868B9FED879B9FED88BB1AEE100A05F085
:1036A000BBFF53EC192B05F0F7FA53EC182B05F080
:1036B000A5FC04D2B0EE480AF0EE680A1FE01AEE4C
:1036C000100A05F0A9FF53EC192B05F0E5FA53ECAD
:1036D0001B2B05F075FE04D2B0EE4B0AF0EE6B0A20
:1036E0000DE01AEE100A05F097FFB0EE491AF0EE61
:1036F000691A53EC112B05F0CFFA41EC100B51EC89
:10370000100B05F0E3F90AEE100A1AEE900A05F024
:1037100083FF53EC192B05F0BFFA53EC182B05F07F
:103720006DFC1BD31AEE900A05F076FF53EC192BB3
:1037300005F0B2FA53EC1B2B05F042FE04D2B0EEBA
:103740004B8AF0EE6B8A09E01AEE900A05F064FFEE
:1037500053EC192B05F0A0FA41EC180B51EC180BA7
:1037600005F0B4F900EE100A6AEE0E0AFDEEE00A6A
:1037700010EE900A06B200EE904A2CEE2E1AF8EEE9
:10378000600A61EE200AFDEEE00A10EE900A07B230
:1037900000EE904A2CEEAE1AF8EE600A61EE200AB6
:1037A000FDEEE00A10EE900A0FFA80F820EE0E0A05
:1037B000BDEEC00A10EE100A0FFA80F900EE105AA2
:1037C0006DEE2E0AB8EE400A20EE800ABDEEC00A69
:1037D00010EE100A0FFA80FA00EE105A6DEEAE0AE3
:1037E000B8EE400A20EE800ABDEEC00A10EE100AC4
:1037F0000FFA80FBF0B280F05600C6F30721484074
:10380000F9B24840C7F30721484008F0FF0148409B
:10381000C8F30721484009F0FF014840C9F30721D8
:1038200048400AF0FF014840CAF3072148400BF026
:10383000FF014840CBF30721414014B10DB10120F5
:1038400000E0002048400090012002F01BF80F200B
:1038500002F018F8562002F015F83046FFF731FD57
:103860003846FFF72EFD4046FFF72BFD4846FFF791
:1038700028FD5046FFF725FD5846FFF722FD14B1FD
:103880000DB1012000E0002001F0FCFF009801B024
:10389000BDEC0E8BBDE8F04F01F0F4BF000000005E
:1038A000000048430000C842E42A2018922D3AC084
:1038B0006666666666A64C40E42A2018922D3A4059
:1038C00082B00022019200922749086840F48030BB
:1038D0000860086800F4003000900198401C0190D6
:1038E000009818B90198B0F5A04FF2D1086810F40B
:1038F000003F02D00120009000E0009200980128D3
:1039000030D11A48026842F08052026018480268BA
:1039100042F440420260174802680260026842F4C2
:1039200000420260026842F4A0520260021F124B81
:1039300013600A6842F080720A600A6812F0007F21
:10394000FBD00E4A40F205711160016821F00301BD
:103950000160016841F002010160016801F00C01A1
:103960000829FAD102B070470038024040380240BE
:10397000007000400838024008544007003C0240F4
:103980004FF0E021042804D0086920F00400086109
:103990007047086940F004000861704710B511488D
:1039A000016841F4700101600F48016841F00101B4
:1039B00001600E4A00211160026822F4102222F0F8
:1039C00080720260031D0A4A1A60026822F4802293
:1039D000026008480160FFF773FF07494FF000607D
:1039E000086010BD88ED00E0003802400838024051
:1039F000103000240C38024008ED00E080ED050A8C
:103A0000C0ED060A80ED071AC0ED081A9FED070AFF
:103A100080ED0E0A80ED0D0A80ED0C0A80ED0B0A98
:103A200080ED0A0A80ED090A00F002B8A5D46853B7
:103A30009FED050A80ED040A80ED030A80ED020A7D
:103A400080ED010A704700000000000010EE100A2F
:103A50000749DFED080A884202DD30EE600A704750
:103A600010EE100A04498842F9D930EE200A704756
:103A7000000034430000B443000034C370B5164C5A
:103A8000208804F1040510F0080F00D0288840F2C7
:103A90002551204600F03CFB28B140F2255120463C
:103AA00000F00FFB288840F22771204600F030FB21
:103AB00000280FD0094A0A4B507B411CC9B25173F0
:103AC000185C2880907B814204D10648018821F04F
:103AD0008001018070BD0000004C00407400002097
:103AE000941B00200C4C004010B50A4C208810F0AC
:103AF000080F00D0A08840F22551204600F008FBB6
:103B0000002805D040F22551204600F0DAFAA088BE
:103B100010BD00000050004070B5394E308806F1ED
:103B2000040410F0080F00D0208840F225513046E0
:103B300000F0EEFA334D002845D040F225513046D2
:103B400000F0BFFA2088C1B2AA7A2F480AB9AA2980
:103B500002D0012A04D005E00122AA72017032E0ED
:103B6000AF2902D0022A04D00AE00222AA724170D0
:103B700029E029B1F12903D20322AA72817022E03F
:103B80004FF0000C032A08D1322906D20422AA726F
:103B9000C170E97285F80CC015E0042A0FD1EB7AE8
:103BA0006BB15A1ED2B2EA722B7B03F1010C18449E
:103BB00085F80CC0017132B90520A87203E0052A0E
:103BC00018D085F80AC040F22771304600F0A0FAFC
:103BD00000280ED0287A0D4A411CC9B22972105C07
:103BE0002080687A814204D10948018821F080014F
:103BF000018070BD85F80AC02A7B10440171E2E79C
:103C00000048004074000020621B0020121A0020AF
:103C10000C48004070B5394E308806F1040410F0AD
:103C2000080F00D0208840F22551304600F070FA8D
:103C3000334D002845D040F22551304600F041FA7E
:103C40002088C1B26A792F480AB9AA2902D0012A6C
:103C500004D005E001226A71017032E0AF2902D080
:103C6000022A04D00AE002226A71417029E029B1D7
:103C7000F12903D203226A71817022E04FF0000C17
:103C8000032A08D1502906D204226A71C170A97191
:103C900085F807C015E0042A0FD1AB796BB15A1E25
:103CA000D2B2AA71EB7903F1010C184485F807C070
:103CB000017132B90520687103E0052A18D085F832
:103CC00005C040F22771304600F022FA00280ED0DD
:103CD000E8780D4A411CC9B2E970105C208028794F
:103CE000814204D10948018821F08001018070BD22
:103CF00085F805C0EA7910440171E2E7004400400C
:103D000074000020121B0020121A00200C440040F6
:103D10002DE9F04F2DED048B81B0D548018811F0CD
:103D2000080F01D0011D098840F22551D04800F04C
:103D3000EFF9002800F07E8140F22551CC4800F0D8
:103D4000C0F9CC480088C1B2CB4B5A69501C5861AD
:103D5000CA4B99540024322801DDC7484461C84D3C
:103D60004FF0010C05F1F003686958B102220128F7
:103D700010D00322A3F1C80E022814D0032840F06B
:103D8000598127E0012940F05581C5F814C05C71C4
:103D900000F050B90C2902D06C6100F04BB96A6197
:103DA0005C7100F047B9422902D06C6100F042B961
:103DB0006A6100200EEB000282F86440401CC0B231
:103DC0001428F7D35879421C70445A7180F8641053
:103DD00000F030B95879421CD2B270445A7180F860
:103DE00064100B2A40F226819EF86400A54991F8E0
:103DF00065C08CEA000091F866A08AEA0001A1483B
:103E000090F8670080EA01029E4991F8681081EA03
:103E100002039C4A92F8692082EA0306994B93F8C0
:103E20006A305E40974F97F86B707E40DFF854829F
:103E300098F86C8088EA0606DFF8489299F86D9049
:103E400089EA060B8F4E96F86E60009686EA0B0B99
:103E50008C4E96F86F60B3457DD14CEA0A2C0FFA70
:103E60008CFC00EE10CADFF820B2B8EEC08A8BEDF1
:103E7000008A40EA012000B200EE100AB8EEC00A43
:103E80008BED010A42EA032000B205F08CF89FEDA9
:103E9000809B53EC192B04F0FFFE04F017FE0BF18E
:103EA000100ACAF8000047EA082000B205F07BF8C3
:103EB00053EC192B04F0F0FE04F008FECAF80400DD
:103EC000009849EA002000B205F06DF89FED721BE2
:103ED00053EC112B04F0E0FE04F0F8FDAAF12C07DE
:103EE000B8616F480670A0F1DC0191F87010417064
:103EF000A0F1DC0191F8711081706A4E86ED318A73
:103F000096ED510A68EE000A96ED4A0A80EE801A94
:103F100086ED111A07F1240999ED001AC1EE000A85
:103F200010EE900A05F078FB9FED5F9B53EC192B88
:103F300005F0A0F804F0CAFDF06496ED330A002005
:103F400038EE400ABDEEC00A10EE101A02F0C2FCB4
:103F500000EE100A00E06CE0B8EEC00A86ED320A0E
:103F6000BDEEC00A304610EE101A03F0B1F94FF062
:103F7000010886F88A80C6F88C4097ED060A86ED1F
:103F8000400A96ED420ADAED000A3046B8EEC00A61
:103F900020EE200A03F0DEFADBED010A96ED9C0A22
:103FA00080EE808A86ED838A96EDA31A60EE810A00
:103FB00080EE801A86ED631A99ED011AC1EE000AAF
:103FC00010EE900A05F028FB53EC192B05F052F87F
:103FD00004F07CFDC6F8940196ED850A012038EEC8
:103FE000400ABDEEC00A10EE101A02F073FC00EE9B
:103FF000100AB8EEC00A86ED840ABDEEC00A06F5C6
:10400000A47010EE101A03F063F986F8D281C6F896
:10401000D44197ED060A86ED920A96ED940ADAED00
:10402000010A06F5A470B8EEC00A20EE200A03F0DB
:1040300091FA6C6140F227710D4800F069F8002890
:1040400010D00D4A1A4B5078411CC9B251701B5CFC
:10405000084803809078814204D11648018821F0F5
:104060008001018001B0BDEC048BBDE8F08F000041
:104070000048004004480040740000202017002041
:1040800084170020AC1700209000002000000000E2
:104090000000000000005940000000000000244023
:1040A00088180020D01D00206666666666A64C4013
:1040B000121900200C48004001F40072C94301802D
:1040C000704740F66A12090A012202FA01F1C94357
:1040D00001807047002904D0818941F40051818119
:1040E0007047818921F4005181817047002A03D0F3
:1040F000828A114381827047828A22EA0101818289
:1041000070470246002012880A4200D00120704702
:1041100010B44FF0000C40F66A12C1F3421301F0E4
:104120001F02012404FA02F2012B0FD0022B10D03F
:10413000838A1A40090A04FA01F10088084012B182
:1041400008B14FF0010C10BC6046704783891A40DB
:10415000F0E7038A1A40EDE740F66A13C1F3421311
:1041600001F01F014FF0010C0CFA01F1012B07D0F7
:10417000022B07D014303AB1026811430160704736
:104180000C30F8E71030F6E7026822EA010101601E
:104190007047000030B585B004460D46208A20F4F3
:1041A0004050E98808432082A08920F4037020F45D
:1041B000A050A9882A8911436A8910430843A08125
:1041C000A08A20F44070A9890843A0826846FEF7BF
:1041D000C9FDA4F18040B0F5883012D0A4F1804030
:1041E000B0F58A300DD00298A18911F4004F0AD0A1
:1041F00000EBC00101EB001029684900B0FBF1F0B1
:1042000009E00398F0E700EBC00101EB001029681A
:104210008900B0FBF1F0124AA2FB00314909090103
:104220000B096FF0180C03FB0CF300EB8300A38960
:1042300013F4004F4FF0320307D003EBC000A2FB92
:104240000020C0F34210084306E003EB0010A2FB7D
:104250000020C0F343100843208105B030BD0000AA
:104260001F85EB51C1F308018180704710B5D0F86C
:10427000E42552689047002010BD10B5044694F81C
:104280001201022806D0032804D02046BDE81040C1
:1042900000F023B8488801280CD10020C4F8180188
:1042A000D4F8E4058268204690472046BDE81040D7
:1042B00000F053B810BD10B5002413460A46002183
:1042C000FDF706FC204610BD10B5002413460A4633
:1042D0000021FDF742FC204610BD10B504468021A8
:1042E0002046FDF71AFC00212046FDF716FC20466B
:1042F000BDE8104000F064BF10B50024C0F894235E
:10430000C0F89023032380F8113113460A46002198
:10431000FDF7DEFB204610BD70B5044600250520E4
:1043200084F8110100231A4619462046FDF7D0FBF8
:10433000204600F045FF284670BD10B50024C0F8A7
:104340003C21C0F83821022380F8113113460A4677
:104350000021FDF702FC204610BD70B50446002583
:10436000042084F8110100231A4619462046FDF75F
:10437000F4FB204600F024FF284670BD70B50546CA
:10438000002909D0D5F8E4054269002A4AD095F8F9
:104390001201032844D045E005F58E7495F811010B
:1043A0000026022832D1E169A06881420FD9081A9B
:1043B000E061E878012803D1A168E0680844E06082
:1043C000A08BE16882B22846FFF77EFF1EE0216ADB
:1043D000B1FBF0F200FB12125AB9814209D3606AB4
:1043E000814206D2002211462846FFF76DFF666221
:1043F0000CE0D5F8E405C16829B195F8120103284D
:1044000001D1284688472846FFF786FF95F8160110
:10441000012807D1284600F001FA85F8166101E06D
:1044200028469047002070BD10B50446002909D0E9
:10443000D4F8E4058269002A32D094F812010328E6
:104440002CD02DE004F55D7194F81101032827D1DB
:104450008A68C869904213D9801AC861E078012837
:1044600003D18A68C8681044C860CA6988688242F3
:1044700000D2104682B2C9682046FFF71CFF0FE049
:10448000D4F8E405016929B194F81201032801D197
:10449000204688472046FFF760FF01E0204690470E
:1044A000002010BD00207047CA88012A01D0FFF704
:1044B00014BF90F81221022A03D0032A05D0FFF777
:1044C0000CBF01220349FFF738BF012200F58871B4
:1044D000FFF733BFFC01002038B504460D4668885D
:1044E000010A082978D2DFE801F0770415217777EF
:1044F0006C72D4F8EC15A0780A68694690470146BA
:10450000E888402803D094F81201012845D10820FA
:10451000009042E0D4F8E415A0788A6A6946904792
:10452000014602204870C4F8F01536E0C0B20628F3
:1045300042D2DFE800F0030B131B232BD4F8EC1559
:10454000A0784A6869469047014626E0D4F8EC1501
:10455000A0788A686946904701461EE0D4F8EC15B9
:10456000A078CA6869469047014616E0D4F8EC1571
:10457000A0780A696946904701460EE0D4F8EC1528
:10458000A0784A6969469047014606E0D4F8EC15E0
:10459000A0788A69694690470146BDF80000002866
:1045A00009D0EA88002A06D0824200D90246009249
:1045B0002046FFF7C2FE38BD29462046FFF78DFE94
:1045C00038BD29462046FFF788FE38BD04E029465D
:1045D0002046FFF782FE38BD29462046FFF77DFEC4
:1045E00038BD00210278002A05D0491CC9B2401C00
:1045F0000278002AF9D108467047000090F812218D
:10460000022A03D0032A01D0FFF767BE0549012221
:10461000CA60D0F818210AB10322CA6002220249F6
:10462000FFF78BBEF40100200002002070B50446A5
:104630000D461646002C19D02046FFF7D2FF022166
:1046400001EB40003080287003210220697021783E
:1046500000290BD0002214F8013B411CC9B22B5495
:10466000481CC0B26A5421780029F4D170BD2DE9EC
:10467000F0410446069D884617461E46204600F037
:104680007DFB2046FFF70EFFC4F8E465C4F8E8554B
:10469000C4F8EC7541462046FDF794FCD4F8E805D3
:1046A000006880472046BDE8F04100F057BB10B5D8
:1046B000D0F8E415096A8847002010BD10B5D0F87D
:1046C000E415496A8847002010BD70B582B00646DF
:1046D0000024304600F094FF002853D0304600F00C
:1046E00098FF0546019000284FD015F4002F03D005
:1046F0003046FDF7F7FA044615F4802F03D0304614
:10470000FDF776FA044315F0020F03D00220009063
:10471000F168486115F0004F03D03046FDF74EFBBD
:10472000044315F4006F03D03046FDF7BBFB044390
:1047300015F0080F03D03046FDF7A6FB044315F033
:10474000100F03D03046FDF759FB044315F4805F8A
:1047500003D03046FDF7E2FB044315F4005F03D0BD
:104760003046FDF716FA044315F4801F03D0304697
:10477000FDF772FC044315F4001F03D03046FDF72B
:104780007BFC044302B0204670BD02B0002070BD27
:1047900090F8CC250A7090F8CD254A7090F8CE2577
:1047A00090F8CF3502EB03224A8090F8D02590F89C
:1047B000D13502EB03228A8090F8D22590F8D335C8
:1047C00002EB032292B2CA80C0F84021012180F896
:1047D0001111704710B504460023402219462046A7
:1047E000FDF754F90023402280212046FDF74EF9C1
:1047F000012084F81201D4F8E815A07849688847A8
:10480000002010BD10B50446D4F8E80500698047C3
:10481000032084F81201002010BD0000024909683D
:104820000069416000207047F001002010B5D0F809
:10483000E415C969002900D08847002010BD70B573
:1048400004468888002801D1C88820B12046BDE8E8
:104850007040FFF742BD887800F07F0594F81201A0
:1048600003280DD084F8145129462046FDF74DF950
:104870002046FFF772FD45B1022084F8120170BD99
:104880002046BDE87040FFF728BD012084F81201E2
:1048900070BD10B50446D4F8E40502682046904780
:1048A000D4F8E80580688047002010BD70B5044644
:1048B0000A46284D91782970012905D92046BDE87E
:1048C00070401146FFF709BD94F81201022807D085
:1048D000032818D02046BDE870401146FFF7FDBC04
:1048E00061B184F81011032084F812012046FFF70B
:1048F000D0FF2046BDE87040FFF72FBD2046BDE841
:104900007040FFF72ABD91B194F8100188421BD086
:1049100001462046FFF7AAFC297884F810112046AA
:10492000FFF7B7FF2046BDE87040FFF716BD022035
:1049300084F8120184F810112046FFF797FC2046F6
:10494000BDE87040FFF709BD2046BDE87040FFF7A5
:1049500004BD0000F401002038B504464888012257
:10496000012810D002283CD1888810F0FF0F38D1E0
:10497000216949680091000A062828D2DFE800F082
:10498000270F14191E23C4F81821D4F8E4058268EF
:10499000204690472046BDE83840FFF7DEBC21F0B6
:1049A00070001030009012E021F070002030009074
:1049B0000DE021F070003030009008E021F0700030
:1049C0004030009003E021F0700050300090054826
:1049D0000099016084F816212046BDE83840FFF7B1
:1049E000BCBC38BDF001002010B582B00446694659
:1049F0002046FFF7CDFE9DF8002012F01F010BD0DE
:104A000001290ED0022911D002F080012046FDF7C5
:104A100084F802B0002010BD6946204600F00BF873
:104A2000F7E76946204600F0C9F8F2E769462046F4
:104A300000F030F8EDE710B5034600244A780A2A62
:104A400022D2DFE802F0151D211921090521110DDF
:104A50001846FFF741FD1AE01846FFF7F0FE16E092
:104A60001846FFF723FF12E01846FFF71DFD0EE082
:104A70001846FFF7C3FD0AE01846FFF76DFF06E092
:104A80001846FFF7FAFB02E01846FFF726FC20461F
:104A900010BD000070B504460D46002629796878DF
:104AA00000284CD0012826D0032852D194F81201B6
:104AB000022806D003280CD029462046FFF70DFC1B
:104AC00047E0002945D0802943D02046FDF725F84E
:104AD0003FE0688828B921B1802902D02046FDF73F
:104AE0001CF8D4F8E4052946826820469047204601
:104AF000FFF733FC2DE094F81201022806D00328BA
:104B00000BD029462046FFF7E8FB22E009B38029B5
:104B10001FD02046FDF701F81BE06888C8B951B1E5
:104B2000802908D02046FCF791FFD4F8E4052946F7
:104B30008268204690472046FFF70FFC09E094F872
:104B40001201022807D003280DD029462046FFF77E
:104B5000C4FB304670BD0029FBD08029F9D0204627
:104B6000FCF7DBFFF5E7134A11F0800F4FF0000C64
:104B70004FF001030DD001F07F0000EB800004EB4B
:104B8000C00090F81E0108B153600DE0C2F804C0E7
:104B90000AE001EB810004EBC00090F8760308B155
:104BA000536001E0C2F804C0022203492046FFF727
:104BB000C4FBCEE7F4010020F801002070B50446E4
:104BC0000D46002694F81201032805D029462046F8
:104BD000FFF783FB304670BD287901280CD8D4F844
:104BE000E4052946826820469047E8880028F1D1EC
:104BF0002046FFF7B2FBEDE729462046FFF76DFBA5
:104C0000E8E710B590F8121180F81311042180F82C
:104C10001211D0F8E805C0688047002010BD0000E0
:104C200010B5002806D00A46054906A0FFF7FEFC8D
:104C3000034810BD0A46024902A0FFF7F7FCF7E758
:104C40003262002056435020436F6E666967000051
:104C50000149012008707047E80200200149012045
:104C600008707047E8020020122008800048704752
:104C7000BC0200200149002008707047E8020020B3
:104C8000704770470149002008707047E802002013
:104C90007047000010B5002806D00A46054906A056
:104CA000FFF7C4FC034810BD0A46024902A0FFF703
:104CB000BDFCF7E73262002056435020496E746510
:104CC0007266616365000000042008800048704738
:104CD000B802002010B50A46024903A0FFF7A6FC5F
:104CE000004810BD3262002053544D6963726F65F5
:104CF0006C656374726F6E696373000010B5002891
:104D000006D00A46054906A0FFF790FC034810BDEF
:104D10000A46024902A0FFF789FCF7E73262002049
:104D20004D4F434F2053544D333246342056697211
:104D30007475616C20434F4D0000000010B51A20BF
:104D40000880FDF76BFC014810BD0000CE0200207A
:104D500043200880004870472C02002008B54320FB
:104D60008DF8000001208DF8010002218DF802105D
:104D70008DF803006846FDF781FF08BD10B582B0CD
:104D800001210846FDF7C4FF01218020FDF7CEFF79
:104D90004FF4C050009002208DF8040000208DF8E0
:104DA000060003218DF805108DF80700084C6946B0
:104DB0002046FDF7ADFB0A220B212046FDF7F3FB51
:104DC0000A220C212046FDF7EEFB02B010BD0000C8
:104DD0000000024080B201F029BD01F043BD30B5B2
:104DE00083B0044600250020029001900090217AB3
:104DF000E068012919D0C16841F040010291C16009
:104E0000204600F0E9F84FF434100190607A10B1B8
:104E10004FF474100190E168019888631420FFF743
:104E2000D9FFE078012822D02AE0816B21F480317B
:104E30000191627A12B141F480110191019981636B
:104E4000E068C16821F0400121F4800121F40031C3
:104E500021F400210291C160204600F0BDF8E07805
:104E60000128DED12A200090E1688860D9E7E06857
:104E7000816821F01E010A3141F02001009181601A
:104E800003B0284630BDF0B587B0044600260025A3
:104E90000695049503950295D4F80C0105602069E8
:104EA000016821F4C05105910160E07A01282CD1FC
:104EB0000321204600F09EFBE068802141624020F3
:104EC000ADF81200ADF81010E2680498906200EBA3
:104ED0001040ADF80C00ADF80E10E1680398C1F871
:104EE000040100EB1040ADF80C00ADF80E50E16885
:104EF0000398C1F8080100EB1040ADF80C00ADF8C4
:104F00000E50E1680398C1F80C011021204600F012
:104F10002DFB204600F008FB2069056120694561F2
:104F200021694FF0FF3088612069C56100206178F8
:104F3000FF274FF0904C002915D904EB80018A69B6
:104F40001368069313F0004F02D0CDF818C000E0AC
:104F50000695069B13608A69156189698F60401CFC
:104F600061788142E9D800206178002915D904EBE5
:104F700080014A6D1368009313F0004F02D0CDF802
:104F800000C000E00095009B13604A6D1561496DFB
:104F90008F60401C61788142E9D84FF480700290A4
:104FA0002069016941F480710161E07801280DD127
:104FB00003206FF38A0000F5807040F480306FF3B7
:104FC000594000F50000019021690863204600F077
:104FD00079FA07B03046F0BDF8B505460027002441
:104FE00000200090134E0320FFF7F7FEE8680069E9
:104FF0000090641CB44201D90020F8BD009810F064
:10500000004FF0D00021009840F00100009000987F
:10501000EA681061E86802690092491CB14203D84D
:10502000009A12F0010FF6D10320FFF7D6FE3846A2
:10503000F8BD0000400D03000022C068816821F027
:10504000010181601046704783B04FF0000C0021D1
:10505000009101698968029183691A680192C1F31C
:105060004101002905D0012903D0022905D00329D7
:1050700007D16FF30A02019203E06FF30A02D11C19
:105080000191019919600069416841F480714160A2
:10509000604603B0704730B484B00025002202920D
:1050A00000924A784B69012A1ED00A7800EB820CE4
:1050B000DCF854201468029412690092002B5ED030
:1050C0008A684A61009B62F306030093009A22F407
:1050D000C01202F500220092DCF85430009A1A61E6
:1050E000C278012A57D05CE0826914680294D2F831
:1050F00010C0CDF800C053B1D1F808C0634511D934
:10510000C1F814C0009B6CF30603009310E0009BF1
:1051100023F07F030093009B23F4C01303F50023C7
:1051200000930BE0DDF800C063F3060CCDF800C07F
:10513000009B23F4C01303F500230093009B13612D
:10514000C378012B08D191F800C00B6900EB8C0CDF
:10515000DCF818C0CCF8143044F0806343F000430E
:1051600002931360C27832BB4A6922B309780122E4
:1051700002FA01F10069426B114341631BE00B7AB3
:10518000009A63F306020092009A22F4C01202F51C
:1051900000220092A0E70B780A6900EB83035B6DA5
:1051A0005A6144F0806242F000420292097800EBBA
:1051B0008100406D026004B0284630BC704700009A
:1051C00083B04FF0404101910A4901910A49019190
:1051D000426D01991161C178012909D1426D00F236
:1051E000CC515161416D08684FF0802000900860FB
:1051F00003B07047000008C0180008C030B482B087
:105200004FF0000C0022019200920B784D7801249F
:1052100000EB830204FA03F3012D08D0526DADF8C0
:1052200002301368019313F4004F04D012E0926926
:10523000ADF80030F5E70C8964F30A03CC7864F329
:105240009343897961F3995343F0805141F40041CC
:10525000019111600069C169009A1143C16102B0F6
:10526000604630BC704781B000230022009291F864
:1052700001C00A78BCF1010F00EB82000AD0406D3A
:10528000026822F400120092C978032904D002298E
:1052900002D004E08069F3E742F080510091009968
:1052A0000160184601B0704710B482B0002301932A
:1052B00000934C7809784FF0010C00EB81020CFA56
:1052C00001F1012C0CD0526DADF802101360006991
:1052D000C169009A9143C16102B0184610BC704781
:1052E0009269ADF80010F1E781B00246002000237A
:1052F00000934B780978012B02EB810107D0496DAF
:105300000A6842F4001200920A6001B070478A698C
:105310001168009111F0004F02D041F080410091DE
:10532000009941F400110091116001B0704770B50F
:1053300083B0002400220292019291F801C00B7800
:105340004A6900EB8303BCF1010F1CD05B6D1D6843
:105350000295D3F810C0CDF804C0002A79D08E6829
:105360003244521EB2FBF6F262F3DC4CCCF3C9427B
:10537000724362F3120CCDF804C0019A1A61C2782C
:10538000012A70D075E09B691D680295D3F810C0A2
:10539000CDF804C072B162F3120C8E683244521E12
:1053A000B2FBF6F262F3DC4CCDF804C0CA78012AF5
:1053B00008D00CE06FF3120C6FF3DC4C0CF50022FC
:1053C000019204E02CF0C04202F100520192019AD5
:1053D0001A61C278012A11D0CA78012A0AD04A6912
:1053E00042B10A78012393400269D2F834C04CEAF2
:1053F00003035363CA78012A07D00FE00B780A69C8
:1054000000EB83039B695A61F4E70269926800929A
:1054100012F4807F11D045F080520292029A42F03D
:10542000806242F0004202920B7800EB83039B699A
:105430001A60CA78012A05D032E045F00052029283
:10544000ECE706E08A8A93B20A78C96800F091F91D
:1054500026E08A6862F3120C6FF3DC4C0CF5002234
:1054600001928AE7FFE70B780A6900EB83035B6D23
:105470005A61CA78012A08D14A791AB145F0005216
:10548000029202E045F080520292029A42F080625B
:1054900042F000420292097800EB8100406D026008
:1054A00003B0204670BD0000C2684FF0FF3151606C
:1054B000C2686FF0804151610149C06881617047E5
:1054C0000008008038B50446002500200090E168FF
:1054D0008861E1686FF0804048612046FFF7E4FF93
:1054E000E07808B910200090009840F4006040F483
:1054F000805040F4005040F4802040F4002040F000
:10550000080040F4801040F40010E1688A6982438A
:1055100010438861284638BD0022C068816841F088
:10552000010181601046704738B500240021002237
:105530000092009A42F010020092009AC3681A6129
:10554000094BC268D2F810C0CDF800C0491C99427E
:1055500004D8DDF800C01CF0100FF3D10320FFF7D2
:105560003CFC204638BD0000400D030038B5002447
:10557000002200230093009B43F020030093009B34
:1055800061F38A1300930099C3681961094BC168DC
:10559000D1F810C0CDF800C0521C9A4204D8DDF8F2
:1055A00000C01CF0200FF3D10320FFF716FC2046AB
:1055B00038BD0000400D030081B00146002009699C
:1055C00089680091C1F34101002908D0012903D065
:1055D000022907D0032900D1022001B0704703201F
:1055E00001B07047012001B07047C068406900F009
:1055F000010070470069026861F3010202607047B0
:1056000000B5FFF7F2FF012801D0012000BD002006
:1056100000BDC068416980690840704700698169C0
:10562000C069084080B2704700698169C06908405C
:10563000000C704700EB8101496D89680069406981
:1056400008407047844608460023D11C8908DCF8CE
:10565000D020002907D9D2F800C0C0F800C05B1CD8
:10566000001D8B42F7D3704730B4002200249446CB
:1056700080F803C00123837040258580012901D073
:1056800061B115E04FF0A042C372082101700421FE
:1056900041709115C1800221017209E0264A80F80B
:1056A0000BC00C210170062141704FF4A061C18034
:1056B000C26002F50061016100214378002B0ED920
:1056C00002EB411C00EB81030CF510659D610CF5AC
:1056D000306CC3F854C0491C43788B42F0D802F5B3
:1056E000806141614031C0F8CC1000210378002B6B
:1056F0000BD902EB411300EB810C03F5A063CCF84E
:105700009030491C03788B42F3D800210378002B9A
:105710000BD902EB013300EB810C03F58053CCF87D
:10572000D030491C03788B42F3D802F56061C0F891
:105730000C11204630BC70470000044038B50024EE
:10574000C368DA6822F0005222F0804200920129F8
:1057500001D021B106E042F00050009002E042F09A
:10576000804000900098D8603220FFF733FB20463D
:1057700038BD10B40446002094F803C0BCF1000FFB
:105780000FD18446DB1C9B0804EB8202D2F8D020A8
:10579000002B06D90C6814600CF1010C091D9C4506
:1057A000F8D310BC7047FEE72DE9F04188B00746FA
:1057B00001218804FDF7C8FA01210220FDF7A8FAAB
:1057C00027208DF80C0001258DF80D5000248DF850
:1057D0000E408DF80F5003A8FDF750FADFF89C80BB
:1057E00007220A214046FCF7DEFE07220B21404635
:1057F000FCF7D9FEA802009002268DF804608DF80F
:1058000005608DF806408DF8075069464046FCF764
:105810007FFEE80200908DF804608DF805608DF839
:1058200006508DF8075069464046FCF771FE049714
:10583000ADF81440ADF81640ADF81840ADF81C4076
:105840000C20ADF81A000E4C04A92046FEF7A2FC6D
:1058500001212046FEF73EFC40212046FEF72CFCAD
:10586000012240F225512046FEF776FC0121204618
:10587000FEF730FC08B0BDE8F081000000040240F3
:105880000048004070B50546064C80212046FEF7D2
:1058900038FC0028F9D029462046BDE87040FEF7C4
:1058A000E1BC000000480040042829DD154A2028FA
:1058B00002D0212824D112E008784B7891F803C057
:1058C00040EA03208B781B0443EA0C631843106002
:1058D00008791071487950718879907110E01078CA
:1058E00008701088000A48701068000C88701068F2
:1058F000000EC870107908715079487190798871DC
:1059000000207047A40100202DE9F05F82468946FF
:105910000024B9F1000F6DD93A4E3B4F4FF0020B06
:10592000A0461AF80450387808B9AA2D02D00128E8
:1059300004D005E00120387035702FE0AF2D02D083
:10594000022804D00BE087F800B0757026E029002B
:1059500005D0F12D03D203203870B5701EE0032866
:1059600008D1FF2D06D204203870F570FD60C7F80D
:10597000108013E004280DD1F96800290ADD491EC2
:10598000F9603869431C30443B61057131B9052029
:10599000387003E0052806D087F80080788810F476
:1059A000004F0BD023E087F800803869321815715A
:1059B000401DC1B21348FAF7C3FCEFE710F4804F63
:1059C00008D00A2D02D0A7F8028010E040F4004071
:1059D00078800CE00D2D10D00C49C0F30D028D54D1
:1059E000401C80B27880C72801D9A7F80280641CC7
:1059F0004C4596D30020BDE8F09F40F4804078806D
:105A0000F5E70000945800208C010020CC570020BE
:105A1000074A064B11685854481C1060B0F5006FD7
:105A200001D100201060002070470000325A002091
:105A30000C020020002070470020704770B54F48CE
:105A4000002545600178491C01704D4801684D48AA
:105A500002F048FC4C4C4B4894ED260A02F004FC42
:105A600094ED780A474802F0FFFB94ED330A45486D
:105A7000BDEEC00A10EE101A02F034FC94ED850A57
:105A80004048BDEEC00A10EE101A02F02BFC3D4853
:105A9000D4F80C1102F026FC3A48D4F8081102F0B0
:105AA00021FC3848D4F8101102F01CFC3548D4F819
:105AB000541202F017FC3348D4F8501202F012FCD2
:105AC0003048D4F8581202F00DFC94F824112D48F7
:105AD00002F008FC94ED4A0A2A48BDEEC00A10EE16
